{
	"contracts/Task3_CrowdFund.sol": {
		"CrowdFund": {
			"abi": [
				{
					"inputs": [
						{
							"internalType": "uint256",
							"name": "_id",
							"type": "uint256"
						}
					],
					"name": "cancel",
					"outputs": [],
					"stateMutability": "nonpayable",
					"type": "function"
				},
				{
					"inputs": [
						{
							"internalType": "uint256",
							"name": "_goal",
							"type": "uint256"
						},
						{
							"internalType": "uint32",
							"name": "_startAt",
							"type": "uint32"
						},
						{
							"internalType": "uint32",
							"name": "_endAt",
							"type": "uint32"
						}
					],
					"name": "launch",
					"outputs": [],
					"stateMutability": "nonpayable",
					"type": "function"
				}
			],
			"devdoc": {
				"kind": "dev",
				"methods": {},
				"version": 1
			},
			"evm": {
				"assembly": "    /* \"contracts/Task3_CrowdFund.sol\":70:247  contract CrowdFund {... */\n  mstore(0x40, 0x80)\n  callvalue\n  dup1\n  iszero\n  tag_1\n  jumpi\n  0x00\n  dup1\n  revert\ntag_1:\n  pop\n  dataSize(sub_0)\n  dup1\n  dataOffset(sub_0)\n  0x00\n  codecopy\n  0x00\n  return\nstop\n\nsub_0: assembly {\n        /* \"contracts/Task3_CrowdFund.sol\":70:247  contract CrowdFund {... */\n      mstore(0x40, 0x80)\n      callvalue\n      dup1\n      iszero\n      tag_1\n      jumpi\n      0x00\n      dup1\n      revert\n    tag_1:\n      pop\n      jumpi(tag_2, lt(calldatasize, 0x04))\n      shr(0xe0, calldataload(0x00))\n      dup1\n      0x2c63f146\n      eq\n      tag_3\n      jumpi\n      dup1\n      0x40e58ee5\n      eq\n      tag_4\n      jumpi\n    tag_2:\n      0x00\n      dup1\n      revert\n        /* \"contracts/Task3_CrowdFund.sol\":95:202  function launch(... */\n    tag_3:\n      tag_5\n      0x04\n      dup1\n      calldatasize\n      sub\n      dup2\n      add\n      swap1\n      tag_6\n      swap2\n      swap1\n      tag_7\n      jump\t// in\n    tag_6:\n      tag_8\n      jump\t// in\n    tag_5:\n      stop\n        /* \"contracts/Task3_CrowdFund.sol\":208:245  function cancel(uint _id) external {} */\n    tag_4:\n      tag_9\n      0x04\n      dup1\n      calldatasize\n      sub\n      dup2\n      add\n      swap1\n      tag_10\n      swap2\n      swap1\n      tag_11\n      jump\t// in\n    tag_10:\n      tag_12\n      jump\t// in\n    tag_9:\n      stop\n        /* \"contracts/Task3_CrowdFund.sol\":95:202  function launch(... */\n    tag_8:\n      pop\n      pop\n      pop\n      jump\t// out\n        /* \"contracts/Task3_CrowdFund.sol\":208:245  function cancel(uint _id) external {} */\n    tag_12:\n      pop\n      jump\t// out\n        /* \"#utility.yul\":7:146   */\n    tag_16:\n        /* \"#utility.yul\":53:58   */\n      0x00\n        /* \"#utility.yul\":91:97   */\n      dup2\n        /* \"#utility.yul\":78:98   */\n      calldataload\n        /* \"#utility.yul\":69:98   */\n      swap1\n      pop\n        /* \"#utility.yul\":107:140   */\n      tag_18\n        /* \"#utility.yul\":134:139   */\n      dup2\n        /* \"#utility.yul\":107:140   */\n      tag_19\n      jump\t// in\n    tag_18:\n        /* \"#utility.yul\":7:146   */\n      swap3\n      swap2\n      pop\n      pop\n      jump\t// out\n        /* \"#utility.yul\":152:289   */\n    tag_20:\n        /* \"#utility.yul\":197:202   */\n      0x00\n        /* \"#utility.yul\":235:241   */\n      dup2\n        /* \"#utility.yul\":222:242   */\n      calldataload\n        /* \"#utility.yul\":213:242   */\n      swap1\n      pop\n        /* \"#utility.yul\":251:283   */\n      tag_22\n        /* \"#utility.yul\":277:282   */\n      dup2\n        /* \"#utility.yul\":251:283   */\n      tag_23\n      jump\t// in\n    tag_22:\n        /* \"#utility.yul\":152:289   */\n      swap3\n      swap2\n      pop\n      pop\n      jump\t// out\n        /* \"#utility.yul\":295:624   */\n    tag_11:\n        /* \"#utility.yul\":354:360   */\n      0x00\n        /* \"#utility.yul\":403:405   */\n      0x20\n        /* \"#utility.yul\":391:400   */\n      dup3\n        /* \"#utility.yul\":382:389   */\n      dup5\n        /* \"#utility.yul\":378:401   */\n      sub\n        /* \"#utility.yul\":374:406   */\n      slt\n        /* \"#utility.yul\":371:490   */\n      iszero\n      tag_25\n      jumpi\n        /* \"#utility.yul\":409:488   */\n      tag_26\n      tag_27\n      jump\t// in\n    tag_26:\n        /* \"#utility.yul\":371:490   */\n    tag_25:\n        /* \"#utility.yul\":529:530   */\n      0x00\n        /* \"#utility.yul\":554:607   */\n      tag_28\n        /* \"#utility.yul\":599:606   */\n      dup5\n        /* \"#utility.yul\":590:596   */\n      dup3\n        /* \"#utility.yul\":579:588   */\n      dup6\n        /* \"#utility.yul\":575:597   */\n      add\n        /* \"#utility.yul\":554:607   */\n      tag_16\n      jump\t// in\n    tag_28:\n        /* \"#utility.yul\":544:607   */\n      swap2\n      pop\n        /* \"#utility.yul\":500:617   */\n      pop\n        /* \"#utility.yul\":295:624   */\n      swap3\n      swap2\n      pop\n      pop\n      jump\t// out\n        /* \"#utility.yul\":630:1245   */\n    tag_7:\n        /* \"#utility.yul\":705:711   */\n      0x00\n        /* \"#utility.yul\":713:719   */\n      dup1\n        /* \"#utility.yul\":721:727   */\n      0x00\n        /* \"#utility.yul\":770:772   */\n      0x60\n        /* \"#utility.yul\":758:767   */\n      dup5\n        /* \"#utility.yul\":749:756   */\n      dup7\n        /* \"#utility.yul\":745:768   */\n      sub\n        /* \"#utility.yul\":741:773   */\n      slt\n        /* \"#utility.yul\":738:857   */\n      iszero\n      tag_30\n      jumpi\n        /* \"#utility.yul\":776:855   */\n      tag_31\n      tag_27\n      jump\t// in\n    tag_31:\n        /* \"#utility.yul\":738:857   */\n    tag_30:\n        /* \"#utility.yul\":896:897   */\n      0x00\n        /* \"#utility.yul\":921:974   */\n      tag_32\n        /* \"#utility.yul\":966:973   */\n      dup7\n        /* \"#utility.yul\":957:963   */\n      dup3\n        /* \"#utility.yul\":946:955   */\n      dup8\n        /* \"#utility.yul\":942:964   */\n      add\n        /* \"#utility.yul\":921:974   */\n      tag_16\n      jump\t// in\n    tag_32:\n        /* \"#utility.yul\":911:974   */\n      swap4\n      pop\n        /* \"#utility.yul\":867:984   */\n      pop\n        /* \"#utility.yul\":1023:1025   */\n      0x20\n        /* \"#utility.yul\":1049:1101   */\n      tag_33\n        /* \"#utility.yul\":1093:1100   */\n      dup7\n        /* \"#utility.yul\":1084:1090   */\n      dup3\n        /* \"#utility.yul\":1073:1082   */\n      dup8\n        /* \"#utility.yul\":1069:1091   */\n      add\n        /* \"#utility.yul\":1049:1101   */\n      tag_20\n      jump\t// in\n    tag_33:\n        /* \"#utility.yul\":1039:1101   */\n      swap3\n      pop\n        /* \"#utility.yul\":994:1111   */\n      pop\n        /* \"#utility.yul\":1150:1152   */\n      0x40\n        /* \"#utility.yul\":1176:1228   */\n      tag_34\n        /* \"#utility.yul\":1220:1227   */\n      dup7\n        /* \"#utility.yul\":1211:1217   */\n      dup3\n        /* \"#utility.yul\":1200:1209   */\n      dup8\n        /* \"#utility.yul\":1196:1218   */\n      add\n        /* \"#utility.yul\":1176:1228   */\n      tag_20\n      jump\t// in\n    tag_34:\n        /* \"#utility.yul\":1166:1228   */\n      swap2\n      pop\n        /* \"#utility.yul\":1121:1238   */\n      pop\n        /* \"#utility.yul\":630:1245   */\n      swap3\n      pop\n      swap3\n      pop\n      swap3\n      jump\t// out\n        /* \"#utility.yul\":1332:1409   */\n    tag_37:\n        /* \"#utility.yul\":1369:1376   */\n      0x00\n        /* \"#utility.yul\":1398:1403   */\n      dup2\n        /* \"#utility.yul\":1387:1403   */\n      swap1\n      pop\n        /* \"#utility.yul\":1332:1409   */\n      swap2\n      swap1\n      pop\n      jump\t// out\n        /* \"#utility.yul\":1415:1508   */\n    tag_39:\n        /* \"#utility.yul\":1451:1458   */\n      0x00\n        /* \"#utility.yul\":1491:1501   */\n      0xffffffff\n        /* \"#utility.yul\":1484:1489   */\n      dup3\n        /* \"#utility.yul\":1480:1502   */\n      and\n        /* \"#utility.yul\":1469:1502   */\n      swap1\n      pop\n        /* \"#utility.yul\":1415:1508   */\n      swap2\n      swap1\n      pop\n      jump\t// out\n        /* \"#utility.yul\":1637:1754   */\n    tag_27:\n        /* \"#utility.yul\":1746:1747   */\n      0x00\n        /* \"#utility.yul\":1743:1744   */\n      dup1\n        /* \"#utility.yul\":1736:1748   */\n      revert\n        /* \"#utility.yul\":1760:1882   */\n    tag_19:\n        /* \"#utility.yul\":1833:1857   */\n      tag_45\n        /* \"#utility.yul\":1851:1856   */\n      dup2\n        /* \"#utility.yul\":1833:1857   */\n      tag_37\n      jump\t// in\n    tag_45:\n        /* \"#utility.yul\":1826:1831   */\n      dup2\n        /* \"#utility.yul\":1823:1858   */\n      eq\n        /* \"#utility.yul\":1813:1876   */\n      tag_46\n      jumpi\n        /* \"#utility.yul\":1872:1873   */\n      0x00\n        /* \"#utility.yul\":1869:1870   */\n      dup1\n        /* \"#utility.yul\":1862:1874   */\n      revert\n        /* \"#utility.yul\":1813:1876   */\n    tag_46:\n        /* \"#utility.yul\":1760:1882   */\n      pop\n      jump\t// out\n        /* \"#utility.yul\":1888:2008   */\n    tag_23:\n        /* \"#utility.yul\":1960:1983   */\n      tag_48\n        /* \"#utility.yul\":1977:1982   */\n      dup2\n        /* \"#utility.yul\":1960:1983   */\n      tag_39\n      jump\t// in\n    tag_48:\n        /* \"#utility.yul\":1953:1958   */\n      dup2\n        /* \"#utility.yul\":1950:1984   */\n      eq\n        /* \"#utility.yul\":1940:2002   */\n      tag_49\n      jumpi\n        /* \"#utility.yul\":1998:1999   */\n      0x00\n        /* \"#utility.yul\":1995:1996   */\n      dup1\n        /* \"#utility.yul\":1988:2000   */\n      revert\n        /* \"#utility.yul\":1940:2002   */\n    tag_49:\n        /* \"#utility.yul\":1888:2008   */\n      pop\n      jump\t// out\n\n    auxdata: 0xa2646970667358221220bcf009babd021db175ad3114ff0bc06f63da3bfb92565157950b7a30006d1ea864736f6c63430008070033\n}\n",
				"bytecode": {
					"linkReferences": {},
					"object": "608060405234801561001057600080fd5b506101a8806100206000396000f3fe608060405234801561001057600080fd5b50600436106100365760003560e01c80632c63f1461461003b57806340e58ee514610057575b600080fd5b610055600480360381019061005091906100d2565b610073565b005b610071600480360381019061006c91906100a5565b610078565b005b505050565b50565b60008135905061008a81610144565b92915050565b60008135905061009f8161015b565b92915050565b6000602082840312156100bb576100ba61013f565b5b60006100c98482850161007b565b91505092915050565b6000806000606084860312156100eb576100ea61013f565b5b60006100f98682870161007b565b935050602061010a86828701610090565b925050604061011b86828701610090565b9150509250925092565b6000819050919050565b600063ffffffff82169050919050565b600080fd5b61014d81610125565b811461015857600080fd5b50565b6101648161012f565b811461016f57600080fd5b5056fea2646970667358221220bcf009babd021db175ad3114ff0bc06f63da3bfb92565157950b7a30006d1ea864736f6c63430008070033",
					"opcodes": "PUSH1 0x80 PUSH1 0x40 MSTORE CALLVALUE DUP1 ISZERO PUSH2 0x10 JUMPI PUSH1 0x0 DUP1 REVERT JUMPDEST POP PUSH2 0x1A8 DUP1 PUSH2 0x20 PUSH1 0x0 CODECOPY PUSH1 0x0 RETURN INVALID PUSH1 0x80 PUSH1 0x40 MSTORE CALLVALUE DUP1 ISZERO PUSH2 0x10 JUMPI PUSH1 0x0 DUP1 REVERT JUMPDEST POP PUSH1 0x4 CALLDATASIZE LT PUSH2 0x36 JUMPI PUSH1 0x0 CALLDATALOAD PUSH1 0xE0 SHR DUP1 PUSH4 0x2C63F146 EQ PUSH2 0x3B JUMPI DUP1 PUSH4 0x40E58EE5 EQ PUSH2 0x57 JUMPI JUMPDEST PUSH1 0x0 DUP1 REVERT JUMPDEST PUSH2 0x55 PUSH1 0x4 DUP1 CALLDATASIZE SUB DUP2 ADD SWAP1 PUSH2 0x50 SWAP2 SWAP1 PUSH2 0xD2 JUMP JUMPDEST PUSH2 0x73 JUMP JUMPDEST STOP JUMPDEST PUSH2 0x71 PUSH1 0x4 DUP1 CALLDATASIZE SUB DUP2 ADD SWAP1 PUSH2 0x6C SWAP2 SWAP1 PUSH2 0xA5 JUMP JUMPDEST PUSH2 0x78 JUMP JUMPDEST STOP JUMPDEST POP POP POP JUMP JUMPDEST POP JUMP JUMPDEST PUSH1 0x0 DUP2 CALLDATALOAD SWAP1 POP PUSH2 0x8A DUP2 PUSH2 0x144 JUMP JUMPDEST SWAP3 SWAP2 POP POP JUMP JUMPDEST PUSH1 0x0 DUP2 CALLDATALOAD SWAP1 POP PUSH2 0x9F DUP2 PUSH2 0x15B JUMP JUMPDEST SWAP3 SWAP2 POP POP JUMP JUMPDEST PUSH1 0x0 PUSH1 0x20 DUP3 DUP5 SUB SLT ISZERO PUSH2 0xBB JUMPI PUSH2 0xBA PUSH2 0x13F JUMP JUMPDEST JUMPDEST PUSH1 0x0 PUSH2 0xC9 DUP5 DUP3 DUP6 ADD PUSH2 0x7B JUMP JUMPDEST SWAP2 POP POP SWAP3 SWAP2 POP POP JUMP JUMPDEST PUSH1 0x0 DUP1 PUSH1 0x0 PUSH1 0x60 DUP5 DUP7 SUB SLT ISZERO PUSH2 0xEB JUMPI PUSH2 0xEA PUSH2 0x13F JUMP JUMPDEST JUMPDEST PUSH1 0x0 PUSH2 0xF9 DUP7 DUP3 DUP8 ADD PUSH2 0x7B JUMP JUMPDEST SWAP4 POP POP PUSH1 0x20 PUSH2 0x10A DUP7 DUP3 DUP8 ADD PUSH2 0x90 JUMP JUMPDEST SWAP3 POP POP PUSH1 0x40 PUSH2 0x11B DUP7 DUP3 DUP8 ADD PUSH2 0x90 JUMP JUMPDEST SWAP2 POP POP SWAP3 POP SWAP3 POP SWAP3 JUMP JUMPDEST PUSH1 0x0 DUP2 SWAP1 POP SWAP2 SWAP1 POP JUMP JUMPDEST PUSH1 0x0 PUSH4 0xFFFFFFFF DUP3 AND SWAP1 POP SWAP2 SWAP1 POP JUMP JUMPDEST PUSH1 0x0 DUP1 REVERT JUMPDEST PUSH2 0x14D DUP2 PUSH2 0x125 JUMP JUMPDEST DUP2 EQ PUSH2 0x158 JUMPI PUSH1 0x0 DUP1 REVERT JUMPDEST POP JUMP JUMPDEST PUSH2 0x164 DUP2 PUSH2 0x12F JUMP JUMPDEST DUP2 EQ PUSH2 0x16F JUMPI PUSH1 0x0 DUP1 REVERT JUMPDEST POP JUMP INVALID LOG2 PUSH5 0x6970667358 0x22 SLT KECCAK256 0xBC CREATE MULMOD 0xBA 0xBD MUL SAR 0xB1 PUSH22 0xAD3114FF0BC06F63DA3BFB92565157950B7A30006D1E 0xA8 PUSH5 0x736F6C6343 STOP ADDMOD SMOD STOP CALLER "
				},
				"gasEstimates": {
					"creation": {
						"codeDepositCost": "84800",
						"executionCost": "135",
						"totalCost": "84935"
					},
					"external": {
						"cancel(uint256)": "406",
						"launch(uint256,uint32,uint32)": "infinite"
					}
				},
				"methodIdentifiers": {
					"cancel(uint256)": "40e58ee5",
					"launch(uint256,uint32,uint32)": "2c63f146"
				}
			},
			"storageLayout": {
				"storage": [],
				"types": null
			},
			"userdoc": {
				"kind": "user",
				"methods": {},
				"version": 1
			}
		}
	}
}