{
	"contracts/Task3_CrowdFund.sol": {
		"CrowdFund": {
			"abi": [
				{
					"inputs": [
						{
							"internalType": "address",
							"name": "_token",
							"type": "address"
						}
					],
					"stateMutability": "nonpayable",
					"type": "constructor"
				},
				{
					"anonymous": false,
					"inputs": [
						{
							"indexed": false,
							"internalType": "uint256",
							"name": "id",
							"type": "uint256"
						}
					],
					"name": "Cancel",
					"type": "event"
				},
				{
					"anonymous": false,
					"inputs": [
						{
							"indexed": false,
							"internalType": "uint256",
							"name": "id",
							"type": "uint256"
						}
					],
					"name": "Claim",
					"type": "event"
				},
				{
					"anonymous": false,
					"inputs": [
						{
							"indexed": false,
							"internalType": "uint256",
							"name": "id",
							"type": "uint256"
						},
						{
							"indexed": true,
							"internalType": "address",
							"name": "creator",
							"type": "address"
						},
						{
							"indexed": false,
							"internalType": "uint256",
							"name": "goal",
							"type": "uint256"
						},
						{
							"indexed": false,
							"internalType": "uint32",
							"name": "startAt",
							"type": "uint32"
						},
						{
							"indexed": false,
							"internalType": "uint32",
							"name": "endAt",
							"type": "uint32"
						}
					],
					"name": "Launch",
					"type": "event"
				},
				{
					"anonymous": false,
					"inputs": [
						{
							"indexed": true,
							"internalType": "uint256",
							"name": "id",
							"type": "uint256"
						},
						{
							"indexed": true,
							"internalType": "address",
							"name": "caller",
							"type": "address"
						},
						{
							"indexed": false,
							"internalType": "uint256",
							"name": "amount",
							"type": "uint256"
						}
					],
					"name": "Pledge",
					"type": "event"
				},
				{
					"anonymous": false,
					"inputs": [
						{
							"indexed": true,
							"internalType": "uint256",
							"name": "id",
							"type": "uint256"
						},
						{
							"indexed": true,
							"internalType": "address",
							"name": "caller",
							"type": "address"
						},
						{
							"indexed": false,
							"internalType": "uint256",
							"name": "amount",
							"type": "uint256"
						}
					],
					"name": "Refund",
					"type": "event"
				},
				{
					"anonymous": false,
					"inputs": [
						{
							"indexed": true,
							"internalType": "uint256",
							"name": "id",
							"type": "uint256"
						},
						{
							"indexed": true,
							"internalType": "address",
							"name": "caller",
							"type": "address"
						},
						{
							"indexed": false,
							"internalType": "uint256",
							"name": "amount",
							"type": "uint256"
						}
					],
					"name": "Unpledge",
					"type": "event"
				},
				{
					"inputs": [
						{
							"internalType": "uint256",
							"name": "",
							"type": "uint256"
						}
					],
					"name": "campaigns",
					"outputs": [
						{
							"internalType": "address",
							"name": "creator",
							"type": "address"
						},
						{
							"internalType": "uint256",
							"name": "goal",
							"type": "uint256"
						},
						{
							"internalType": "uint256",
							"name": "pledged",
							"type": "uint256"
						},
						{
							"internalType": "uint32",
							"name": "startAt",
							"type": "uint32"
						},
						{
							"internalType": "uint32",
							"name": "endAt",
							"type": "uint32"
						},
						{
							"internalType": "bool",
							"name": "claimed",
							"type": "bool"
						}
					],
					"stateMutability": "view",
					"type": "function"
				},
				{
					"inputs": [
						{
							"internalType": "uint256",
							"name": "_id",
							"type": "uint256"
						}
					],
					"name": "cancel",
					"outputs": [],
					"stateMutability": "nonpayable",
					"type": "function"
				},
				{
					"inputs": [
						{
							"internalType": "uint256",
							"name": "_id",
							"type": "uint256"
						}
					],
					"name": "claim",
					"outputs": [],
					"stateMutability": "nonpayable",
					"type": "function"
				},
				{
					"inputs": [],
					"name": "count",
					"outputs": [
						{
							"internalType": "uint256",
							"name": "",
							"type": "uint256"
						}
					],
					"stateMutability": "view",
					"type": "function"
				},
				{
					"inputs": [
						{
							"internalType": "uint256",
							"name": "_goal",
							"type": "uint256"
						},
						{
							"internalType": "uint32",
							"name": "_startAt",
							"type": "uint32"
						},
						{
							"internalType": "uint32",
							"name": "_endAt",
							"type": "uint32"
						}
					],
					"name": "launch",
					"outputs": [],
					"stateMutability": "nonpayable",
					"type": "function"
				},
				{
					"inputs": [
						{
							"internalType": "uint256",
							"name": "_id",
							"type": "uint256"
						},
						{
							"internalType": "uint256",
							"name": "_amount",
							"type": "uint256"
						}
					],
					"name": "pledge",
					"outputs": [],
					"stateMutability": "nonpayable",
					"type": "function"
				},
				{
					"inputs": [
						{
							"internalType": "uint256",
							"name": "",
							"type": "uint256"
						},
						{
							"internalType": "address",
							"name": "",
							"type": "address"
						}
					],
					"name": "pledgedAmount",
					"outputs": [
						{
							"internalType": "uint256",
							"name": "",
							"type": "uint256"
						}
					],
					"stateMutability": "view",
					"type": "function"
				},
				{
					"inputs": [
						{
							"internalType": "uint256",
							"name": "_id",
							"type": "uint256"
						}
					],
					"name": "refund",
					"outputs": [],
					"stateMutability": "nonpayable",
					"type": "function"
				},
				{
					"inputs": [],
					"name": "token",
					"outputs": [
						{
							"internalType": "contract IERC20",
							"name": "",
							"type": "address"
						}
					],
					"stateMutability": "view",
					"type": "function"
				},
				{
					"inputs": [
						{
							"internalType": "uint256",
							"name": "_id",
							"type": "uint256"
						},
						{
							"internalType": "uint256",
							"name": "_amount",
							"type": "uint256"
						}
					],
					"name": "unpledge",
					"outputs": [],
					"stateMutability": "nonpayable",
					"type": "function"
				}
			],
			"devdoc": {
				"kind": "dev",
				"methods": {},
				"version": 1
			},
			"evm": {
				"assembly": "    /* \"contracts/Task3_CrowdFund.sol\":180:3607  contract CrowdFund {... */\n  mstore(0x40, 0xa0)\n    /* \"contracts/Task3_CrowdFund.sol\":954:1021  constructor(address _token) {... */\n  callvalue\n  dup1\n  iszero\n  tag_1\n  jumpi\n  0x00\n  dup1\n  revert\ntag_1:\n  pop\n  mload(0x40)\n  sub(codesize, bytecodeSize)\n  dup1\n  bytecodeSize\n  dup4\n  codecopy\n  dup2\n  dup2\n  add\n  0x40\n  mstore\n  dup2\n  add\n  swap1\n  tag_2\n  swap2\n  swap1\n  tag_3\n  jump\t// in\ntag_2:\n    /* \"contracts/Task3_CrowdFund.sol\":1007:1013  _token */\n  dup1\n    /* \"contracts/Task3_CrowdFund.sol\":992:1014  token = IERC20(_token) */\n  0xffffffffffffffffffffffffffffffffffffffff\n  and\n  0x80\n  dup2\n  0xffffffffffffffffffffffffffffffffffffffff\n  and\n  0x60\n  shl\n  dup2\n  mstore\n  pop\n  pop\n    /* \"contracts/Task3_CrowdFund.sol\":954:1021  constructor(address _token) {... */\n  pop\n    /* \"contracts/Task3_CrowdFund.sol\":180:3607  contract CrowdFund {... */\n  jump(tag_6)\n    /* \"#utility.yul\":7:150   */\ntag_8:\n    /* \"#utility.yul\":64:69   */\n  0x00\n    /* \"#utility.yul\":95:101   */\n  dup2\n    /* \"#utility.yul\":89:102   */\n  mload\n    /* \"#utility.yul\":80:102   */\n  swap1\n  pop\n    /* \"#utility.yul\":111:144   */\n  tag_10\n    /* \"#utility.yul\":138:143   */\n  dup2\n    /* \"#utility.yul\":111:144   */\n  tag_11\n  jump\t// in\ntag_10:\n    /* \"#utility.yul\":7:150   */\n  swap3\n  swap2\n  pop\n  pop\n  jump\t// out\n    /* \"#utility.yul\":156:507   */\ntag_3:\n    /* \"#utility.yul\":226:232   */\n  0x00\n    /* \"#utility.yul\":275:277   */\n  0x20\n    /* \"#utility.yul\":263:272   */\n  dup3\n    /* \"#utility.yul\":254:261   */\n  dup5\n    /* \"#utility.yul\":250:273   */\n  sub\n    /* \"#utility.yul\":246:278   */\n  slt\n    /* \"#utility.yul\":243:362   */\n  iszero\n  tag_13\n  jumpi\n    /* \"#utility.yul\":281:360   */\n  tag_14\n  tag_15\n  jump\t// in\ntag_14:\n    /* \"#utility.yul\":243:362   */\ntag_13:\n    /* \"#utility.yul\":401:402   */\n  0x00\n    /* \"#utility.yul\":426:490   */\n  tag_16\n    /* \"#utility.yul\":482:489   */\n  dup5\n    /* \"#utility.yul\":473:479   */\n  dup3\n    /* \"#utility.yul\":462:471   */\n  dup6\n    /* \"#utility.yul\":458:480   */\n  add\n    /* \"#utility.yul\":426:490   */\n  tag_8\n  jump\t// in\ntag_16:\n    /* \"#utility.yul\":416:490   */\n  swap2\n  pop\n    /* \"#utility.yul\":372:500   */\n  pop\n    /* \"#utility.yul\":156:507   */\n  swap3\n  swap2\n  pop\n  pop\n  jump\t// out\n    /* \"#utility.yul\":594:690   */\ntag_19:\n    /* \"#utility.yul\":631:638   */\n  0x00\n    /* \"#utility.yul\":660:684   */\n  tag_21\n    /* \"#utility.yul\":678:683   */\n  dup3\n    /* \"#utility.yul\":660:684   */\n  tag_22\n  jump\t// in\ntag_21:\n    /* \"#utility.yul\":649:684   */\n  swap1\n  pop\n    /* \"#utility.yul\":594:690   */\n  swap2\n  swap1\n  pop\n  jump\t// out\n    /* \"#utility.yul\":696:822   */\ntag_22:\n    /* \"#utility.yul\":733:740   */\n  0x00\n    /* \"#utility.yul\":773:815   */\n  0xffffffffffffffffffffffffffffffffffffffff\n    /* \"#utility.yul\":766:771   */\n  dup3\n    /* \"#utility.yul\":762:816   */\n  and\n    /* \"#utility.yul\":751:816   */\n  swap1\n  pop\n    /* \"#utility.yul\":696:822   */\n  swap2\n  swap1\n  pop\n  jump\t// out\n    /* \"#utility.yul\":951:1068   */\ntag_15:\n    /* \"#utility.yul\":1060:1061   */\n  0x00\n    /* \"#utility.yul\":1057:1058   */\n  dup1\n    /* \"#utility.yul\":1050:1062   */\n  revert\n    /* \"#utility.yul\":1074:1196   */\ntag_11:\n    /* \"#utility.yul\":1147:1171   */\n  tag_28\n    /* \"#utility.yul\":1165:1170   */\n  dup2\n    /* \"#utility.yul\":1147:1171   */\n  tag_19\n  jump\t// in\ntag_28:\n    /* \"#utility.yul\":1140:1145   */\n  dup2\n    /* \"#utility.yul\":1137:1172   */\n  eq\n    /* \"#utility.yul\":1127:1190   */\n  tag_29\n  jumpi\n    /* \"#utility.yul\":1186:1187   */\n  0x00\n    /* \"#utility.yul\":1183:1184   */\n  dup1\n    /* \"#utility.yul\":1176:1188   */\n  revert\n    /* \"#utility.yul\":1127:1190   */\ntag_29:\n    /* \"#utility.yul\":1074:1196   */\n  pop\n  jump\t// out\n    /* \"contracts/Task3_CrowdFund.sol\":180:3607  contract CrowdFund {... */\ntag_6:\n  shr(0x60, mload(0x80))\n  codecopy(0x00, dataOffset(sub_0), dataSize(sub_0))\n  0x00\n  assignImmutable(\"0xd9670a00d025e59e1bd58d53874bea4ab34fea782716e2c168e89a3c8452d3bb\")\n  return(0x00, dataSize(sub_0))\nstop\n\nsub_0: assembly {\n        /* \"contracts/Task3_CrowdFund.sol\":180:3607  contract CrowdFund {... */\n      mstore(0x40, 0x80)\n      callvalue\n      dup1\n      iszero\n      tag_1\n      jumpi\n      0x00\n      dup1\n      revert\n    tag_1:\n      pop\n      jumpi(tag_2, lt(calldatasize, 0x04))\n      shr(0xe0, calldataload(0x00))\n      dup1\n      0x40e58ee5\n      gt\n      tag_13\n      jumpi\n      dup1\n      0x40e58ee5\n      eq\n      tag_8\n      jumpi\n      dup1\n      0x711853ab\n      eq\n      tag_9\n      jumpi\n      dup1\n      0xaa4fb63a\n      eq\n      tag_10\n      jumpi\n      dup1\n      0xfc0c546a\n      eq\n      tag_11\n      jumpi\n      dup1\n      0xfde327be\n      eq\n      tag_12\n      jumpi\n      jump(tag_2)\n    tag_13:\n      dup1\n      0x06661abd\n      eq\n      tag_3\n      jumpi\n      dup1\n      0x141961bc\n      eq\n      tag_4\n      jumpi\n      dup1\n      0x278ecde1\n      eq\n      tag_5\n      jumpi\n      dup1\n      0x2c63f146\n      eq\n      tag_6\n      jumpi\n      dup1\n      0x379607f5\n      eq\n      tag_7\n      jumpi\n    tag_2:\n      0x00\n      dup1\n      revert\n        /* \"contracts/Task3_CrowdFund.sol\":814:831  uint public count */\n    tag_3:\n      tag_14\n      tag_15\n      jump\t// in\n    tag_14:\n      mload(0x40)\n      tag_16\n      swap2\n      swap1\n      tag_17\n      jump\t// in\n    tag_16:\n      mload(0x40)\n      dup1\n      swap2\n      sub\n      swap1\n      return\n        /* \"contracts/Task3_CrowdFund.sol\":837:879  mapping(uint => Campaign) public campaigns */\n    tag_4:\n      tag_18\n      0x04\n      dup1\n      calldatasize\n      sub\n      dup2\n      add\n      swap1\n      tag_19\n      swap2\n      swap1\n      tag_20\n      jump\t// in\n    tag_19:\n      tag_21\n      jump\t// in\n    tag_18:\n      mload(0x40)\n      tag_22\n      swap7\n      swap6\n      swap5\n      swap4\n      swap3\n      swap2\n      swap1\n      tag_23\n      jump\t// in\n    tag_22:\n      mload(0x40)\n      dup1\n      swap2\n      sub\n      swap1\n      return\n        /* \"contracts/Task3_CrowdFund.sol\":3197:3605  function refund(uint _id) external {... */\n    tag_5:\n      tag_24\n      0x04\n      dup1\n      calldatasize\n      sub\n      dup2\n      add\n      swap1\n      tag_25\n      swap2\n      swap1\n      tag_20\n      jump\t// in\n    tag_25:\n      tag_26\n      jump\t// in\n    tag_24:\n      stop\n        /* \"contracts/Task3_CrowdFund.sol\":1027:1639  function launch(... */\n    tag_6:\n      tag_27\n      0x04\n      dup1\n      calldatasize\n      sub\n      dup2\n      add\n      swap1\n      tag_28\n      swap2\n      swap1\n      tag_29\n      jump\t// in\n    tag_28:\n      tag_30\n      jump\t// in\n    tag_27:\n      stop\n        /* \"contracts/Task3_CrowdFund.sol\":2739:3191  function claim(uint _id) external {... */\n    tag_7:\n      tag_31\n      0x04\n      dup1\n      calldatasize\n      sub\n      dup2\n      add\n      swap1\n      tag_32\n      swap2\n      swap1\n      tag_20\n      jump\t// in\n    tag_32:\n      tag_33\n      jump\t// in\n    tag_31:\n      stop\n        /* \"contracts/Task3_CrowdFund.sol\":1645:1927  function cancel(uint _id) external {... */\n    tag_8:\n      tag_34\n      0x04\n      dup1\n      calldatasize\n      sub\n      dup2\n      add\n      swap1\n      tag_35\n      swap2\n      swap1\n      tag_20\n      jump\t// in\n    tag_35:\n      tag_36\n      jump\t// in\n    tag_34:\n      stop\n        /* \"contracts/Task3_CrowdFund.sol\":2378:2733  function unpledge(uint _id, uint _amount) external {... */\n    tag_9:\n      tag_37\n      0x04\n      dup1\n      calldatasize\n      sub\n      dup2\n      add\n      swap1\n      tag_38\n      swap2\n      swap1\n      tag_39\n      jump\t// in\n    tag_38:\n      tag_40\n      jump\t// in\n    tag_37:\n      stop\n        /* \"contracts/Task3_CrowdFund.sol\":885:947  mapping(uint => mapping(address => uint)) public pledgedAmount */\n    tag_10:\n      tag_41\n      0x04\n      dup1\n      calldatasize\n      sub\n      dup2\n      add\n      swap1\n      tag_42\n      swap2\n      swap1\n      tag_43\n      jump\t// in\n    tag_42:\n      tag_44\n      jump\t// in\n    tag_41:\n      mload(0x40)\n      tag_45\n      swap2\n      swap1\n      tag_17\n      jump\t// in\n    tag_45:\n      mload(0x40)\n      dup1\n      swap2\n      sub\n      swap1\n      return\n        /* \"contracts/Task3_CrowdFund.sol\":779:808  IERC20 public immutable token */\n    tag_11:\n      tag_46\n      tag_47\n      jump\t// in\n    tag_46:\n      mload(0x40)\n      tag_48\n      swap2\n      swap1\n      tag_49\n      jump\t// in\n    tag_48:\n      mload(0x40)\n      dup1\n      swap2\n      sub\n      swap1\n      return\n        /* \"contracts/Task3_CrowdFund.sol\":1933:2372  function pledge(uint _id, uint _amount) external {... */\n    tag_12:\n      tag_50\n      0x04\n      dup1\n      calldatasize\n      sub\n      dup2\n      add\n      swap1\n      tag_51\n      swap2\n      swap1\n      tag_39\n      jump\t// in\n    tag_51:\n      tag_52\n      jump\t// in\n    tag_50:\n      stop\n        /* \"contracts/Task3_CrowdFund.sol\":814:831  uint public count */\n    tag_15:\n      sload(0x00)\n      dup2\n      jump\t// out\n        /* \"contracts/Task3_CrowdFund.sol\":837:879  mapping(uint => Campaign) public campaigns */\n    tag_21:\n      mstore(0x20, 0x01)\n      dup1\n      0x00\n      mstore\n      keccak256(0x00, 0x40)\n      0x00\n      swap2\n      pop\n      swap1\n      pop\n      dup1\n      0x00\n      add\n      0x00\n      swap1\n      sload\n      swap1\n      0x0100\n      exp\n      swap1\n      div\n      0xffffffffffffffffffffffffffffffffffffffff\n      and\n      swap1\n      dup1\n      0x01\n      add\n      sload\n      swap1\n      dup1\n      0x02\n      add\n      sload\n      swap1\n      dup1\n      0x03\n      add\n      0x00\n      swap1\n      sload\n      swap1\n      0x0100\n      exp\n      swap1\n      div\n      0xffffffff\n      and\n      swap1\n      dup1\n      0x03\n      add\n      0x04\n      swap1\n      sload\n      swap1\n      0x0100\n      exp\n      swap1\n      div\n      0xffffffff\n      and\n      swap1\n      dup1\n      0x03\n      add\n      0x08\n      swap1\n      sload\n      swap1\n      0x0100\n      exp\n      swap1\n      div\n      0xff\n      and\n      swap1\n      pop\n      dup7\n      jump\t// out\n        /* \"contracts/Task3_CrowdFund.sol\":3197:3605  function refund(uint _id) external {... */\n    tag_26:\n        /* \"contracts/Task3_CrowdFund.sol\":3242:3267  Campaign storage campaign */\n      0x00\n        /* \"contracts/Task3_CrowdFund.sol\":3270:3279  campaigns */\n      0x01\n        /* \"contracts/Task3_CrowdFund.sol\":3270:3284  campaigns[_id] */\n      0x00\n        /* \"contracts/Task3_CrowdFund.sol\":3280:3283  _id */\n      dup4\n        /* \"contracts/Task3_CrowdFund.sol\":3270:3284  campaigns[_id] */\n      dup2\n      mstore\n      0x20\n      add\n      swap1\n      dup2\n      mstore\n      0x20\n      add\n      0x00\n      keccak256\n        /* \"contracts/Task3_CrowdFund.sol\":3242:3284  Campaign storage campaign = campaigns[_id] */\n      swap1\n      pop\n        /* \"contracts/Task3_CrowdFund.sol\":3320:3328  campaign */\n      dup1\n        /* \"contracts/Task3_CrowdFund.sol\":3320:3334  campaign.endAt */\n      0x03\n      add\n      0x04\n      swap1\n      sload\n      swap1\n      0x0100\n      exp\n      swap1\n      div\n      0xffffffff\n      and\n        /* \"contracts/Task3_CrowdFund.sol\":3302:3334  block.timestamp > campaign.endAt */\n      0xffffffff\n      and\n        /* \"contracts/Task3_CrowdFund.sol\":3302:3317  block.timestamp */\n      timestamp\n        /* \"contracts/Task3_CrowdFund.sol\":3302:3334  block.timestamp > campaign.endAt */\n      gt\n        /* \"contracts/Task3_CrowdFund.sol\":3294:3348  require(block.timestamp > campaign.endAt, \"not ended\") */\n      tag_54\n      jumpi\n      mload(0x40)\n      0x08c379a000000000000000000000000000000000000000000000000000000000\n      dup2\n      mstore\n      0x04\n      add\n      tag_55\n      swap1\n      tag_56\n      jump\t// in\n    tag_55:\n      mload(0x40)\n      dup1\n      swap2\n      sub\n      swap1\n      revert\n    tag_54:\n        /* \"contracts/Task3_CrowdFund.sol\":3385:3393  campaign */\n      dup1\n        /* \"contracts/Task3_CrowdFund.sol\":3385:3398  campaign.goal */\n      0x01\n      add\n      sload\n        /* \"contracts/Task3_CrowdFund.sol\":3366:3374  campaign */\n      dup2\n        /* \"contracts/Task3_CrowdFund.sol\":3366:3382  campaign.pledged */\n      0x02\n      add\n      sload\n        /* \"contracts/Task3_CrowdFund.sol\":3366:3398  campaign.pledged < campaign.goal */\n      lt\n        /* \"contracts/Task3_CrowdFund.sol\":3358:3417  require(campaign.pledged < campaign.goal, \"pledged < goal\") */\n      tag_57\n      jumpi\n      mload(0x40)\n      0x08c379a000000000000000000000000000000000000000000000000000000000\n      dup2\n      mstore\n      0x04\n      add\n      tag_58\n      swap1\n      tag_59\n      jump\t// in\n    tag_58:\n      mload(0x40)\n      dup1\n      swap2\n      sub\n      swap1\n      revert\n    tag_57:\n        /* \"contracts/Task3_CrowdFund.sol\":3428:3436  uint bal */\n      0x00\n        /* \"contracts/Task3_CrowdFund.sol\":3439:3452  pledgedAmount */\n      0x02\n        /* \"contracts/Task3_CrowdFund.sol\":3439:3457  pledgedAmount[_id] */\n      0x00\n        /* \"contracts/Task3_CrowdFund.sol\":3453:3456  _id */\n      dup5\n        /* \"contracts/Task3_CrowdFund.sol\":3439:3457  pledgedAmount[_id] */\n      dup2\n      mstore\n      0x20\n      add\n      swap1\n      dup2\n      mstore\n      0x20\n      add\n      0x00\n      keccak256\n        /* \"contracts/Task3_CrowdFund.sol\":3439:3469  pledgedAmount[_id][msg.sender] */\n      0x00\n        /* \"contracts/Task3_CrowdFund.sol\":3458:3468  msg.sender */\n      caller\n        /* \"contracts/Task3_CrowdFund.sol\":3439:3469  pledgedAmount[_id][msg.sender] */\n      0xffffffffffffffffffffffffffffffffffffffff\n      and\n      0xffffffffffffffffffffffffffffffffffffffff\n      and\n      dup2\n      mstore\n      0x20\n      add\n      swap1\n      dup2\n      mstore\n      0x20\n      add\n      0x00\n      keccak256\n      sload\n        /* \"contracts/Task3_CrowdFund.sol\":3428:3469  uint bal = pledgedAmount[_id][msg.sender] */\n      swap1\n      pop\n        /* \"contracts/Task3_CrowdFund.sol\":3512:3513  0 */\n      0x00\n        /* \"contracts/Task3_CrowdFund.sol\":3479:3492  pledgedAmount */\n      0x02\n        /* \"contracts/Task3_CrowdFund.sol\":3479:3497  pledgedAmount[_id] */\n      0x00\n        /* \"contracts/Task3_CrowdFund.sol\":3493:3496  _id */\n      dup6\n        /* \"contracts/Task3_CrowdFund.sol\":3479:3497  pledgedAmount[_id] */\n      dup2\n      mstore\n      0x20\n      add\n      swap1\n      dup2\n      mstore\n      0x20\n      add\n      0x00\n      keccak256\n        /* \"contracts/Task3_CrowdFund.sol\":3479:3509  pledgedAmount[_id][msg.sender] */\n      0x00\n        /* \"contracts/Task3_CrowdFund.sol\":3498:3508  msg.sender */\n      caller\n        /* \"contracts/Task3_CrowdFund.sol\":3479:3509  pledgedAmount[_id][msg.sender] */\n      0xffffffffffffffffffffffffffffffffffffffff\n      and\n      0xffffffffffffffffffffffffffffffffffffffff\n      and\n      dup2\n      mstore\n      0x20\n      add\n      swap1\n      dup2\n      mstore\n      0x20\n      add\n      0x00\n      keccak256\n        /* \"contracts/Task3_CrowdFund.sol\":3479:3513  pledgedAmount[_id][msg.sender] = 0 */\n      dup2\n      swap1\n      sstore\n      pop\n        /* \"contracts/Task3_CrowdFund.sol\":3523:3528  token */\n      immutable(\"0xd9670a00d025e59e1bd58d53874bea4ab34fea782716e2c168e89a3c8452d3bb\")\n        /* \"contracts/Task3_CrowdFund.sol\":3523:3537  token.transfer */\n      0xffffffffffffffffffffffffffffffffffffffff\n      and\n      0xa9059cbb\n        /* \"contracts/Task3_CrowdFund.sol\":3538:3548  msg.sender */\n      caller\n        /* \"contracts/Task3_CrowdFund.sol\":3550:3553  bal */\n      dup4\n        /* \"contracts/Task3_CrowdFund.sol\":3523:3554  token.transfer(msg.sender, bal) */\n      mload(0x40)\n      dup4\n      0xffffffff\n      and\n      0xe0\n      shl\n      dup2\n      mstore\n      0x04\n      add\n      tag_60\n      swap3\n      swap2\n      swap1\n      tag_61\n      jump\t// in\n    tag_60:\n      0x20\n      mload(0x40)\n      dup1\n      dup4\n      sub\n      dup2\n      0x00\n      dup8\n      dup1\n      extcodesize\n      iszero\n      dup1\n      iszero\n      tag_62\n      jumpi\n      0x00\n      dup1\n      revert\n    tag_62:\n      pop\n      gas\n      call\n      iszero\n      dup1\n      iszero\n      tag_64\n      jumpi\n      returndatasize\n      0x00\n      dup1\n      returndatacopy\n      revert(0x00, returndatasize)\n    tag_64:\n      pop\n      pop\n      pop\n      pop\n      mload(0x40)\n      returndatasize\n      not(0x1f)\n      0x1f\n      dup3\n      add\n      and\n      dup3\n      add\n      dup1\n      0x40\n      mstore\n      pop\n      dup2\n      add\n      swap1\n      tag_65\n      swap2\n      swap1\n      tag_66\n      jump\t// in\n    tag_65:\n      pop\n        /* \"contracts/Task3_CrowdFund.sol\":3582:3592  msg.sender */\n      caller\n        /* \"contracts/Task3_CrowdFund.sol\":3570:3598  Refund(_id, msg.sender, bal) */\n      0xffffffffffffffffffffffffffffffffffffffff\n      and\n        /* \"contracts/Task3_CrowdFund.sol\":3577:3580  _id */\n      dup4\n        /* \"contracts/Task3_CrowdFund.sol\":3570:3598  Refund(_id, msg.sender, bal) */\n      0x21e12a7cad0da5928167e1084ea4d5fdf8d9af66657a2543a9ac76a0ca081477\n        /* \"contracts/Task3_CrowdFund.sol\":3594:3597  bal */\n      dup4\n        /* \"contracts/Task3_CrowdFund.sol\":3570:3598  Refund(_id, msg.sender, bal) */\n      mload(0x40)\n      tag_67\n      swap2\n      swap1\n      tag_17\n      jump\t// in\n    tag_67:\n      mload(0x40)\n      dup1\n      swap2\n      sub\n      swap1\n      log3\n        /* \"contracts/Task3_CrowdFund.sol\":3232:3605  {... */\n      pop\n      pop\n        /* \"contracts/Task3_CrowdFund.sol\":3197:3605  function refund(uint _id) external {... */\n      pop\n      jump\t// out\n        /* \"contracts/Task3_CrowdFund.sol\":1027:1639  function launch(... */\n    tag_30:\n        /* \"contracts/Task3_CrowdFund.sol\":1156:1171  block.timestamp */\n      timestamp\n        /* \"contracts/Task3_CrowdFund.sol\":1144:1152  _startAt */\n      dup3\n        /* \"contracts/Task3_CrowdFund.sol\":1144:1171  _startAt >= block.timestamp */\n      0xffffffff\n      and\n      lt\n      iszero\n        /* \"contracts/Task3_CrowdFund.sol\":1136:1190  require(_startAt >= block.timestamp, \"start at < now\") */\n      tag_69\n      jumpi\n      mload(0x40)\n      0x08c379a000000000000000000000000000000000000000000000000000000000\n      dup2\n      mstore\n      0x04\n      add\n      tag_70\n      swap1\n      tag_71\n      jump\t// in\n    tag_70:\n      mload(0x40)\n      dup1\n      swap2\n      sub\n      swap1\n      revert\n    tag_69:\n        /* \"contracts/Task3_CrowdFund.sol\":1218:1226  _startAt */\n      dup2\n        /* \"contracts/Task3_CrowdFund.sol\":1208:1226  _endAt >= _startAt */\n      0xffffffff\n      and\n        /* \"contracts/Task3_CrowdFund.sol\":1208:1214  _endAt */\n      dup2\n        /* \"contracts/Task3_CrowdFund.sol\":1208:1226  _endAt >= _startAt */\n      0xffffffff\n      and\n      lt\n      iszero\n        /* \"contracts/Task3_CrowdFund.sol\":1200:1248  require(_endAt >= _startAt, \"end at < start at\") */\n      tag_72\n      jumpi\n      mload(0x40)\n      0x08c379a000000000000000000000000000000000000000000000000000000000\n      dup2\n      mstore\n      0x04\n      add\n      tag_73\n      swap1\n      tag_74\n      jump\t// in\n    tag_73:\n      mload(0x40)\n      dup1\n      swap2\n      sub\n      swap1\n      revert\n    tag_72:\n        /* \"contracts/Task3_CrowdFund.sol\":1294:1301  90 days */\n      0x76a700\n        /* \"contracts/Task3_CrowdFund.sol\":1276:1291  block.timestamp */\n      timestamp\n        /* \"contracts/Task3_CrowdFund.sol\":1276:1301  block.timestamp + 90 days */\n      tag_75\n      swap2\n      swap1\n      tag_76\n      jump\t// in\n    tag_75:\n        /* \"contracts/Task3_CrowdFund.sol\":1266:1272  _endAt */\n      dup2\n        /* \"contracts/Task3_CrowdFund.sol\":1266:1301  _endAt <= block.timestamp + 90 days */\n      0xffffffff\n      and\n      gt\n      iszero\n        /* \"contracts/Task3_CrowdFund.sol\":1258:1327  require(_endAt <= block.timestamp + 90 days, \"end at > max duration\") */\n      tag_77\n      jumpi\n      mload(0x40)\n      0x08c379a000000000000000000000000000000000000000000000000000000000\n      dup2\n      mstore\n      0x04\n      add\n      tag_78\n      swap1\n      tag_79\n      jump\t// in\n    tag_78:\n      mload(0x40)\n      dup1\n      swap2\n      sub\n      swap1\n      revert\n    tag_77:\n        /* \"contracts/Task3_CrowdFund.sol\":1347:1348  1 */\n      0x01\n        /* \"contracts/Task3_CrowdFund.sol\":1338:1343  count */\n      0x00\n      dup1\n        /* \"contracts/Task3_CrowdFund.sol\":1338:1348  count += 1 */\n      dup3\n      dup3\n      sload\n      tag_80\n      swap2\n      swap1\n      tag_76\n      jump\t// in\n    tag_80:\n      swap3\n      pop\n      pop\n      dup2\n      swap1\n      sstore\n      pop\n        /* \"contracts/Task3_CrowdFund.sol\":1377:1566  Campaign({... */\n      mload(0x40)\n      dup1\n      0xc0\n      add\n      0x40\n      mstore\n      dup1\n        /* \"contracts/Task3_CrowdFund.sol\":1409:1419  msg.sender */\n      caller\n        /* \"contracts/Task3_CrowdFund.sol\":1377:1566  Campaign({... */\n      0xffffffffffffffffffffffffffffffffffffffff\n      and\n      dup2\n      mstore\n      0x20\n      add\n        /* \"contracts/Task3_CrowdFund.sol\":1439:1444  _goal */\n      dup5\n        /* \"contracts/Task3_CrowdFund.sol\":1377:1566  Campaign({... */\n      dup2\n      mstore\n      0x20\n      add\n        /* \"contracts/Task3_CrowdFund.sol\":1467:1468  0 */\n      0x00\n        /* \"contracts/Task3_CrowdFund.sol\":1377:1566  Campaign({... */\n      dup2\n      mstore\n      0x20\n      add\n        /* \"contracts/Task3_CrowdFund.sol\":1491:1499  _startAt */\n      dup4\n        /* \"contracts/Task3_CrowdFund.sol\":1377:1566  Campaign({... */\n      0xffffffff\n      and\n      dup2\n      mstore\n      0x20\n      add\n        /* \"contracts/Task3_CrowdFund.sol\":1520:1526  _endAt */\n      dup3\n        /* \"contracts/Task3_CrowdFund.sol\":1377:1566  Campaign({... */\n      0xffffffff\n      and\n      dup2\n      mstore\n      0x20\n      add\n        /* \"contracts/Task3_CrowdFund.sol\":1549:1554  false */\n      0x00\n        /* \"contracts/Task3_CrowdFund.sol\":1377:1566  Campaign({... */\n      iszero\n      iszero\n      dup2\n      mstore\n      pop\n        /* \"contracts/Task3_CrowdFund.sol\":1358:1367  campaigns */\n      0x01\n        /* \"contracts/Task3_CrowdFund.sol\":1358:1374  campaigns[count] */\n      0x00\n        /* \"contracts/Task3_CrowdFund.sol\":1368:1373  count */\n      dup1\n      sload\n        /* \"contracts/Task3_CrowdFund.sol\":1358:1374  campaigns[count] */\n      dup2\n      mstore\n      0x20\n      add\n      swap1\n      dup2\n      mstore\n      0x20\n      add\n      0x00\n      keccak256\n        /* \"contracts/Task3_CrowdFund.sol\":1358:1566  campaigns[count] = Campaign({... */\n      0x00\n      dup3\n      add\n      mload\n      dup2\n      0x00\n      add\n      exp(0x0100, 0x00)\n      dup2\n      sload\n      dup2\n      0xffffffffffffffffffffffffffffffffffffffff\n      mul\n      not\n      and\n      swap1\n      dup4\n      0xffffffffffffffffffffffffffffffffffffffff\n      and\n      mul\n      or\n      swap1\n      sstore\n      pop\n      0x20\n      dup3\n      add\n      mload\n      dup2\n      0x01\n      add\n      sstore\n      0x40\n      dup3\n      add\n      mload\n      dup2\n      0x02\n      add\n      sstore\n      0x60\n      dup3\n      add\n      mload\n      dup2\n      0x03\n      add\n      exp(0x0100, 0x00)\n      dup2\n      sload\n      dup2\n      0xffffffff\n      mul\n      not\n      and\n      swap1\n      dup4\n      0xffffffff\n      and\n      mul\n      or\n      swap1\n      sstore\n      pop\n      0x80\n      dup3\n      add\n      mload\n      dup2\n      0x03\n      add\n      exp(0x0100, 0x04)\n      dup2\n      sload\n      dup2\n      0xffffffff\n      mul\n      not\n      and\n      swap1\n      dup4\n      0xffffffff\n      and\n      mul\n      or\n      swap1\n      sstore\n      pop\n      0xa0\n      dup3\n      add\n      mload\n      dup2\n      0x03\n      add\n      exp(0x0100, 0x08)\n      dup2\n      sload\n      dup2\n      0xff\n      mul\n      not\n      and\n      swap1\n      dup4\n      iszero\n      iszero\n      mul\n      or\n      swap1\n      sstore\n      pop\n      swap1\n      pop\n      pop\n        /* \"contracts/Task3_CrowdFund.sol\":1596:1606  msg.sender */\n      caller\n        /* \"contracts/Task3_CrowdFund.sol\":1582:1632  Launch(count, msg.sender, _goal, _startAt, _endAt) */\n      0xffffffffffffffffffffffffffffffffffffffff\n      and\n      0x0601cd0d650b473037e838a2696d41e654433d065b3f56b28d1d3302e44a304f\n        /* \"contracts/Task3_CrowdFund.sol\":1589:1594  count */\n      sload(0x00)\n        /* \"contracts/Task3_CrowdFund.sol\":1608:1613  _goal */\n      dup6\n        /* \"contracts/Task3_CrowdFund.sol\":1615:1623  _startAt */\n      dup6\n        /* \"contracts/Task3_CrowdFund.sol\":1625:1631  _endAt */\n      dup6\n        /* \"contracts/Task3_CrowdFund.sol\":1582:1632  Launch(count, msg.sender, _goal, _startAt, _endAt) */\n      mload(0x40)\n      tag_81\n      swap5\n      swap4\n      swap3\n      swap2\n      swap1\n      tag_82\n      jump\t// in\n    tag_81:\n      mload(0x40)\n      dup1\n      swap2\n      sub\n      swap1\n      log2\n        /* \"contracts/Task3_CrowdFund.sol\":1027:1639  function launch(... */\n      pop\n      pop\n      pop\n      jump\t// out\n        /* \"contracts/Task3_CrowdFund.sol\":2739:3191  function claim(uint _id) external {... */\n    tag_33:\n        /* \"contracts/Task3_CrowdFund.sol\":2783:2808  Campaign storage campaign */\n      0x00\n        /* \"contracts/Task3_CrowdFund.sol\":2811:2820  campaigns */\n      0x01\n        /* \"contracts/Task3_CrowdFund.sol\":2811:2825  campaigns[_id] */\n      0x00\n        /* \"contracts/Task3_CrowdFund.sol\":2821:2824  _id */\n      dup4\n        /* \"contracts/Task3_CrowdFund.sol\":2811:2825  campaigns[_id] */\n      dup2\n      mstore\n      0x20\n      add\n      swap1\n      dup2\n      mstore\n      0x20\n      add\n      0x00\n      keccak256\n        /* \"contracts/Task3_CrowdFund.sol\":2783:2825  Campaign storage campaign = campaigns[_id] */\n      swap1\n      pop\n        /* \"contracts/Task3_CrowdFund.sol\":2857:2865  campaign */\n      dup1\n        /* \"contracts/Task3_CrowdFund.sol\":2857:2873  campaign.creator */\n      0x00\n      add\n      0x00\n      swap1\n      sload\n      swap1\n      0x0100\n      exp\n      swap1\n      div\n      0xffffffffffffffffffffffffffffffffffffffff\n      and\n        /* \"contracts/Task3_CrowdFund.sol\":2843:2873  msg.sender == campaign.creator */\n      0xffffffffffffffffffffffffffffffffffffffff\n      and\n        /* \"contracts/Task3_CrowdFund.sol\":2843:2853  msg.sender */\n      caller\n        /* \"contracts/Task3_CrowdFund.sol\":2843:2873  msg.sender == campaign.creator */\n      0xffffffffffffffffffffffffffffffffffffffff\n      and\n      eq\n        /* \"contracts/Task3_CrowdFund.sol\":2835:2889  require(msg.sender == campaign.creator, \"not creator\") */\n      tag_84\n      jumpi\n      mload(0x40)\n      0x08c379a000000000000000000000000000000000000000000000000000000000\n      dup2\n      mstore\n      0x04\n      add\n      tag_85\n      swap1\n      tag_86\n      jump\t// in\n    tag_85:\n      mload(0x40)\n      dup1\n      swap2\n      sub\n      swap1\n      revert\n    tag_84:\n        /* \"contracts/Task3_CrowdFund.sol\":2925:2933  campaign */\n      dup1\n        /* \"contracts/Task3_CrowdFund.sol\":2925:2939  campaign.endAt */\n      0x03\n      add\n      0x04\n      swap1\n      sload\n      swap1\n      0x0100\n      exp\n      swap1\n      div\n      0xffffffff\n      and\n        /* \"contracts/Task3_CrowdFund.sol\":2907:2939  block.timestamp > campaign.endAt */\n      0xffffffff\n      and\n        /* \"contracts/Task3_CrowdFund.sol\":2907:2922  block.timestamp */\n      timestamp\n        /* \"contracts/Task3_CrowdFund.sol\":2907:2939  block.timestamp > campaign.endAt */\n      gt\n        /* \"contracts/Task3_CrowdFund.sol\":2899:2953  require(block.timestamp > campaign.endAt, \"not ended\") */\n      tag_87\n      jumpi\n      mload(0x40)\n      0x08c379a000000000000000000000000000000000000000000000000000000000\n      dup2\n      mstore\n      0x04\n      add\n      tag_88\n      swap1\n      tag_56\n      jump\t// in\n    tag_88:\n      mload(0x40)\n      dup1\n      swap2\n      sub\n      swap1\n      revert\n    tag_87:\n        /* \"contracts/Task3_CrowdFund.sol\":2991:2999  campaign */\n      dup1\n        /* \"contracts/Task3_CrowdFund.sol\":2991:3004  campaign.goal */\n      0x01\n      add\n      sload\n        /* \"contracts/Task3_CrowdFund.sol\":2971:2979  campaign */\n      dup2\n        /* \"contracts/Task3_CrowdFund.sol\":2971:2987  campaign.pledged */\n      0x02\n      add\n      sload\n        /* \"contracts/Task3_CrowdFund.sol\":2971:3004  campaign.pledged >= campaign.goal */\n      lt\n      iszero\n        /* \"contracts/Task3_CrowdFund.sol\":2963:3023  require(campaign.pledged >= campaign.goal, \"pledged < goal\") */\n      tag_89\n      jumpi\n      mload(0x40)\n      0x08c379a000000000000000000000000000000000000000000000000000000000\n      dup2\n      mstore\n      0x04\n      add\n      tag_90\n      swap1\n      tag_59\n      jump\t// in\n    tag_90:\n      mload(0x40)\n      dup1\n      swap2\n      sub\n      swap1\n      revert\n    tag_89:\n        /* \"contracts/Task3_CrowdFund.sol\":3042:3050  campaign */\n      dup1\n        /* \"contracts/Task3_CrowdFund.sol\":3042:3058  campaign.claimed */\n      0x03\n      add\n      0x08\n      swap1\n      sload\n      swap1\n      0x0100\n      exp\n      swap1\n      div\n      0xff\n      and\n        /* \"contracts/Task3_CrowdFund.sol\":3041:3058  !campaign.claimed */\n      iszero\n        /* \"contracts/Task3_CrowdFund.sol\":3033:3070  require(!campaign.claimed, \"claimed\") */\n      tag_91\n      jumpi\n      mload(0x40)\n      0x08c379a000000000000000000000000000000000000000000000000000000000\n      dup2\n      mstore\n      0x04\n      add\n      tag_92\n      swap1\n      tag_93\n      jump\t// in\n    tag_92:\n      mload(0x40)\n      dup1\n      swap2\n      sub\n      swap1\n      revert\n    tag_91:\n        /* \"contracts/Task3_CrowdFund.sol\":3100:3104  true */\n      0x01\n        /* \"contracts/Task3_CrowdFund.sol\":3081:3089  campaign */\n      dup2\n        /* \"contracts/Task3_CrowdFund.sol\":3081:3097  campaign.claimed */\n      0x03\n      add\n      0x08\n        /* \"contracts/Task3_CrowdFund.sol\":3081:3104  campaign.claimed = true */\n      0x0100\n      exp\n      dup2\n      sload\n      dup2\n      0xff\n      mul\n      not\n      and\n      swap1\n      dup4\n      iszero\n      iszero\n      mul\n      or\n      swap1\n      sstore\n      pop\n        /* \"contracts/Task3_CrowdFund.sol\":3114:3119  token */\n      immutable(\"0xd9670a00d025e59e1bd58d53874bea4ab34fea782716e2c168e89a3c8452d3bb\")\n        /* \"contracts/Task3_CrowdFund.sol\":3114:3128  token.transfer */\n      0xffffffffffffffffffffffffffffffffffffffff\n      and\n      0xa9059cbb\n        /* \"contracts/Task3_CrowdFund.sol\":3129:3139  msg.sender */\n      caller\n        /* \"contracts/Task3_CrowdFund.sol\":3141:3149  campaign */\n      dup4\n        /* \"contracts/Task3_CrowdFund.sol\":3141:3157  campaign.pledged */\n      0x02\n      add\n      sload\n        /* \"contracts/Task3_CrowdFund.sol\":3114:3158  token.transfer(msg.sender, campaign.pledged) */\n      mload(0x40)\n      dup4\n      0xffffffff\n      and\n      0xe0\n      shl\n      dup2\n      mstore\n      0x04\n      add\n      tag_94\n      swap3\n      swap2\n      swap1\n      tag_61\n      jump\t// in\n    tag_94:\n      0x20\n      mload(0x40)\n      dup1\n      dup4\n      sub\n      dup2\n      0x00\n      dup8\n      dup1\n      extcodesize\n      iszero\n      dup1\n      iszero\n      tag_95\n      jumpi\n      0x00\n      dup1\n      revert\n    tag_95:\n      pop\n      gas\n      call\n      iszero\n      dup1\n      iszero\n      tag_97\n      jumpi\n      returndatasize\n      0x00\n      dup1\n      returndatacopy\n      revert(0x00, returndatasize)\n    tag_97:\n      pop\n      pop\n      pop\n      pop\n      mload(0x40)\n      returndatasize\n      not(0x1f)\n      0x1f\n      dup3\n      add\n      and\n      dup3\n      add\n      dup1\n      0x40\n      mstore\n      pop\n      dup2\n      add\n      swap1\n      tag_98\n      swap2\n      swap1\n      tag_66\n      jump\t// in\n    tag_98:\n      pop\n        /* \"contracts/Task3_CrowdFund.sol\":3174:3184  Claim(_id) */\n      0x7bb2b3c10797baccb6f8c4791f1edd6ca2f0d028ee0eda64b01a9a57e3a653f7\n        /* \"contracts/Task3_CrowdFund.sol\":3180:3183  _id */\n      dup3\n        /* \"contracts/Task3_CrowdFund.sol\":3174:3184  Claim(_id) */\n      mload(0x40)\n      tag_99\n      swap2\n      swap1\n      tag_17\n      jump\t// in\n    tag_99:\n      mload(0x40)\n      dup1\n      swap2\n      sub\n      swap1\n      log1\n        /* \"contracts/Task3_CrowdFund.sol\":2773:3191  {... */\n      pop\n        /* \"contracts/Task3_CrowdFund.sol\":2739:3191  function claim(uint _id) external {... */\n      pop\n      jump\t// out\n        /* \"contracts/Task3_CrowdFund.sol\":1645:1927  function cancel(uint _id) external {... */\n    tag_36:\n        /* \"contracts/Task3_CrowdFund.sol\":1690:1714  Campaign memory campaign */\n      0x00\n        /* \"contracts/Task3_CrowdFund.sol\":1717:1726  campaigns */\n      0x01\n        /* \"contracts/Task3_CrowdFund.sol\":1717:1731  campaigns[_id] */\n      0x00\n        /* \"contracts/Task3_CrowdFund.sol\":1727:1730  _id */\n      dup4\n        /* \"contracts/Task3_CrowdFund.sol\":1717:1731  campaigns[_id] */\n      dup2\n      mstore\n      0x20\n      add\n      swap1\n      dup2\n      mstore\n      0x20\n      add\n      0x00\n      keccak256\n        /* \"contracts/Task3_CrowdFund.sol\":1690:1731  Campaign memory campaign = campaigns[_id] */\n      mload(0x40)\n      dup1\n      0xc0\n      add\n      0x40\n      mstore\n      swap1\n      dup2\n      0x00\n      dup3\n      add\n      0x00\n      swap1\n      sload\n      swap1\n      0x0100\n      exp\n      swap1\n      div\n      0xffffffffffffffffffffffffffffffffffffffff\n      and\n      0xffffffffffffffffffffffffffffffffffffffff\n      and\n      0xffffffffffffffffffffffffffffffffffffffff\n      and\n      dup2\n      mstore\n      0x20\n      add\n      0x01\n      dup3\n      add\n      sload\n      dup2\n      mstore\n      0x20\n      add\n      0x02\n      dup3\n      add\n      sload\n      dup2\n      mstore\n      0x20\n      add\n      0x03\n      dup3\n      add\n      0x00\n      swap1\n      sload\n      swap1\n      0x0100\n      exp\n      swap1\n      div\n      0xffffffff\n      and\n      0xffffffff\n      and\n      0xffffffff\n      and\n      dup2\n      mstore\n      0x20\n      add\n      0x03\n      dup3\n      add\n      0x04\n      swap1\n      sload\n      swap1\n      0x0100\n      exp\n      swap1\n      div\n      0xffffffff\n      and\n      0xffffffff\n      and\n      0xffffffff\n      and\n      dup2\n      mstore\n      0x20\n      add\n      0x03\n      dup3\n      add\n      0x08\n      swap1\n      sload\n      swap1\n      0x0100\n      exp\n      swap1\n      div\n      0xff\n      and\n      iszero\n      iszero\n      iszero\n      iszero\n      dup2\n      mstore\n      pop\n      pop\n      swap1\n      pop\n        /* \"contracts/Task3_CrowdFund.sol\":1763:1771  campaign */\n      dup1\n        /* \"contracts/Task3_CrowdFund.sol\":1763:1779  campaign.creator */\n      0x00\n      add\n      mload\n        /* \"contracts/Task3_CrowdFund.sol\":1749:1779  msg.sender == campaign.creator */\n      0xffffffffffffffffffffffffffffffffffffffff\n      and\n        /* \"contracts/Task3_CrowdFund.sol\":1749:1759  msg.sender */\n      caller\n        /* \"contracts/Task3_CrowdFund.sol\":1749:1779  msg.sender == campaign.creator */\n      0xffffffffffffffffffffffffffffffffffffffff\n      and\n      eq\n        /* \"contracts/Task3_CrowdFund.sol\":1741:1795  require(msg.sender == campaign.creator, \"not creator\") */\n      tag_101\n      jumpi\n      mload(0x40)\n      0x08c379a000000000000000000000000000000000000000000000000000000000\n      dup2\n      mstore\n      0x04\n      add\n      tag_102\n      swap1\n      tag_86\n      jump\t// in\n    tag_102:\n      mload(0x40)\n      dup1\n      swap2\n      sub\n      swap1\n      revert\n    tag_101:\n        /* \"contracts/Task3_CrowdFund.sol\":1831:1839  campaign */\n      dup1\n        /* \"contracts/Task3_CrowdFund.sol\":1831:1847  campaign.startAt */\n      0x60\n      add\n      mload\n        /* \"contracts/Task3_CrowdFund.sol\":1813:1847  block.timestamp < campaign.startAt */\n      0xffffffff\n      and\n        /* \"contracts/Task3_CrowdFund.sol\":1813:1828  block.timestamp */\n      timestamp\n        /* \"contracts/Task3_CrowdFund.sol\":1813:1847  block.timestamp < campaign.startAt */\n      lt\n        /* \"contracts/Task3_CrowdFund.sol\":1805:1863  require(block.timestamp < campaign.startAt, \"not started\") */\n      tag_103\n      jumpi\n      mload(0x40)\n      0x08c379a000000000000000000000000000000000000000000000000000000000\n      dup2\n      mstore\n      0x04\n      add\n      tag_104\n      swap1\n      tag_105\n      jump\t// in\n    tag_104:\n      mload(0x40)\n      dup1\n      swap2\n      sub\n      swap1\n      revert\n    tag_103:\n        /* \"contracts/Task3_CrowdFund.sol\":1880:1889  campaigns */\n      0x01\n        /* \"contracts/Task3_CrowdFund.sol\":1880:1894  campaigns[_id] */\n      0x00\n        /* \"contracts/Task3_CrowdFund.sol\":1890:1893  _id */\n      dup4\n        /* \"contracts/Task3_CrowdFund.sol\":1880:1894  campaigns[_id] */\n      dup2\n      mstore\n      0x20\n      add\n      swap1\n      dup2\n      mstore\n      0x20\n      add\n      0x00\n      keccak256\n      0x00\n        /* \"contracts/Task3_CrowdFund.sol\":1873:1894  delete campaigns[_id] */\n      dup1\n      dup3\n      add\n      exp(0x0100, 0x00)\n      dup2\n      sload\n      swap1\n      0xffffffffffffffffffffffffffffffffffffffff\n      mul\n      not\n      and\n      swap1\n      sstore\n      0x01\n      dup3\n      add\n      0x00\n      swap1\n      sstore\n      0x02\n      dup3\n      add\n      0x00\n      swap1\n      sstore\n      0x03\n      dup3\n      add\n      exp(0x0100, 0x00)\n      dup2\n      sload\n      swap1\n      0xffffffff\n      mul\n      not\n      and\n      swap1\n      sstore\n      0x03\n      dup3\n      add\n      exp(0x0100, 0x04)\n      dup2\n      sload\n      swap1\n      0xffffffff\n      mul\n      not\n      and\n      swap1\n      sstore\n      0x03\n      dup3\n      add\n      exp(0x0100, 0x08)\n      dup2\n      sload\n      swap1\n      0xff\n      mul\n      not\n      and\n      swap1\n      sstore\n      pop\n      pop\n        /* \"contracts/Task3_CrowdFund.sol\":1909:1920  Cancel(_id) */\n      0x8bf30e7ff26833413be5f69e1d373744864d600b664204b4a2f9844a8eedb9ed\n        /* \"contracts/Task3_CrowdFund.sol\":1916:1919  _id */\n      dup3\n        /* \"contracts/Task3_CrowdFund.sol\":1909:1920  Cancel(_id) */\n      mload(0x40)\n      tag_106\n      swap2\n      swap1\n      tag_17\n      jump\t// in\n    tag_106:\n      mload(0x40)\n      dup1\n      swap2\n      sub\n      swap1\n      log1\n        /* \"contracts/Task3_CrowdFund.sol\":1680:1927  {... */\n      pop\n        /* \"contracts/Task3_CrowdFund.sol\":1645:1927  function cancel(uint _id) external {... */\n      pop\n      jump\t// out\n        /* \"contracts/Task3_CrowdFund.sol\":2378:2733  function unpledge(uint _id, uint _amount) external {... */\n    tag_40:\n        /* \"contracts/Task3_CrowdFund.sol\":2439:2464  Campaign storage campaign */\n      0x00\n        /* \"contracts/Task3_CrowdFund.sol\":2467:2476  campaigns */\n      0x01\n        /* \"contracts/Task3_CrowdFund.sol\":2467:2481  campaigns[_id] */\n      0x00\n        /* \"contracts/Task3_CrowdFund.sol\":2477:2480  _id */\n      dup5\n        /* \"contracts/Task3_CrowdFund.sol\":2467:2481  campaigns[_id] */\n      dup2\n      mstore\n      0x20\n      add\n      swap1\n      dup2\n      mstore\n      0x20\n      add\n      0x00\n      keccak256\n        /* \"contracts/Task3_CrowdFund.sol\":2439:2481  Campaign storage campaign = campaigns[_id] */\n      swap1\n      pop\n        /* \"contracts/Task3_CrowdFund.sol\":2518:2526  campaign */\n      dup1\n        /* \"contracts/Task3_CrowdFund.sol\":2518:2532  campaign.endAt */\n      0x03\n      add\n      0x04\n      swap1\n      sload\n      swap1\n      0x0100\n      exp\n      swap1\n      div\n      0xffffffff\n      and\n        /* \"contracts/Task3_CrowdFund.sol\":2499:2532  block.timestamp <= campaign.endAt */\n      0xffffffff\n      and\n        /* \"contracts/Task3_CrowdFund.sol\":2499:2514  block.timestamp */\n      timestamp\n        /* \"contracts/Task3_CrowdFund.sol\":2499:2532  block.timestamp <= campaign.endAt */\n      gt\n      iszero\n        /* \"contracts/Task3_CrowdFund.sol\":2491:2542  require(block.timestamp <= campaign.endAt, \"ended\") */\n      tag_108\n      jumpi\n      mload(0x40)\n      0x08c379a000000000000000000000000000000000000000000000000000000000\n      dup2\n      mstore\n      0x04\n      add\n      tag_109\n      swap1\n      tag_110\n      jump\t// in\n    tag_109:\n      mload(0x40)\n      dup1\n      swap2\n      sub\n      swap1\n      revert\n    tag_108:\n        /* \"contracts/Task3_CrowdFund.sol\":2573:2580  _amount */\n      dup2\n        /* \"contracts/Task3_CrowdFund.sol\":2553:2561  campaign */\n      dup2\n        /* \"contracts/Task3_CrowdFund.sol\":2553:2569  campaign.pledged */\n      0x02\n      add\n      0x00\n        /* \"contracts/Task3_CrowdFund.sol\":2553:2580  campaign.pledged -= _amount */\n      dup3\n      dup3\n      sload\n      tag_111\n      swap2\n      swap1\n      tag_112\n      jump\t// in\n    tag_111:\n      swap3\n      pop\n      pop\n      dup2\n      swap1\n      sstore\n      pop\n        /* \"contracts/Task3_CrowdFund.sol\":2624:2631  _amount */\n      dup2\n        /* \"contracts/Task3_CrowdFund.sol\":2590:2603  pledgedAmount */\n      0x02\n        /* \"contracts/Task3_CrowdFund.sol\":2590:2608  pledgedAmount[_id] */\n      0x00\n        /* \"contracts/Task3_CrowdFund.sol\":2604:2607  _id */\n      dup6\n        /* \"contracts/Task3_CrowdFund.sol\":2590:2608  pledgedAmount[_id] */\n      dup2\n      mstore\n      0x20\n      add\n      swap1\n      dup2\n      mstore\n      0x20\n      add\n      0x00\n      keccak256\n        /* \"contracts/Task3_CrowdFund.sol\":2590:2620  pledgedAmount[_id][msg.sender] */\n      0x00\n        /* \"contracts/Task3_CrowdFund.sol\":2609:2619  msg.sender */\n      caller\n        /* \"contracts/Task3_CrowdFund.sol\":2590:2620  pledgedAmount[_id][msg.sender] */\n      0xffffffffffffffffffffffffffffffffffffffff\n      and\n      0xffffffffffffffffffffffffffffffffffffffff\n      and\n      dup2\n      mstore\n      0x20\n      add\n      swap1\n      dup2\n      mstore\n      0x20\n      add\n      0x00\n      keccak256\n      0x00\n        /* \"contracts/Task3_CrowdFund.sol\":2590:2631  pledgedAmount[_id][msg.sender] -= _amount */\n      dup3\n      dup3\n      sload\n      tag_113\n      swap2\n      swap1\n      tag_112\n      jump\t// in\n    tag_113:\n      swap3\n      pop\n      pop\n      dup2\n      swap1\n      sstore\n      pop\n        /* \"contracts/Task3_CrowdFund.sol\":2641:2646  token */\n      immutable(\"0xd9670a00d025e59e1bd58d53874bea4ab34fea782716e2c168e89a3c8452d3bb\")\n        /* \"contracts/Task3_CrowdFund.sol\":2641:2655  token.transfer */\n      0xffffffffffffffffffffffffffffffffffffffff\n      and\n      0xa9059cbb\n        /* \"contracts/Task3_CrowdFund.sol\":2656:2666  msg.sender */\n      caller\n        /* \"contracts/Task3_CrowdFund.sol\":2668:2675  _amount */\n      dup5\n        /* \"contracts/Task3_CrowdFund.sol\":2641:2676  token.transfer(msg.sender, _amount) */\n      mload(0x40)\n      dup4\n      0xffffffff\n      and\n      0xe0\n      shl\n      dup2\n      mstore\n      0x04\n      add\n      tag_114\n      swap3\n      swap2\n      swap1\n      tag_61\n      jump\t// in\n    tag_114:\n      0x20\n      mload(0x40)\n      dup1\n      dup4\n      sub\n      dup2\n      0x00\n      dup8\n      dup1\n      extcodesize\n      iszero\n      dup1\n      iszero\n      tag_115\n      jumpi\n      0x00\n      dup1\n      revert\n    tag_115:\n      pop\n      gas\n      call\n      iszero\n      dup1\n      iszero\n      tag_117\n      jumpi\n      returndatasize\n      0x00\n      dup1\n      returndatacopy\n      revert(0x00, returndatasize)\n    tag_117:\n      pop\n      pop\n      pop\n      pop\n      mload(0x40)\n      returndatasize\n      not(0x1f)\n      0x1f\n      dup3\n      add\n      and\n      dup3\n      add\n      dup1\n      0x40\n      mstore\n      pop\n      dup2\n      add\n      swap1\n      tag_118\n      swap2\n      swap1\n      tag_66\n      jump\t// in\n    tag_118:\n      pop\n        /* \"contracts/Task3_CrowdFund.sol\":2706:2716  msg.sender */\n      caller\n        /* \"contracts/Task3_CrowdFund.sol\":2692:2726  Unpledge(_id, msg.sender, _amount) */\n      0xffffffffffffffffffffffffffffffffffffffff\n      and\n        /* \"contracts/Task3_CrowdFund.sol\":2701:2704  _id */\n      dup4\n        /* \"contracts/Task3_CrowdFund.sol\":2692:2726  Unpledge(_id, msg.sender, _amount) */\n      0x2eeeab891b26a214d1b25749f88a406bdea852bd8c9bfda977e0ef8114c180ba\n        /* \"contracts/Task3_CrowdFund.sol\":2718:2725  _amount */\n      dup5\n        /* \"contracts/Task3_CrowdFund.sol\":2692:2726  Unpledge(_id, msg.sender, _amount) */\n      mload(0x40)\n      tag_119\n      swap2\n      swap1\n      tag_17\n      jump\t// in\n    tag_119:\n      mload(0x40)\n      dup1\n      swap2\n      sub\n      swap1\n      log3\n        /* \"contracts/Task3_CrowdFund.sol\":2429:2733  {... */\n      pop\n        /* \"contracts/Task3_CrowdFund.sol\":2378:2733  function unpledge(uint _id, uint _amount) external {... */\n      pop\n      pop\n      jump\t// out\n        /* \"contracts/Task3_CrowdFund.sol\":885:947  mapping(uint => mapping(address => uint)) public pledgedAmount */\n    tag_44:\n      mstore(0x20, 0x02)\n      dup2\n      0x00\n      mstore\n      mstore(0x20, keccak256(0x00, 0x40))\n      dup1\n      0x00\n      mstore\n      keccak256(0x00, 0x40)\n      0x00\n      swap2\n      pop\n      swap2\n      pop\n      pop\n      sload\n      dup2\n      jump\t// out\n        /* \"contracts/Task3_CrowdFund.sol\":779:808  IERC20 public immutable token */\n    tag_47:\n      immutable(\"0xd9670a00d025e59e1bd58d53874bea4ab34fea782716e2c168e89a3c8452d3bb\")\n      dup2\n      jump\t// out\n        /* \"contracts/Task3_CrowdFund.sol\":1933:2372  function pledge(uint _id, uint _amount) external {... */\n    tag_52:\n        /* \"contracts/Task3_CrowdFund.sol\":1992:2017  Campaign storage campaign */\n      0x00\n        /* \"contracts/Task3_CrowdFund.sol\":2020:2029  campaigns */\n      0x01\n        /* \"contracts/Task3_CrowdFund.sol\":2020:2034  campaigns[_id] */\n      0x00\n        /* \"contracts/Task3_CrowdFund.sol\":2030:2033  _id */\n      dup5\n        /* \"contracts/Task3_CrowdFund.sol\":2020:2034  campaigns[_id] */\n      dup2\n      mstore\n      0x20\n      add\n      swap1\n      dup2\n      mstore\n      0x20\n      add\n      0x00\n      keccak256\n        /* \"contracts/Task3_CrowdFund.sol\":1992:2034  Campaign storage campaign = campaigns[_id] */\n      swap1\n      pop\n        /* \"contracts/Task3_CrowdFund.sol\":2071:2079  campaign */\n      dup1\n        /* \"contracts/Task3_CrowdFund.sol\":2071:2087  campaign.startAt */\n      0x03\n      add\n      0x00\n      swap1\n      sload\n      swap1\n      0x0100\n      exp\n      swap1\n      div\n      0xffffffff\n      and\n        /* \"contracts/Task3_CrowdFund.sol\":2052:2087  block.timestamp >= campaign.startAt */\n      0xffffffff\n      and\n        /* \"contracts/Task3_CrowdFund.sol\":2052:2067  block.timestamp */\n      timestamp\n        /* \"contracts/Task3_CrowdFund.sol\":2052:2087  block.timestamp >= campaign.startAt */\n      lt\n      iszero\n        /* \"contracts/Task3_CrowdFund.sol\":2044:2103  require(block.timestamp >= campaign.startAt, \"not started\") */\n      tag_121\n      jumpi\n      mload(0x40)\n      0x08c379a000000000000000000000000000000000000000000000000000000000\n      dup2\n      mstore\n      0x04\n      add\n      tag_122\n      swap1\n      tag_105\n      jump\t// in\n    tag_122:\n      mload(0x40)\n      dup1\n      swap2\n      sub\n      swap1\n      revert\n    tag_121:\n        /* \"contracts/Task3_CrowdFund.sol\":2140:2148  campaign */\n      dup1\n        /* \"contracts/Task3_CrowdFund.sol\":2140:2154  campaign.endAt */\n      0x03\n      add\n      0x04\n      swap1\n      sload\n      swap1\n      0x0100\n      exp\n      swap1\n      div\n      0xffffffff\n      and\n        /* \"contracts/Task3_CrowdFund.sol\":2121:2154  block.timestamp <= campaign.endAt */\n      0xffffffff\n      and\n        /* \"contracts/Task3_CrowdFund.sol\":2121:2136  block.timestamp */\n      timestamp\n        /* \"contracts/Task3_CrowdFund.sol\":2121:2154  block.timestamp <= campaign.endAt */\n      gt\n      iszero\n        /* \"contracts/Task3_CrowdFund.sol\":2113:2164  require(block.timestamp <= campaign.endAt, \"ended\") */\n      tag_123\n      jumpi\n      mload(0x40)\n      0x08c379a000000000000000000000000000000000000000000000000000000000\n      dup2\n      mstore\n      0x04\n      add\n      tag_124\n      swap1\n      tag_110\n      jump\t// in\n    tag_124:\n      mload(0x40)\n      dup1\n      swap2\n      sub\n      swap1\n      revert\n    tag_123:\n        /* \"contracts/Task3_CrowdFund.sol\":2195:2202  _amount */\n      dup2\n        /* \"contracts/Task3_CrowdFund.sol\":2175:2183  campaign */\n      dup2\n        /* \"contracts/Task3_CrowdFund.sol\":2175:2191  campaign.pledged */\n      0x02\n      add\n      0x00\n        /* \"contracts/Task3_CrowdFund.sol\":2175:2202  campaign.pledged += _amount */\n      dup3\n      dup3\n      sload\n      tag_125\n      swap2\n      swap1\n      tag_76\n      jump\t// in\n    tag_125:\n      swap3\n      pop\n      pop\n      dup2\n      swap1\n      sstore\n      pop\n        /* \"contracts/Task3_CrowdFund.sol\":2246:2253  _amount */\n      dup2\n        /* \"contracts/Task3_CrowdFund.sol\":2212:2225  pledgedAmount */\n      0x02\n        /* \"contracts/Task3_CrowdFund.sol\":2212:2230  pledgedAmount[_id] */\n      0x00\n        /* \"contracts/Task3_CrowdFund.sol\":2226:2229  _id */\n      dup6\n        /* \"contracts/Task3_CrowdFund.sol\":2212:2230  pledgedAmount[_id] */\n      dup2\n      mstore\n      0x20\n      add\n      swap1\n      dup2\n      mstore\n      0x20\n      add\n      0x00\n      keccak256\n        /* \"contracts/Task3_CrowdFund.sol\":2212:2242  pledgedAmount[_id][msg.sender] */\n      0x00\n        /* \"contracts/Task3_CrowdFund.sol\":2231:2241  msg.sender */\n      caller\n        /* \"contracts/Task3_CrowdFund.sol\":2212:2242  pledgedAmount[_id][msg.sender] */\n      0xffffffffffffffffffffffffffffffffffffffff\n      and\n      0xffffffffffffffffffffffffffffffffffffffff\n      and\n      dup2\n      mstore\n      0x20\n      add\n      swap1\n      dup2\n      mstore\n      0x20\n      add\n      0x00\n      keccak256\n      0x00\n        /* \"contracts/Task3_CrowdFund.sol\":2212:2253  pledgedAmount[_id][msg.sender] += _amount */\n      dup3\n      dup3\n      sload\n      tag_126\n      swap2\n      swap1\n      tag_76\n      jump\t// in\n    tag_126:\n      swap3\n      pop\n      pop\n      dup2\n      swap1\n      sstore\n      pop\n        /* \"contracts/Task3_CrowdFund.sol\":2263:2268  token */\n      immutable(\"0xd9670a00d025e59e1bd58d53874bea4ab34fea782716e2c168e89a3c8452d3bb\")\n        /* \"contracts/Task3_CrowdFund.sol\":2263:2281  token.transferFrom */\n      0xffffffffffffffffffffffffffffffffffffffff\n      and\n      0x23b872dd\n        /* \"contracts/Task3_CrowdFund.sol\":2282:2292  msg.sender */\n      caller\n        /* \"contracts/Task3_CrowdFund.sol\":2302:2306  this */\n      address\n        /* \"contracts/Task3_CrowdFund.sol\":2309:2316  _amount */\n      dup6\n        /* \"contracts/Task3_CrowdFund.sol\":2263:2317  token.transferFrom(msg.sender, address(this), _amount) */\n      mload(0x40)\n      dup5\n      0xffffffff\n      and\n      0xe0\n      shl\n      dup2\n      mstore\n      0x04\n      add\n      tag_127\n      swap4\n      swap3\n      swap2\n      swap1\n      tag_128\n      jump\t// in\n    tag_127:\n      0x20\n      mload(0x40)\n      dup1\n      dup4\n      sub\n      dup2\n      0x00\n      dup8\n      dup1\n      extcodesize\n      iszero\n      dup1\n      iszero\n      tag_129\n      jumpi\n      0x00\n      dup1\n      revert\n    tag_129:\n      pop\n      gas\n      call\n      iszero\n      dup1\n      iszero\n      tag_131\n      jumpi\n      returndatasize\n      0x00\n      dup1\n      returndatacopy\n      revert(0x00, returndatasize)\n    tag_131:\n      pop\n      pop\n      pop\n      pop\n      mload(0x40)\n      returndatasize\n      not(0x1f)\n      0x1f\n      dup3\n      add\n      and\n      dup3\n      add\n      dup1\n      0x40\n      mstore\n      pop\n      dup2\n      add\n      swap1\n      tag_132\n      swap2\n      swap1\n      tag_66\n      jump\t// in\n    tag_132:\n      pop\n        /* \"contracts/Task3_CrowdFund.sol\":2345:2355  msg.sender */\n      caller\n        /* \"contracts/Task3_CrowdFund.sol\":2333:2365  Pledge(_id, msg.sender, _amount) */\n      0xffffffffffffffffffffffffffffffffffffffff\n      and\n        /* \"contracts/Task3_CrowdFund.sol\":2340:2343  _id */\n      dup4\n        /* \"contracts/Task3_CrowdFund.sol\":2333:2365  Pledge(_id, msg.sender, _amount) */\n      0x06bdb975df800a73232998e71ed585d536222f1dfeaa622d7f62a23ada686c82\n        /* \"contracts/Task3_CrowdFund.sol\":2357:2364  _amount */\n      dup5\n        /* \"contracts/Task3_CrowdFund.sol\":2333:2365  Pledge(_id, msg.sender, _amount) */\n      mload(0x40)\n      tag_133\n      swap2\n      swap1\n      tag_17\n      jump\t// in\n    tag_133:\n      mload(0x40)\n      dup1\n      swap2\n      sub\n      swap1\n      log3\n        /* \"contracts/Task3_CrowdFund.sol\":1982:2372  {... */\n      pop\n        /* \"contracts/Task3_CrowdFund.sol\":1933:2372  function pledge(uint _id, uint _amount) external {... */\n      pop\n      pop\n      jump\t// out\n        /* \"#utility.yul\":7:146   */\n    tag_135:\n        /* \"#utility.yul\":53:58   */\n      0x00\n        /* \"#utility.yul\":91:97   */\n      dup2\n        /* \"#utility.yul\":78:98   */\n      calldataload\n        /* \"#utility.yul\":69:98   */\n      swap1\n      pop\n        /* \"#utility.yul\":107:140   */\n      tag_137\n        /* \"#utility.yul\":134:139   */\n      dup2\n        /* \"#utility.yul\":107:140   */\n      tag_138\n      jump\t// in\n    tag_137:\n        /* \"#utility.yul\":7:146   */\n      swap3\n      swap2\n      pop\n      pop\n      jump\t// out\n        /* \"#utility.yul\":152:289   */\n    tag_139:\n        /* \"#utility.yul\":206:211   */\n      0x00\n        /* \"#utility.yul\":237:243   */\n      dup2\n        /* \"#utility.yul\":231:244   */\n      mload\n        /* \"#utility.yul\":222:244   */\n      swap1\n      pop\n        /* \"#utility.yul\":253:283   */\n      tag_141\n        /* \"#utility.yul\":277:282   */\n      dup2\n        /* \"#utility.yul\":253:283   */\n      tag_142\n      jump\t// in\n    tag_141:\n        /* \"#utility.yul\":152:289   */\n      swap3\n      swap2\n      pop\n      pop\n      jump\t// out\n        /* \"#utility.yul\":295:434   */\n    tag_143:\n        /* \"#utility.yul\":341:346   */\n      0x00\n        /* \"#utility.yul\":379:385   */\n      dup2\n        /* \"#utility.yul\":366:386   */\n      calldataload\n        /* \"#utility.yul\":357:386   */\n      swap1\n      pop\n        /* \"#utility.yul\":395:428   */\n      tag_145\n        /* \"#utility.yul\":422:427   */\n      dup2\n        /* \"#utility.yul\":395:428   */\n      tag_146\n      jump\t// in\n    tag_145:\n        /* \"#utility.yul\":295:434   */\n      swap3\n      swap2\n      pop\n      pop\n      jump\t// out\n        /* \"#utility.yul\":440:577   */\n    tag_147:\n        /* \"#utility.yul\":485:490   */\n      0x00\n        /* \"#utility.yul\":523:529   */\n      dup2\n        /* \"#utility.yul\":510:530   */\n      calldataload\n        /* \"#utility.yul\":501:530   */\n      swap1\n      pop\n        /* \"#utility.yul\":539:571   */\n      tag_149\n        /* \"#utility.yul\":565:570   */\n      dup2\n        /* \"#utility.yul\":539:571   */\n      tag_150\n      jump\t// in\n    tag_149:\n        /* \"#utility.yul\":440:577   */\n      swap3\n      swap2\n      pop\n      pop\n      jump\t// out\n        /* \"#utility.yul\":583:928   */\n    tag_66:\n        /* \"#utility.yul\":650:656   */\n      0x00\n        /* \"#utility.yul\":699:701   */\n      0x20\n        /* \"#utility.yul\":687:696   */\n      dup3\n        /* \"#utility.yul\":678:685   */\n      dup5\n        /* \"#utility.yul\":674:697   */\n      sub\n        /* \"#utility.yul\":670:702   */\n      slt\n        /* \"#utility.yul\":667:786   */\n      iszero\n      tag_152\n      jumpi\n        /* \"#utility.yul\":705:784   */\n      tag_153\n      tag_154\n      jump\t// in\n    tag_153:\n        /* \"#utility.yul\":667:786   */\n    tag_152:\n        /* \"#utility.yul\":825:826   */\n      0x00\n        /* \"#utility.yul\":850:911   */\n      tag_155\n        /* \"#utility.yul\":903:910   */\n      dup5\n        /* \"#utility.yul\":894:900   */\n      dup3\n        /* \"#utility.yul\":883:892   */\n      dup6\n        /* \"#utility.yul\":879:901   */\n      add\n        /* \"#utility.yul\":850:911   */\n      tag_139\n      jump\t// in\n    tag_155:\n        /* \"#utility.yul\":840:911   */\n      swap2\n      pop\n        /* \"#utility.yul\":796:921   */\n      pop\n        /* \"#utility.yul\":583:928   */\n      swap3\n      swap2\n      pop\n      pop\n      jump\t// out\n        /* \"#utility.yul\":934:1263   */\n    tag_20:\n        /* \"#utility.yul\":993:999   */\n      0x00\n        /* \"#utility.yul\":1042:1044   */\n      0x20\n        /* \"#utility.yul\":1030:1039   */\n      dup3\n        /* \"#utility.yul\":1021:1028   */\n      dup5\n        /* \"#utility.yul\":1017:1040   */\n      sub\n        /* \"#utility.yul\":1013:1045   */\n      slt\n        /* \"#utility.yul\":1010:1129   */\n      iszero\n      tag_157\n      jumpi\n        /* \"#utility.yul\":1048:1127   */\n      tag_158\n      tag_154\n      jump\t// in\n    tag_158:\n        /* \"#utility.yul\":1010:1129   */\n    tag_157:\n        /* \"#utility.yul\":1168:1169   */\n      0x00\n        /* \"#utility.yul\":1193:1246   */\n      tag_159\n        /* \"#utility.yul\":1238:1245   */\n      dup5\n        /* \"#utility.yul\":1229:1235   */\n      dup3\n        /* \"#utility.yul\":1218:1227   */\n      dup6\n        /* \"#utility.yul\":1214:1236   */\n      add\n        /* \"#utility.yul\":1193:1246   */\n      tag_143\n      jump\t// in\n    tag_159:\n        /* \"#utility.yul\":1183:1246   */\n      swap2\n      pop\n        /* \"#utility.yul\":1139:1256   */\n      pop\n        /* \"#utility.yul\":934:1263   */\n      swap3\n      swap2\n      pop\n      pop\n      jump\t// out\n        /* \"#utility.yul\":1269:1743   */\n    tag_43:\n        /* \"#utility.yul\":1337:1343   */\n      0x00\n        /* \"#utility.yul\":1345:1351   */\n      dup1\n        /* \"#utility.yul\":1394:1396   */\n      0x40\n        /* \"#utility.yul\":1382:1391   */\n      dup4\n        /* \"#utility.yul\":1373:1380   */\n      dup6\n        /* \"#utility.yul\":1369:1392   */\n      sub\n        /* \"#utility.yul\":1365:1397   */\n      slt\n        /* \"#utility.yul\":1362:1481   */\n      iszero\n      tag_161\n      jumpi\n        /* \"#utility.yul\":1400:1479   */\n      tag_162\n      tag_154\n      jump\t// in\n    tag_162:\n        /* \"#utility.yul\":1362:1481   */\n    tag_161:\n        /* \"#utility.yul\":1520:1521   */\n      0x00\n        /* \"#utility.yul\":1545:1598   */\n      tag_163\n        /* \"#utility.yul\":1590:1597   */\n      dup6\n        /* \"#utility.yul\":1581:1587   */\n      dup3\n        /* \"#utility.yul\":1570:1579   */\n      dup7\n        /* \"#utility.yul\":1566:1588   */\n      add\n        /* \"#utility.yul\":1545:1598   */\n      tag_143\n      jump\t// in\n    tag_163:\n        /* \"#utility.yul\":1535:1598   */\n      swap3\n      pop\n        /* \"#utility.yul\":1491:1608   */\n      pop\n        /* \"#utility.yul\":1647:1649   */\n      0x20\n        /* \"#utility.yul\":1673:1726   */\n      tag_164\n        /* \"#utility.yul\":1718:1725   */\n      dup6\n        /* \"#utility.yul\":1709:1715   */\n      dup3\n        /* \"#utility.yul\":1698:1707   */\n      dup7\n        /* \"#utility.yul\":1694:1716   */\n      add\n        /* \"#utility.yul\":1673:1726   */\n      tag_135\n      jump\t// in\n    tag_164:\n        /* \"#utility.yul\":1663:1726   */\n      swap2\n      pop\n        /* \"#utility.yul\":1618:1736   */\n      pop\n        /* \"#utility.yul\":1269:1743   */\n      swap3\n      pop\n      swap3\n      swap1\n      pop\n      jump\t// out\n        /* \"#utility.yul\":1749:2223   */\n    tag_39:\n        /* \"#utility.yul\":1817:1823   */\n      0x00\n        /* \"#utility.yul\":1825:1831   */\n      dup1\n        /* \"#utility.yul\":1874:1876   */\n      0x40\n        /* \"#utility.yul\":1862:1871   */\n      dup4\n        /* \"#utility.yul\":1853:1860   */\n      dup6\n        /* \"#utility.yul\":1849:1872   */\n      sub\n        /* \"#utility.yul\":1845:1877   */\n      slt\n        /* \"#utility.yul\":1842:1961   */\n      iszero\n      tag_166\n      jumpi\n        /* \"#utility.yul\":1880:1959   */\n      tag_167\n      tag_154\n      jump\t// in\n    tag_167:\n        /* \"#utility.yul\":1842:1961   */\n    tag_166:\n        /* \"#utility.yul\":2000:2001   */\n      0x00\n        /* \"#utility.yul\":2025:2078   */\n      tag_168\n        /* \"#utility.yul\":2070:2077   */\n      dup6\n        /* \"#utility.yul\":2061:2067   */\n      dup3\n        /* \"#utility.yul\":2050:2059   */\n      dup7\n        /* \"#utility.yul\":2046:2068   */\n      add\n        /* \"#utility.yul\":2025:2078   */\n      tag_143\n      jump\t// in\n    tag_168:\n        /* \"#utility.yul\":2015:2078   */\n      swap3\n      pop\n        /* \"#utility.yul\":1971:2088   */\n      pop\n        /* \"#utility.yul\":2127:2129   */\n      0x20\n        /* \"#utility.yul\":2153:2206   */\n      tag_169\n        /* \"#utility.yul\":2198:2205   */\n      dup6\n        /* \"#utility.yul\":2189:2195   */\n      dup3\n        /* \"#utility.yul\":2178:2187   */\n      dup7\n        /* \"#utility.yul\":2174:2196   */\n      add\n        /* \"#utility.yul\":2153:2206   */\n      tag_143\n      jump\t// in\n    tag_169:\n        /* \"#utility.yul\":2143:2206   */\n      swap2\n      pop\n        /* \"#utility.yul\":2098:2216   */\n      pop\n        /* \"#utility.yul\":1749:2223   */\n      swap3\n      pop\n      swap3\n      swap1\n      pop\n      jump\t// out\n        /* \"#utility.yul\":2229:2844   */\n    tag_29:\n        /* \"#utility.yul\":2304:2310   */\n      0x00\n        /* \"#utility.yul\":2312:2318   */\n      dup1\n        /* \"#utility.yul\":2320:2326   */\n      0x00\n        /* \"#utility.yul\":2369:2371   */\n      0x60\n        /* \"#utility.yul\":2357:2366   */\n      dup5\n        /* \"#utility.yul\":2348:2355   */\n      dup7\n        /* \"#utility.yul\":2344:2367   */\n      sub\n        /* \"#utility.yul\":2340:2372   */\n      slt\n        /* \"#utility.yul\":2337:2456   */\n      iszero\n      tag_171\n      jumpi\n        /* \"#utility.yul\":2375:2454   */\n      tag_172\n      tag_154\n      jump\t// in\n    tag_172:\n        /* \"#utility.yul\":2337:2456   */\n    tag_171:\n        /* \"#utility.yul\":2495:2496   */\n      0x00\n        /* \"#utility.yul\":2520:2573   */\n      tag_173\n        /* \"#utility.yul\":2565:2572   */\n      dup7\n        /* \"#utility.yul\":2556:2562   */\n      dup3\n        /* \"#utility.yul\":2545:2554   */\n      dup8\n        /* \"#utility.yul\":2541:2563   */\n      add\n        /* \"#utility.yul\":2520:2573   */\n      tag_143\n      jump\t// in\n    tag_173:\n        /* \"#utility.yul\":2510:2573   */\n      swap4\n      pop\n        /* \"#utility.yul\":2466:2583   */\n      pop\n        /* \"#utility.yul\":2622:2624   */\n      0x20\n        /* \"#utility.yul\":2648:2700   */\n      tag_174\n        /* \"#utility.yul\":2692:2699   */\n      dup7\n        /* \"#utility.yul\":2683:2689   */\n      dup3\n        /* \"#utility.yul\":2672:2681   */\n      dup8\n        /* \"#utility.yul\":2668:2690   */\n      add\n        /* \"#utility.yul\":2648:2700   */\n      tag_147\n      jump\t// in\n    tag_174:\n        /* \"#utility.yul\":2638:2700   */\n      swap3\n      pop\n        /* \"#utility.yul\":2593:2710   */\n      pop\n        /* \"#utility.yul\":2749:2751   */\n      0x40\n        /* \"#utility.yul\":2775:2827   */\n      tag_175\n        /* \"#utility.yul\":2819:2826   */\n      dup7\n        /* \"#utility.yul\":2810:2816   */\n      dup3\n        /* \"#utility.yul\":2799:2808   */\n      dup8\n        /* \"#utility.yul\":2795:2817   */\n      add\n        /* \"#utility.yul\":2775:2827   */\n      tag_147\n      jump\t// in\n    tag_175:\n        /* \"#utility.yul\":2765:2827   */\n      swap2\n      pop\n        /* \"#utility.yul\":2720:2837   */\n      pop\n        /* \"#utility.yul\":2229:2844   */\n      swap3\n      pop\n      swap3\n      pop\n      swap3\n      jump\t// out\n        /* \"#utility.yul\":2850:2968   */\n    tag_176:\n        /* \"#utility.yul\":2937:2961   */\n      tag_178\n        /* \"#utility.yul\":2955:2960   */\n      dup2\n        /* \"#utility.yul\":2937:2961   */\n      tag_179\n      jump\t// in\n    tag_178:\n        /* \"#utility.yul\":2932:2935   */\n      dup3\n        /* \"#utility.yul\":2925:2962   */\n      mstore\n        /* \"#utility.yul\":2850:2968   */\n      pop\n      pop\n      jump\t// out\n        /* \"#utility.yul\":2974:3083   */\n    tag_180:\n        /* \"#utility.yul\":3055:3076   */\n      tag_182\n        /* \"#utility.yul\":3070:3075   */\n      dup2\n        /* \"#utility.yul\":3055:3076   */\n      tag_183\n      jump\t// in\n    tag_182:\n        /* \"#utility.yul\":3050:3053   */\n      dup3\n        /* \"#utility.yul\":3043:3077   */\n      mstore\n        /* \"#utility.yul\":2974:3083   */\n      pop\n      pop\n      jump\t// out\n        /* \"#utility.yul\":3089:3248   */\n    tag_184:\n        /* \"#utility.yul\":3190:3241   */\n      tag_186\n        /* \"#utility.yul\":3235:3240   */\n      dup2\n        /* \"#utility.yul\":3190:3241   */\n      tag_187\n      jump\t// in\n    tag_186:\n        /* \"#utility.yul\":3185:3188   */\n      dup3\n        /* \"#utility.yul\":3178:3242   */\n      mstore\n        /* \"#utility.yul\":3089:3248   */\n      pop\n      pop\n      jump\t// out\n        /* \"#utility.yul\":3254:3620   */\n    tag_188:\n        /* \"#utility.yul\":3396:3399   */\n      0x00\n        /* \"#utility.yul\":3417:3484   */\n      tag_190\n        /* \"#utility.yul\":3481:3483   */\n      0x15\n        /* \"#utility.yul\":3476:3479   */\n      dup4\n        /* \"#utility.yul\":3417:3484   */\n      tag_191\n      jump\t// in\n    tag_190:\n        /* \"#utility.yul\":3410:3484   */\n      swap2\n      pop\n        /* \"#utility.yul\":3493:3586   */\n      tag_192\n        /* \"#utility.yul\":3582:3585   */\n      dup3\n        /* \"#utility.yul\":3493:3586   */\n      tag_193\n      jump\t// in\n    tag_192:\n        /* \"#utility.yul\":3611:3613   */\n      0x20\n        /* \"#utility.yul\":3606:3609   */\n      dup3\n        /* \"#utility.yul\":3602:3614   */\n      add\n        /* \"#utility.yul\":3595:3614   */\n      swap1\n      pop\n        /* \"#utility.yul\":3254:3620   */\n      swap2\n      swap1\n      pop\n      jump\t// out\n        /* \"#utility.yul\":3626:3991   */\n    tag_194:\n        /* \"#utility.yul\":3768:3771   */\n      0x00\n        /* \"#utility.yul\":3789:3855   */\n      tag_196\n        /* \"#utility.yul\":3853:3854   */\n      0x07\n        /* \"#utility.yul\":3848:3851   */\n      dup4\n        /* \"#utility.yul\":3789:3855   */\n      tag_191\n      jump\t// in\n    tag_196:\n        /* \"#utility.yul\":3782:3855   */\n      swap2\n      pop\n        /* \"#utility.yul\":3864:3957   */\n      tag_197\n        /* \"#utility.yul\":3953:3956   */\n      dup3\n        /* \"#utility.yul\":3864:3957   */\n      tag_198\n      jump\t// in\n    tag_197:\n        /* \"#utility.yul\":3982:3984   */\n      0x20\n        /* \"#utility.yul\":3977:3980   */\n      dup3\n        /* \"#utility.yul\":3973:3985   */\n      add\n        /* \"#utility.yul\":3966:3985   */\n      swap1\n      pop\n        /* \"#utility.yul\":3626:3991   */\n      swap2\n      swap1\n      pop\n      jump\t// out\n        /* \"#utility.yul\":3997:4363   */\n    tag_199:\n        /* \"#utility.yul\":4139:4142   */\n      0x00\n        /* \"#utility.yul\":4160:4227   */\n      tag_201\n        /* \"#utility.yul\":4224:4226   */\n      0x11\n        /* \"#utility.yul\":4219:4222   */\n      dup4\n        /* \"#utility.yul\":4160:4227   */\n      tag_191\n      jump\t// in\n    tag_201:\n        /* \"#utility.yul\":4153:4227   */\n      swap2\n      pop\n        /* \"#utility.yul\":4236:4329   */\n      tag_202\n        /* \"#utility.yul\":4325:4328   */\n      dup3\n        /* \"#utility.yul\":4236:4329   */\n      tag_203\n      jump\t// in\n    tag_202:\n        /* \"#utility.yul\":4354:4356   */\n      0x20\n        /* \"#utility.yul\":4349:4352   */\n      dup3\n        /* \"#utility.yul\":4345:4357   */\n      add\n        /* \"#utility.yul\":4338:4357   */\n      swap1\n      pop\n        /* \"#utility.yul\":3997:4363   */\n      swap2\n      swap1\n      pop\n      jump\t// out\n        /* \"#utility.yul\":4369:4735   */\n    tag_204:\n        /* \"#utility.yul\":4511:4514   */\n      0x00\n        /* \"#utility.yul\":4532:4599   */\n      tag_206\n        /* \"#utility.yul\":4596:4598   */\n      0x0b\n        /* \"#utility.yul\":4591:4594   */\n      dup4\n        /* \"#utility.yul\":4532:4599   */\n      tag_191\n      jump\t// in\n    tag_206:\n        /* \"#utility.yul\":4525:4599   */\n      swap2\n      pop\n        /* \"#utility.yul\":4608:4701   */\n      tag_207\n        /* \"#utility.yul\":4697:4700   */\n      dup3\n        /* \"#utility.yul\":4608:4701   */\n      tag_208\n      jump\t// in\n    tag_207:\n        /* \"#utility.yul\":4726:4728   */\n      0x20\n        /* \"#utility.yul\":4721:4724   */\n      dup3\n        /* \"#utility.yul\":4717:4729   */\n      add\n        /* \"#utility.yul\":4710:4729   */\n      swap1\n      pop\n        /* \"#utility.yul\":4369:4735   */\n      swap2\n      swap1\n      pop\n      jump\t// out\n        /* \"#utility.yul\":4741:5107   */\n    tag_209:\n        /* \"#utility.yul\":4883:4886   */\n      0x00\n        /* \"#utility.yul\":4904:4971   */\n      tag_211\n        /* \"#utility.yul\":4968:4970   */\n      0x0e\n        /* \"#utility.yul\":4963:4966   */\n      dup4\n        /* \"#utility.yul\":4904:4971   */\n      tag_191\n      jump\t// in\n    tag_211:\n        /* \"#utility.yul\":4897:4971   */\n      swap2\n      pop\n        /* \"#utility.yul\":4980:5073   */\n      tag_212\n        /* \"#utility.yul\":5069:5072   */\n      dup3\n        /* \"#utility.yul\":4980:5073   */\n      tag_213\n      jump\t// in\n    tag_212:\n        /* \"#utility.yul\":5098:5100   */\n      0x20\n        /* \"#utility.yul\":5093:5096   */\n      dup3\n        /* \"#utility.yul\":5089:5101   */\n      add\n        /* \"#utility.yul\":5082:5101   */\n      swap1\n      pop\n        /* \"#utility.yul\":4741:5107   */\n      swap2\n      swap1\n      pop\n      jump\t// out\n        /* \"#utility.yul\":5113:5479   */\n    tag_214:\n        /* \"#utility.yul\":5255:5258   */\n      0x00\n        /* \"#utility.yul\":5276:5343   */\n      tag_216\n        /* \"#utility.yul\":5340:5342   */\n      0x0e\n        /* \"#utility.yul\":5335:5338   */\n      dup4\n        /* \"#utility.yul\":5276:5343   */\n      tag_191\n      jump\t// in\n    tag_216:\n        /* \"#utility.yul\":5269:5343   */\n      swap2\n      pop\n        /* \"#utility.yul\":5352:5445   */\n      tag_217\n        /* \"#utility.yul\":5441:5444   */\n      dup3\n        /* \"#utility.yul\":5352:5445   */\n      tag_218\n      jump\t// in\n    tag_217:\n        /* \"#utility.yul\":5470:5472   */\n      0x20\n        /* \"#utility.yul\":5465:5468   */\n      dup3\n        /* \"#utility.yul\":5461:5473   */\n      add\n        /* \"#utility.yul\":5454:5473   */\n      swap1\n      pop\n        /* \"#utility.yul\":5113:5479   */\n      swap2\n      swap1\n      pop\n      jump\t// out\n        /* \"#utility.yul\":5485:5851   */\n    tag_219:\n        /* \"#utility.yul\":5627:5630   */\n      0x00\n        /* \"#utility.yul\":5648:5715   */\n      tag_221\n        /* \"#utility.yul\":5712:5714   */\n      0x0b\n        /* \"#utility.yul\":5707:5710   */\n      dup4\n        /* \"#utility.yul\":5648:5715   */\n      tag_191\n      jump\t// in\n    tag_221:\n        /* \"#utility.yul\":5641:5715   */\n      swap2\n      pop\n        /* \"#utility.yul\":5724:5817   */\n      tag_222\n        /* \"#utility.yul\":5813:5816   */\n      dup3\n        /* \"#utility.yul\":5724:5817   */\n      tag_223\n      jump\t// in\n    tag_222:\n        /* \"#utility.yul\":5842:5844   */\n      0x20\n        /* \"#utility.yul\":5837:5840   */\n      dup3\n        /* \"#utility.yul\":5833:5845   */\n      add\n        /* \"#utility.yul\":5826:5845   */\n      swap1\n      pop\n        /* \"#utility.yul\":5485:5851   */\n      swap2\n      swap1\n      pop\n      jump\t// out\n        /* \"#utility.yul\":5857:6222   */\n    tag_224:\n        /* \"#utility.yul\":5999:6002   */\n      0x00\n        /* \"#utility.yul\":6020:6086   */\n      tag_226\n        /* \"#utility.yul\":6084:6085   */\n      0x05\n        /* \"#utility.yul\":6079:6082   */\n      dup4\n        /* \"#utility.yul\":6020:6086   */\n      tag_191\n      jump\t// in\n    tag_226:\n        /* \"#utility.yul\":6013:6086   */\n      swap2\n      pop\n        /* \"#utility.yul\":6095:6188   */\n      tag_227\n        /* \"#utility.yul\":6184:6187   */\n      dup3\n        /* \"#utility.yul\":6095:6188   */\n      tag_228\n      jump\t// in\n    tag_227:\n        /* \"#utility.yul\":6213:6215   */\n      0x20\n        /* \"#utility.yul\":6208:6211   */\n      dup3\n        /* \"#utility.yul\":6204:6216   */\n      add\n        /* \"#utility.yul\":6197:6216   */\n      swap1\n      pop\n        /* \"#utility.yul\":5857:6222   */\n      swap2\n      swap1\n      pop\n      jump\t// out\n        /* \"#utility.yul\":6228:6593   */\n    tag_229:\n        /* \"#utility.yul\":6370:6373   */\n      0x00\n        /* \"#utility.yul\":6391:6457   */\n      tag_231\n        /* \"#utility.yul\":6455:6456   */\n      0x09\n        /* \"#utility.yul\":6450:6453   */\n      dup4\n        /* \"#utility.yul\":6391:6457   */\n      tag_191\n      jump\t// in\n    tag_231:\n        /* \"#utility.yul\":6384:6457   */\n      swap2\n      pop\n        /* \"#utility.yul\":6466:6559   */\n      tag_232\n        /* \"#utility.yul\":6555:6558   */\n      dup3\n        /* \"#utility.yul\":6466:6559   */\n      tag_233\n      jump\t// in\n    tag_232:\n        /* \"#utility.yul\":6584:6586   */\n      0x20\n        /* \"#utility.yul\":6579:6582   */\n      dup3\n        /* \"#utility.yul\":6575:6587   */\n      add\n        /* \"#utility.yul\":6568:6587   */\n      swap1\n      pop\n        /* \"#utility.yul\":6228:6593   */\n      swap2\n      swap1\n      pop\n      jump\t// out\n        /* \"#utility.yul\":6599:6717   */\n    tag_234:\n        /* \"#utility.yul\":6686:6710   */\n      tag_236\n        /* \"#utility.yul\":6704:6709   */\n      dup2\n        /* \"#utility.yul\":6686:6710   */\n      tag_237\n      jump\t// in\n    tag_236:\n        /* \"#utility.yul\":6681:6684   */\n      dup3\n        /* \"#utility.yul\":6674:6711   */\n      mstore\n        /* \"#utility.yul\":6599:6717   */\n      pop\n      pop\n      jump\t// out\n        /* \"#utility.yul\":6723:6838   */\n    tag_238:\n        /* \"#utility.yul\":6808:6831   */\n      tag_240\n        /* \"#utility.yul\":6825:6830   */\n      dup2\n        /* \"#utility.yul\":6808:6831   */\n      tag_241\n      jump\t// in\n    tag_240:\n        /* \"#utility.yul\":6803:6806   */\n      dup3\n        /* \"#utility.yul\":6796:6832   */\n      mstore\n        /* \"#utility.yul\":6723:6838   */\n      pop\n      pop\n      jump\t// out\n        /* \"#utility.yul\":6844:7286   */\n    tag_128:\n        /* \"#utility.yul\":6993:6997   */\n      0x00\n        /* \"#utility.yul\":7031:7033   */\n      0x60\n        /* \"#utility.yul\":7020:7029   */\n      dup3\n        /* \"#utility.yul\":7016:7034   */\n      add\n        /* \"#utility.yul\":7008:7034   */\n      swap1\n      pop\n        /* \"#utility.yul\":7044:7115   */\n      tag_243\n        /* \"#utility.yul\":7112:7113   */\n      0x00\n        /* \"#utility.yul\":7101:7110   */\n      dup4\n        /* \"#utility.yul\":7097:7114   */\n      add\n        /* \"#utility.yul\":7088:7094   */\n      dup7\n        /* \"#utility.yul\":7044:7115   */\n      tag_176\n      jump\t// in\n    tag_243:\n        /* \"#utility.yul\":7125:7197   */\n      tag_244\n        /* \"#utility.yul\":7193:7195   */\n      0x20\n        /* \"#utility.yul\":7182:7191   */\n      dup4\n        /* \"#utility.yul\":7178:7196   */\n      add\n        /* \"#utility.yul\":7169:7175   */\n      dup6\n        /* \"#utility.yul\":7125:7197   */\n      tag_176\n      jump\t// in\n    tag_244:\n        /* \"#utility.yul\":7207:7279   */\n      tag_245\n        /* \"#utility.yul\":7275:7277   */\n      0x40\n        /* \"#utility.yul\":7264:7273   */\n      dup4\n        /* \"#utility.yul\":7260:7278   */\n      add\n        /* \"#utility.yul\":7251:7257   */\n      dup5\n        /* \"#utility.yul\":7207:7279   */\n      tag_234\n      jump\t// in\n    tag_245:\n        /* \"#utility.yul\":6844:7286   */\n      swap5\n      swap4\n      pop\n      pop\n      pop\n      pop\n      jump\t// out\n        /* \"#utility.yul\":7292:7624   */\n    tag_61:\n        /* \"#utility.yul\":7413:7417   */\n      0x00\n        /* \"#utility.yul\":7451:7453   */\n      0x40\n        /* \"#utility.yul\":7440:7449   */\n      dup3\n        /* \"#utility.yul\":7436:7454   */\n      add\n        /* \"#utility.yul\":7428:7454   */\n      swap1\n      pop\n        /* \"#utility.yul\":7464:7535   */\n      tag_247\n        /* \"#utility.yul\":7532:7533   */\n      0x00\n        /* \"#utility.yul\":7521:7530   */\n      dup4\n        /* \"#utility.yul\":7517:7534   */\n      add\n        /* \"#utility.yul\":7508:7514   */\n      dup6\n        /* \"#utility.yul\":7464:7535   */\n      tag_176\n      jump\t// in\n    tag_247:\n        /* \"#utility.yul\":7545:7617   */\n      tag_248\n        /* \"#utility.yul\":7613:7615   */\n      0x20\n        /* \"#utility.yul\":7602:7611   */\n      dup4\n        /* \"#utility.yul\":7598:7616   */\n      add\n        /* \"#utility.yul\":7589:7595   */\n      dup5\n        /* \"#utility.yul\":7545:7617   */\n      tag_234\n      jump\t// in\n    tag_248:\n        /* \"#utility.yul\":7292:7624   */\n      swap4\n      swap3\n      pop\n      pop\n      pop\n      jump\t// out\n        /* \"#utility.yul\":7630:8385   */\n    tag_23:\n        /* \"#utility.yul\":7853:7857   */\n      0x00\n        /* \"#utility.yul\":7891:7894   */\n      0xc0\n        /* \"#utility.yul\":7880:7889   */\n      dup3\n        /* \"#utility.yul\":7876:7895   */\n      add\n        /* \"#utility.yul\":7868:7895   */\n      swap1\n      pop\n        /* \"#utility.yul\":7905:7976   */\n      tag_250\n        /* \"#utility.yul\":7973:7974   */\n      0x00\n        /* \"#utility.yul\":7962:7971   */\n      dup4\n        /* \"#utility.yul\":7958:7975   */\n      add\n        /* \"#utility.yul\":7949:7955   */\n      dup10\n        /* \"#utility.yul\":7905:7976   */\n      tag_176\n      jump\t// in\n    tag_250:\n        /* \"#utility.yul\":7986:8058   */\n      tag_251\n        /* \"#utility.yul\":8054:8056   */\n      0x20\n        /* \"#utility.yul\":8043:8052   */\n      dup4\n        /* \"#utility.yul\":8039:8057   */\n      add\n        /* \"#utility.yul\":8030:8036   */\n      dup9\n        /* \"#utility.yul\":7986:8058   */\n      tag_234\n      jump\t// in\n    tag_251:\n        /* \"#utility.yul\":8068:8140   */\n      tag_252\n        /* \"#utility.yul\":8136:8138   */\n      0x40\n        /* \"#utility.yul\":8125:8134   */\n      dup4\n        /* \"#utility.yul\":8121:8139   */\n      add\n        /* \"#utility.yul\":8112:8118   */\n      dup8\n        /* \"#utility.yul\":8068:8140   */\n      tag_234\n      jump\t// in\n    tag_252:\n        /* \"#utility.yul\":8150:8220   */\n      tag_253\n        /* \"#utility.yul\":8216:8218   */\n      0x60\n        /* \"#utility.yul\":8205:8214   */\n      dup4\n        /* \"#utility.yul\":8201:8219   */\n      add\n        /* \"#utility.yul\":8192:8198   */\n      dup7\n        /* \"#utility.yul\":8150:8220   */\n      tag_238\n      jump\t// in\n    tag_253:\n        /* \"#utility.yul\":8230:8301   */\n      tag_254\n        /* \"#utility.yul\":8296:8299   */\n      0x80\n        /* \"#utility.yul\":8285:8294   */\n      dup4\n        /* \"#utility.yul\":8281:8300   */\n      add\n        /* \"#utility.yul\":8272:8278   */\n      dup6\n        /* \"#utility.yul\":8230:8301   */\n      tag_238\n      jump\t// in\n    tag_254:\n        /* \"#utility.yul\":8311:8378   */\n      tag_255\n        /* \"#utility.yul\":8373:8376   */\n      0xa0\n        /* \"#utility.yul\":8362:8371   */\n      dup4\n        /* \"#utility.yul\":8358:8377   */\n      add\n        /* \"#utility.yul\":8349:8355   */\n      dup5\n        /* \"#utility.yul\":8311:8378   */\n      tag_180\n      jump\t// in\n    tag_255:\n        /* \"#utility.yul\":7630:8385   */\n      swap8\n      swap7\n      pop\n      pop\n      pop\n      pop\n      pop\n      pop\n      pop\n      jump\t// out\n        /* \"#utility.yul\":8391:8641   */\n    tag_49:\n        /* \"#utility.yul\":8498:8502   */\n      0x00\n        /* \"#utility.yul\":8536:8538   */\n      0x20\n        /* \"#utility.yul\":8525:8534   */\n      dup3\n        /* \"#utility.yul\":8521:8539   */\n      add\n        /* \"#utility.yul\":8513:8539   */\n      swap1\n      pop\n        /* \"#utility.yul\":8549:8634   */\n      tag_257\n        /* \"#utility.yul\":8631:8632   */\n      0x00\n        /* \"#utility.yul\":8620:8629   */\n      dup4\n        /* \"#utility.yul\":8616:8633   */\n      add\n        /* \"#utility.yul\":8607:8613   */\n      dup5\n        /* \"#utility.yul\":8549:8634   */\n      tag_184\n      jump\t// in\n    tag_257:\n        /* \"#utility.yul\":8391:8641   */\n      swap3\n      swap2\n      pop\n      pop\n      jump\t// out\n        /* \"#utility.yul\":8647:9066   */\n    tag_79:\n        /* \"#utility.yul\":8813:8817   */\n      0x00\n        /* \"#utility.yul\":8851:8853   */\n      0x20\n        /* \"#utility.yul\":8840:8849   */\n      dup3\n        /* \"#utility.yul\":8836:8854   */\n      add\n        /* \"#utility.yul\":8828:8854   */\n      swap1\n      pop\n        /* \"#utility.yul\":8900:8909   */\n      dup2\n        /* \"#utility.yul\":8894:8898   */\n      dup2\n        /* \"#utility.yul\":8890:8910   */\n      sub\n        /* \"#utility.yul\":8886:8887   */\n      0x00\n        /* \"#utility.yul\":8875:8884   */\n      dup4\n        /* \"#utility.yul\":8871:8888   */\n      add\n        /* \"#utility.yul\":8864:8911   */\n      mstore\n        /* \"#utility.yul\":8928:9059   */\n      tag_259\n        /* \"#utility.yul\":9054:9058   */\n      dup2\n        /* \"#utility.yul\":8928:9059   */\n      tag_188\n      jump\t// in\n    tag_259:\n        /* \"#utility.yul\":8920:9059   */\n      swap1\n      pop\n        /* \"#utility.yul\":8647:9066   */\n      swap2\n      swap1\n      pop\n      jump\t// out\n        /* \"#utility.yul\":9072:9491   */\n    tag_93:\n        /* \"#utility.yul\":9238:9242   */\n      0x00\n        /* \"#utility.yul\":9276:9278   */\n      0x20\n        /* \"#utility.yul\":9265:9274   */\n      dup3\n        /* \"#utility.yul\":9261:9279   */\n      add\n        /* \"#utility.yul\":9253:9279   */\n      swap1\n      pop\n        /* \"#utility.yul\":9325:9334   */\n      dup2\n        /* \"#utility.yul\":9319:9323   */\n      dup2\n        /* \"#utility.yul\":9315:9335   */\n      sub\n        /* \"#utility.yul\":9311:9312   */\n      0x00\n        /* \"#utility.yul\":9300:9309   */\n      dup4\n        /* \"#utility.yul\":9296:9313   */\n      add\n        /* \"#utility.yul\":9289:9336   */\n      mstore\n        /* \"#utility.yul\":9353:9484   */\n      tag_261\n        /* \"#utility.yul\":9479:9483   */\n      dup2\n        /* \"#utility.yul\":9353:9484   */\n      tag_194\n      jump\t// in\n    tag_261:\n        /* \"#utility.yul\":9345:9484   */\n      swap1\n      pop\n        /* \"#utility.yul\":9072:9491   */\n      swap2\n      swap1\n      pop\n      jump\t// out\n        /* \"#utility.yul\":9497:9916   */\n    tag_74:\n        /* \"#utility.yul\":9663:9667   */\n      0x00\n        /* \"#utility.yul\":9701:9703   */\n      0x20\n        /* \"#utility.yul\":9690:9699   */\n      dup3\n        /* \"#utility.yul\":9686:9704   */\n      add\n        /* \"#utility.yul\":9678:9704   */\n      swap1\n      pop\n        /* \"#utility.yul\":9750:9759   */\n      dup2\n        /* \"#utility.yul\":9744:9748   */\n      dup2\n        /* \"#utility.yul\":9740:9760   */\n      sub\n        /* \"#utility.yul\":9736:9737   */\n      0x00\n        /* \"#utility.yul\":9725:9734   */\n      dup4\n        /* \"#utility.yul\":9721:9738   */\n      add\n        /* \"#utility.yul\":9714:9761   */\n      mstore\n        /* \"#utility.yul\":9778:9909   */\n      tag_263\n        /* \"#utility.yul\":9904:9908   */\n      dup2\n        /* \"#utility.yul\":9778:9909   */\n      tag_199\n      jump\t// in\n    tag_263:\n        /* \"#utility.yul\":9770:9909   */\n      swap1\n      pop\n        /* \"#utility.yul\":9497:9916   */\n      swap2\n      swap1\n      pop\n      jump\t// out\n        /* \"#utility.yul\":9922:10341   */\n    tag_86:\n        /* \"#utility.yul\":10088:10092   */\n      0x00\n        /* \"#utility.yul\":10126:10128   */\n      0x20\n        /* \"#utility.yul\":10115:10124   */\n      dup3\n        /* \"#utility.yul\":10111:10129   */\n      add\n        /* \"#utility.yul\":10103:10129   */\n      swap1\n      pop\n        /* \"#utility.yul\":10175:10184   */\n      dup2\n        /* \"#utility.yul\":10169:10173   */\n      dup2\n        /* \"#utility.yul\":10165:10185   */\n      sub\n        /* \"#utility.yul\":10161:10162   */\n      0x00\n        /* \"#utility.yul\":10150:10159   */\n      dup4\n        /* \"#utility.yul\":10146:10163   */\n      add\n        /* \"#utility.yul\":10139:10186   */\n      mstore\n        /* \"#utility.yul\":10203:10334   */\n      tag_265\n        /* \"#utility.yul\":10329:10333   */\n      dup2\n        /* \"#utility.yul\":10203:10334   */\n      tag_204\n      jump\t// in\n    tag_265:\n        /* \"#utility.yul\":10195:10334   */\n      swap1\n      pop\n        /* \"#utility.yul\":9922:10341   */\n      swap2\n      swap1\n      pop\n      jump\t// out\n        /* \"#utility.yul\":10347:10766   */\n    tag_71:\n        /* \"#utility.yul\":10513:10517   */\n      0x00\n        /* \"#utility.yul\":10551:10553   */\n      0x20\n        /* \"#utility.yul\":10540:10549   */\n      dup3\n        /* \"#utility.yul\":10536:10554   */\n      add\n        /* \"#utility.yul\":10528:10554   */\n      swap1\n      pop\n        /* \"#utility.yul\":10600:10609   */\n      dup2\n        /* \"#utility.yul\":10594:10598   */\n      dup2\n        /* \"#utility.yul\":10590:10610   */\n      sub\n        /* \"#utility.yul\":10586:10587   */\n      0x00\n        /* \"#utility.yul\":10575:10584   */\n      dup4\n        /* \"#utility.yul\":10571:10588   */\n      add\n        /* \"#utility.yul\":10564:10611   */\n      mstore\n        /* \"#utility.yul\":10628:10759   */\n      tag_267\n        /* \"#utility.yul\":10754:10758   */\n      dup2\n        /* \"#utility.yul\":10628:10759   */\n      tag_209\n      jump\t// in\n    tag_267:\n        /* \"#utility.yul\":10620:10759   */\n      swap1\n      pop\n        /* \"#utility.yul\":10347:10766   */\n      swap2\n      swap1\n      pop\n      jump\t// out\n        /* \"#utility.yul\":10772:11191   */\n    tag_59:\n        /* \"#utility.yul\":10938:10942   */\n      0x00\n        /* \"#utility.yul\":10976:10978   */\n      0x20\n        /* \"#utility.yul\":10965:10974   */\n      dup3\n        /* \"#utility.yul\":10961:10979   */\n      add\n        /* \"#utility.yul\":10953:10979   */\n      swap1\n      pop\n        /* \"#utility.yul\":11025:11034   */\n      dup2\n        /* \"#utility.yul\":11019:11023   */\n      dup2\n        /* \"#utility.yul\":11015:11035   */\n      sub\n        /* \"#utility.yul\":11011:11012   */\n      0x00\n        /* \"#utility.yul\":11000:11009   */\n      dup4\n        /* \"#utility.yul\":10996:11013   */\n      add\n        /* \"#utility.yul\":10989:11036   */\n      mstore\n        /* \"#utility.yul\":11053:11184   */\n      tag_269\n        /* \"#utility.yul\":11179:11183   */\n      dup2\n        /* \"#utility.yul\":11053:11184   */\n      tag_214\n      jump\t// in\n    tag_269:\n        /* \"#utility.yul\":11045:11184   */\n      swap1\n      pop\n        /* \"#utility.yul\":10772:11191   */\n      swap2\n      swap1\n      pop\n      jump\t// out\n        /* \"#utility.yul\":11197:11616   */\n    tag_105:\n        /* \"#utility.yul\":11363:11367   */\n      0x00\n        /* \"#utility.yul\":11401:11403   */\n      0x20\n        /* \"#utility.yul\":11390:11399   */\n      dup3\n        /* \"#utility.yul\":11386:11404   */\n      add\n        /* \"#utility.yul\":11378:11404   */\n      swap1\n      pop\n        /* \"#utility.yul\":11450:11459   */\n      dup2\n        /* \"#utility.yul\":11444:11448   */\n      dup2\n        /* \"#utility.yul\":11440:11460   */\n      sub\n        /* \"#utility.yul\":11436:11437   */\n      0x00\n        /* \"#utility.yul\":11425:11434   */\n      dup4\n        /* \"#utility.yul\":11421:11438   */\n      add\n        /* \"#utility.yul\":11414:11461   */\n      mstore\n        /* \"#utility.yul\":11478:11609   */\n      tag_271\n        /* \"#utility.yul\":11604:11608   */\n      dup2\n        /* \"#utility.yul\":11478:11609   */\n      tag_219\n      jump\t// in\n    tag_271:\n        /* \"#utility.yul\":11470:11609   */\n      swap1\n      pop\n        /* \"#utility.yul\":11197:11616   */\n      swap2\n      swap1\n      pop\n      jump\t// out\n        /* \"#utility.yul\":11622:12041   */\n    tag_110:\n        /* \"#utility.yul\":11788:11792   */\n      0x00\n        /* \"#utility.yul\":11826:11828   */\n      0x20\n        /* \"#utility.yul\":11815:11824   */\n      dup3\n        /* \"#utility.yul\":11811:11829   */\n      add\n        /* \"#utility.yul\":11803:11829   */\n      swap1\n      pop\n        /* \"#utility.yul\":11875:11884   */\n      dup2\n        /* \"#utility.yul\":11869:11873   */\n      dup2\n        /* \"#utility.yul\":11865:11885   */\n      sub\n        /* \"#utility.yul\":11861:11862   */\n      0x00\n        /* \"#utility.yul\":11850:11859   */\n      dup4\n        /* \"#utility.yul\":11846:11863   */\n      add\n        /* \"#utility.yul\":11839:11886   */\n      mstore\n        /* \"#utility.yul\":11903:12034   */\n      tag_273\n        /* \"#utility.yul\":12029:12033   */\n      dup2\n        /* \"#utility.yul\":11903:12034   */\n      tag_224\n      jump\t// in\n    tag_273:\n        /* \"#utility.yul\":11895:12034   */\n      swap1\n      pop\n        /* \"#utility.yul\":11622:12041   */\n      swap2\n      swap1\n      pop\n      jump\t// out\n        /* \"#utility.yul\":12047:12466   */\n    tag_56:\n        /* \"#utility.yul\":12213:12217   */\n      0x00\n        /* \"#utility.yul\":12251:12253   */\n      0x20\n        /* \"#utility.yul\":12240:12249   */\n      dup3\n        /* \"#utility.yul\":12236:12254   */\n      add\n        /* \"#utility.yul\":12228:12254   */\n      swap1\n      pop\n        /* \"#utility.yul\":12300:12309   */\n      dup2\n        /* \"#utility.yul\":12294:12298   */\n      dup2\n        /* \"#utility.yul\":12290:12310   */\n      sub\n        /* \"#utility.yul\":12286:12287   */\n      0x00\n        /* \"#utility.yul\":12275:12284   */\n      dup4\n        /* \"#utility.yul\":12271:12288   */\n      add\n        /* \"#utility.yul\":12264:12311   */\n      mstore\n        /* \"#utility.yul\":12328:12459   */\n      tag_275\n        /* \"#utility.yul\":12454:12458   */\n      dup2\n        /* \"#utility.yul\":12328:12459   */\n      tag_229\n      jump\t// in\n    tag_275:\n        /* \"#utility.yul\":12320:12459   */\n      swap1\n      pop\n        /* \"#utility.yul\":12047:12466   */\n      swap2\n      swap1\n      pop\n      jump\t// out\n        /* \"#utility.yul\":12472:12694   */\n    tag_17:\n        /* \"#utility.yul\":12565:12569   */\n      0x00\n        /* \"#utility.yul\":12603:12605   */\n      0x20\n        /* \"#utility.yul\":12592:12601   */\n      dup3\n        /* \"#utility.yul\":12588:12606   */\n      add\n        /* \"#utility.yul\":12580:12606   */\n      swap1\n      pop\n        /* \"#utility.yul\":12616:12687   */\n      tag_277\n        /* \"#utility.yul\":12684:12685   */\n      0x00\n        /* \"#utility.yul\":12673:12682   */\n      dup4\n        /* \"#utility.yul\":12669:12686   */\n      add\n        /* \"#utility.yul\":12660:12666   */\n      dup5\n        /* \"#utility.yul\":12616:12687   */\n      tag_234\n      jump\t// in\n    tag_277:\n        /* \"#utility.yul\":12472:12694   */\n      swap3\n      swap2\n      pop\n      pop\n      jump\t// out\n        /* \"#utility.yul\":12700:13245   */\n    tag_82:\n        /* \"#utility.yul\":12873:12877   */\n      0x00\n        /* \"#utility.yul\":12911:12914   */\n      0x80\n        /* \"#utility.yul\":12900:12909   */\n      dup3\n        /* \"#utility.yul\":12896:12915   */\n      add\n        /* \"#utility.yul\":12888:12915   */\n      swap1\n      pop\n        /* \"#utility.yul\":12925:12996   */\n      tag_279\n        /* \"#utility.yul\":12993:12994   */\n      0x00\n        /* \"#utility.yul\":12982:12991   */\n      dup4\n        /* \"#utility.yul\":12978:12995   */\n      add\n        /* \"#utility.yul\":12969:12975   */\n      dup8\n        /* \"#utility.yul\":12925:12996   */\n      tag_234\n      jump\t// in\n    tag_279:\n        /* \"#utility.yul\":13006:13078   */\n      tag_280\n        /* \"#utility.yul\":13074:13076   */\n      0x20\n        /* \"#utility.yul\":13063:13072   */\n      dup4\n        /* \"#utility.yul\":13059:13077   */\n      add\n        /* \"#utility.yul\":13050:13056   */\n      dup7\n        /* \"#utility.yul\":13006:13078   */\n      tag_234\n      jump\t// in\n    tag_280:\n        /* \"#utility.yul\":13088:13158   */\n      tag_281\n        /* \"#utility.yul\":13154:13156   */\n      0x40\n        /* \"#utility.yul\":13143:13152   */\n      dup4\n        /* \"#utility.yul\":13139:13157   */\n      add\n        /* \"#utility.yul\":13130:13136   */\n      dup6\n        /* \"#utility.yul\":13088:13158   */\n      tag_238\n      jump\t// in\n    tag_281:\n        /* \"#utility.yul\":13168:13238   */\n      tag_282\n        /* \"#utility.yul\":13234:13236   */\n      0x60\n        /* \"#utility.yul\":13223:13232   */\n      dup4\n        /* \"#utility.yul\":13219:13237   */\n      add\n        /* \"#utility.yul\":13210:13216   */\n      dup5\n        /* \"#utility.yul\":13168:13238   */\n      tag_238\n      jump\t// in\n    tag_282:\n        /* \"#utility.yul\":12700:13245   */\n      swap6\n      swap5\n      pop\n      pop\n      pop\n      pop\n      pop\n      jump\t// out\n        /* \"#utility.yul\":13332:13501   */\n    tag_191:\n        /* \"#utility.yul\":13416:13427   */\n      0x00\n        /* \"#utility.yul\":13450:13456   */\n      dup3\n        /* \"#utility.yul\":13445:13448   */\n      dup3\n        /* \"#utility.yul\":13438:13457   */\n      mstore\n        /* \"#utility.yul\":13490:13494   */\n      0x20\n        /* \"#utility.yul\":13485:13488   */\n      dup3\n        /* \"#utility.yul\":13481:13495   */\n      add\n        /* \"#utility.yul\":13466:13495   */\n      swap1\n      pop\n        /* \"#utility.yul\":13332:13501   */\n      swap3\n      swap2\n      pop\n      pop\n      jump\t// out\n        /* \"#utility.yul\":13507:13812   */\n    tag_76:\n        /* \"#utility.yul\":13547:13550   */\n      0x00\n        /* \"#utility.yul\":13566:13586   */\n      tag_287\n        /* \"#utility.yul\":13584:13585   */\n      dup3\n        /* \"#utility.yul\":13566:13586   */\n      tag_237\n      jump\t// in\n    tag_287:\n        /* \"#utility.yul\":13561:13586   */\n      swap2\n      pop\n        /* \"#utility.yul\":13600:13620   */\n      tag_288\n        /* \"#utility.yul\":13618:13619   */\n      dup4\n        /* \"#utility.yul\":13600:13620   */\n      tag_237\n      jump\t// in\n    tag_288:\n        /* \"#utility.yul\":13595:13620   */\n      swap3\n      pop\n        /* \"#utility.yul\":13754:13755   */\n      dup3\n        /* \"#utility.yul\":13686:13752   */\n      0xffffffffffffffffffffffffffffffffffffffffffffffffffffffffffffffff\n        /* \"#utility.yul\":13682:13756   */\n      sub\n        /* \"#utility.yul\":13679:13680   */\n      dup3\n        /* \"#utility.yul\":13676:13757   */\n      gt\n        /* \"#utility.yul\":13673:13780   */\n      iszero\n      tag_289\n      jumpi\n        /* \"#utility.yul\":13760:13778   */\n      tag_290\n      tag_291\n      jump\t// in\n    tag_290:\n        /* \"#utility.yul\":13673:13780   */\n    tag_289:\n        /* \"#utility.yul\":13804:13805   */\n      dup3\n        /* \"#utility.yul\":13801:13802   */\n      dup3\n        /* \"#utility.yul\":13797:13806   */\n      add\n        /* \"#utility.yul\":13790:13806   */\n      swap1\n      pop\n        /* \"#utility.yul\":13507:13812   */\n      swap3\n      swap2\n      pop\n      pop\n      jump\t// out\n        /* \"#utility.yul\":13818:14009   */\n    tag_112:\n        /* \"#utility.yul\":13858:13862   */\n      0x00\n        /* \"#utility.yul\":13878:13898   */\n      tag_293\n        /* \"#utility.yul\":13896:13897   */\n      dup3\n        /* \"#utility.yul\":13878:13898   */\n      tag_237\n      jump\t// in\n    tag_293:\n        /* \"#utility.yul\":13873:13898   */\n      swap2\n      pop\n        /* \"#utility.yul\":13912:13932   */\n      tag_294\n        /* \"#utility.yul\":13930:13931   */\n      dup4\n        /* \"#utility.yul\":13912:13932   */\n      tag_237\n      jump\t// in\n    tag_294:\n        /* \"#utility.yul\":13907:13932   */\n      swap3\n      pop\n        /* \"#utility.yul\":13951:13952   */\n      dup3\n        /* \"#utility.yul\":13948:13949   */\n      dup3\n        /* \"#utility.yul\":13945:13953   */\n      lt\n        /* \"#utility.yul\":13942:13976   */\n      iszero\n      tag_295\n      jumpi\n        /* \"#utility.yul\":13956:13974   */\n      tag_296\n      tag_291\n      jump\t// in\n    tag_296:\n        /* \"#utility.yul\":13942:13976   */\n    tag_295:\n        /* \"#utility.yul\":14001:14002   */\n      dup3\n        /* \"#utility.yul\":13998:13999   */\n      dup3\n        /* \"#utility.yul\":13994:14003   */\n      sub\n        /* \"#utility.yul\":13986:14003   */\n      swap1\n      pop\n        /* \"#utility.yul\":13818:14009   */\n      swap3\n      swap2\n      pop\n      pop\n      jump\t// out\n        /* \"#utility.yul\":14015:14111   */\n    tag_179:\n        /* \"#utility.yul\":14052:14059   */\n      0x00\n        /* \"#utility.yul\":14081:14105   */\n      tag_298\n        /* \"#utility.yul\":14099:14104   */\n      dup3\n        /* \"#utility.yul\":14081:14105   */\n      tag_299\n      jump\t// in\n    tag_298:\n        /* \"#utility.yul\":14070:14105   */\n      swap1\n      pop\n        /* \"#utility.yul\":14015:14111   */\n      swap2\n      swap1\n      pop\n      jump\t// out\n        /* \"#utility.yul\":14117:14207   */\n    tag_183:\n        /* \"#utility.yul\":14151:14158   */\n      0x00\n        /* \"#utility.yul\":14194:14199   */\n      dup2\n        /* \"#utility.yul\":14187:14200   */\n      iszero\n        /* \"#utility.yul\":14180:14201   */\n      iszero\n        /* \"#utility.yul\":14169:14201   */\n      swap1\n      pop\n        /* \"#utility.yul\":14117:14207   */\n      swap2\n      swap1\n      pop\n      jump\t// out\n        /* \"#utility.yul\":14213:14339   */\n    tag_299:\n        /* \"#utility.yul\":14250:14257   */\n      0x00\n        /* \"#utility.yul\":14290:14332   */\n      0xffffffffffffffffffffffffffffffffffffffff\n        /* \"#utility.yul\":14283:14288   */\n      dup3\n        /* \"#utility.yul\":14279:14333   */\n      and\n        /* \"#utility.yul\":14268:14333   */\n      swap1\n      pop\n        /* \"#utility.yul\":14213:14339   */\n      swap2\n      swap1\n      pop\n      jump\t// out\n        /* \"#utility.yul\":14345:14422   */\n    tag_237:\n        /* \"#utility.yul\":14382:14389   */\n      0x00\n        /* \"#utility.yul\":14411:14416   */\n      dup2\n        /* \"#utility.yul\":14400:14416   */\n      swap1\n      pop\n        /* \"#utility.yul\":14345:14422   */\n      swap2\n      swap1\n      pop\n      jump\t// out\n        /* \"#utility.yul\":14428:14521   */\n    tag_241:\n        /* \"#utility.yul\":14464:14471   */\n      0x00\n        /* \"#utility.yul\":14504:14514   */\n      0xffffffff\n        /* \"#utility.yul\":14497:14502   */\n      dup3\n        /* \"#utility.yul\":14493:14515   */\n      and\n        /* \"#utility.yul\":14482:14515   */\n      swap1\n      pop\n        /* \"#utility.yul\":14428:14521   */\n      swap2\n      swap1\n      pop\n      jump\t// out\n        /* \"#utility.yul\":14527:14667   */\n    tag_187:\n        /* \"#utility.yul\":14591:14600   */\n      0x00\n        /* \"#utility.yul\":14624:14661   */\n      tag_305\n        /* \"#utility.yul\":14655:14660   */\n      dup3\n        /* \"#utility.yul\":14624:14661   */\n      tag_306\n      jump\t// in\n    tag_305:\n        /* \"#utility.yul\":14611:14661   */\n      swap1\n      pop\n        /* \"#utility.yul\":14527:14667   */\n      swap2\n      swap1\n      pop\n      jump\t// out\n        /* \"#utility.yul\":14673:14799   */\n    tag_306:\n        /* \"#utility.yul\":14723:14732   */\n      0x00\n        /* \"#utility.yul\":14756:14793   */\n      tag_308\n        /* \"#utility.yul\":14787:14792   */\n      dup3\n        /* \"#utility.yul\":14756:14793   */\n      tag_309\n      jump\t// in\n    tag_308:\n        /* \"#utility.yul\":14743:14793   */\n      swap1\n      pop\n        /* \"#utility.yul\":14673:14799   */\n      swap2\n      swap1\n      pop\n      jump\t// out\n        /* \"#utility.yul\":14805:14918   */\n    tag_309:\n        /* \"#utility.yul\":14855:14864   */\n      0x00\n        /* \"#utility.yul\":14888:14912   */\n      tag_311\n        /* \"#utility.yul\":14906:14911   */\n      dup3\n        /* \"#utility.yul\":14888:14912   */\n      tag_299\n      jump\t// in\n    tag_311:\n        /* \"#utility.yul\":14875:14912   */\n      swap1\n      pop\n        /* \"#utility.yul\":14805:14918   */\n      swap2\n      swap1\n      pop\n      jump\t// out\n        /* \"#utility.yul\":14924:15104   */\n    tag_291:\n        /* \"#utility.yul\":14972:15049   */\n      0x4e487b7100000000000000000000000000000000000000000000000000000000\n        /* \"#utility.yul\":14969:14970   */\n      0x00\n        /* \"#utility.yul\":14962:15050   */\n      mstore\n        /* \"#utility.yul\":15069:15073   */\n      0x11\n        /* \"#utility.yul\":15066:15067   */\n      0x04\n        /* \"#utility.yul\":15059:15074   */\n      mstore\n        /* \"#utility.yul\":15093:15097   */\n      0x24\n        /* \"#utility.yul\":15090:15091   */\n      0x00\n        /* \"#utility.yul\":15083:15098   */\n      revert\n        /* \"#utility.yul\":15233:15350   */\n    tag_154:\n        /* \"#utility.yul\":15342:15343   */\n      0x00\n        /* \"#utility.yul\":15339:15340   */\n      dup1\n        /* \"#utility.yul\":15332:15344   */\n      revert\n        /* \"#utility.yul\":15356:15527   */\n    tag_193:\n        /* \"#utility.yul\":15496:15519   */\n      0x656e64206174203e206d6178206475726174696f6e0000000000000000000000\n        /* \"#utility.yul\":15492:15493   */\n      0x00\n        /* \"#utility.yul\":15484:15490   */\n      dup3\n        /* \"#utility.yul\":15480:15494   */\n      add\n        /* \"#utility.yul\":15473:15520   */\n      mstore\n        /* \"#utility.yul\":15356:15527   */\n      pop\n      jump\t// out\n        /* \"#utility.yul\":15533:15690   */\n    tag_198:\n        /* \"#utility.yul\":15673:15682   */\n      0x636c61696d656400000000000000000000000000000000000000000000000000\n        /* \"#utility.yul\":15669:15670   */\n      0x00\n        /* \"#utility.yul\":15661:15667   */\n      dup3\n        /* \"#utility.yul\":15657:15671   */\n      add\n        /* \"#utility.yul\":15650:15683   */\n      mstore\n        /* \"#utility.yul\":15533:15690   */\n      pop\n      jump\t// out\n        /* \"#utility.yul\":15696:15863   */\n    tag_203:\n        /* \"#utility.yul\":15836:15855   */\n      0x656e64206174203c207374617274206174000000000000000000000000000000\n        /* \"#utility.yul\":15832:15833   */\n      0x00\n        /* \"#utility.yul\":15824:15830   */\n      dup3\n        /* \"#utility.yul\":15820:15834   */\n      add\n        /* \"#utility.yul\":15813:15856   */\n      mstore\n        /* \"#utility.yul\":15696:15863   */\n      pop\n      jump\t// out\n        /* \"#utility.yul\":15869:16030   */\n    tag_208:\n        /* \"#utility.yul\":16009:16022   */\n      0x6e6f742063726561746f72000000000000000000000000000000000000000000\n        /* \"#utility.yul\":16005:16006   */\n      0x00\n        /* \"#utility.yul\":15997:16003   */\n      dup3\n        /* \"#utility.yul\":15993:16007   */\n      add\n        /* \"#utility.yul\":15986:16023   */\n      mstore\n        /* \"#utility.yul\":15869:16030   */\n      pop\n      jump\t// out\n        /* \"#utility.yul\":16036:16200   */\n    tag_213:\n        /* \"#utility.yul\":16176:16192   */\n      0x7374617274206174203c206e6f77000000000000000000000000000000000000\n        /* \"#utility.yul\":16172:16173   */\n      0x00\n        /* \"#utility.yul\":16164:16170   */\n      dup3\n        /* \"#utility.yul\":16160:16174   */\n      add\n        /* \"#utility.yul\":16153:16193   */\n      mstore\n        /* \"#utility.yul\":16036:16200   */\n      pop\n      jump\t// out\n        /* \"#utility.yul\":16206:16370   */\n    tag_218:\n        /* \"#utility.yul\":16346:16362   */\n      0x706c6564676564203c20676f616c000000000000000000000000000000000000\n        /* \"#utility.yul\":16342:16343   */\n      0x00\n        /* \"#utility.yul\":16334:16340   */\n      dup3\n        /* \"#utility.yul\":16330:16344   */\n      add\n        /* \"#utility.yul\":16323:16363   */\n      mstore\n        /* \"#utility.yul\":16206:16370   */\n      pop\n      jump\t// out\n        /* \"#utility.yul\":16376:16537   */\n    tag_223:\n        /* \"#utility.yul\":16516:16529   */\n      0x6e6f742073746172746564000000000000000000000000000000000000000000\n        /* \"#utility.yul\":16512:16513   */\n      0x00\n        /* \"#utility.yul\":16504:16510   */\n      dup3\n        /* \"#utility.yul\":16500:16514   */\n      add\n        /* \"#utility.yul\":16493:16530   */\n      mstore\n        /* \"#utility.yul\":16376:16537   */\n      pop\n      jump\t// out\n        /* \"#utility.yul\":16543:16698   */\n    tag_228:\n        /* \"#utility.yul\":16683:16690   */\n      0x656e646564000000000000000000000000000000000000000000000000000000\n        /* \"#utility.yul\":16679:16680   */\n      0x00\n        /* \"#utility.yul\":16671:16677   */\n      dup3\n        /* \"#utility.yul\":16667:16681   */\n      add\n        /* \"#utility.yul\":16660:16691   */\n      mstore\n        /* \"#utility.yul\":16543:16698   */\n      pop\n      jump\t// out\n        /* \"#utility.yul\":16704:16863   */\n    tag_233:\n        /* \"#utility.yul\":16844:16855   */\n      0x6e6f7420656e6465640000000000000000000000000000000000000000000000\n        /* \"#utility.yul\":16840:16841   */\n      0x00\n        /* \"#utility.yul\":16832:16838   */\n      dup3\n        /* \"#utility.yul\":16828:16842   */\n      add\n        /* \"#utility.yul\":16821:16856   */\n      mstore\n        /* \"#utility.yul\":16704:16863   */\n      pop\n      jump\t// out\n        /* \"#utility.yul\":16869:16991   */\n    tag_138:\n        /* \"#utility.yul\":16942:16966   */\n      tag_326\n        /* \"#utility.yul\":16960:16965   */\n      dup2\n        /* \"#utility.yul\":16942:16966   */\n      tag_179\n      jump\t// in\n    tag_326:\n        /* \"#utility.yul\":16935:16940   */\n      dup2\n        /* \"#utility.yul\":16932:16967   */\n      eq\n        /* \"#utility.yul\":16922:16985   */\n      tag_327\n      jumpi\n        /* \"#utility.yul\":16981:16982   */\n      0x00\n        /* \"#utility.yul\":16978:16979   */\n      dup1\n        /* \"#utility.yul\":16971:16983   */\n      revert\n        /* \"#utility.yul\":16922:16985   */\n    tag_327:\n        /* \"#utility.yul\":16869:16991   */\n      pop\n      jump\t// out\n        /* \"#utility.yul\":16997:17113   */\n    tag_142:\n        /* \"#utility.yul\":17067:17088   */\n      tag_329\n        /* \"#utility.yul\":17082:17087   */\n      dup2\n        /* \"#utility.yul\":17067:17088   */\n      tag_183\n      jump\t// in\n    tag_329:\n        /* \"#utility.yul\":17060:17065   */\n      dup2\n        /* \"#utility.yul\":17057:17089   */\n      eq\n        /* \"#utility.yul\":17047:17107   */\n      tag_330\n      jumpi\n        /* \"#utility.yul\":17103:17104   */\n      0x00\n        /* \"#utility.yul\":17100:17101   */\n      dup1\n        /* \"#utility.yul\":17093:17105   */\n      revert\n        /* \"#utility.yul\":17047:17107   */\n    tag_330:\n        /* \"#utility.yul\":16997:17113   */\n      pop\n      jump\t// out\n        /* \"#utility.yul\":17119:17241   */\n    tag_146:\n        /* \"#utility.yul\":17192:17216   */\n      tag_332\n        /* \"#utility.yul\":17210:17215   */\n      dup2\n        /* \"#utility.yul\":17192:17216   */\n      tag_237\n      jump\t// in\n    tag_332:\n        /* \"#utility.yul\":17185:17190   */\n      dup2\n        /* \"#utility.yul\":17182:17217   */\n      eq\n        /* \"#utility.yul\":17172:17235   */\n      tag_333\n      jumpi\n        /* \"#utility.yul\":17231:17232   */\n      0x00\n        /* \"#utility.yul\":17228:17229   */\n      dup1\n        /* \"#utility.yul\":17221:17233   */\n      revert\n        /* \"#utility.yul\":17172:17235   */\n    tag_333:\n        /* \"#utility.yul\":17119:17241   */\n      pop\n      jump\t// out\n        /* \"#utility.yul\":17247:17367   */\n    tag_150:\n        /* \"#utility.yul\":17319:17342   */\n      tag_335\n        /* \"#utility.yul\":17336:17341   */\n      dup2\n        /* \"#utility.yul\":17319:17342   */\n      tag_241\n      jump\t// in\n    tag_335:\n        /* \"#utility.yul\":17312:17317   */\n      dup2\n        /* \"#utility.yul\":17309:17343   */\n      eq\n        /* \"#utility.yul\":17299:17361   */\n      tag_336\n      jumpi\n        /* \"#utility.yul\":17357:17358   */\n      0x00\n        /* \"#utility.yul\":17354:17355   */\n      dup1\n        /* \"#utility.yul\":17347:17359   */\n      revert\n        /* \"#utility.yul\":17299:17361   */\n    tag_336:\n        /* \"#utility.yul\":17247:17367   */\n      pop\n      jump\t// out\n\n    auxdata: 0xa26469706673582212207504db0704c6983bf19e29d3487bfa6a330048403aa4c2f0c2de6293b8b7a31d64736f6c63430008070033\n}\n",
				"bytecode": {
					"linkReferences": {},
					"object": "60a06040523480156200001157600080fd5b5060405162001b4938038062001b4983398181016040528101906200003791906200008c565b8073ffffffffffffffffffffffffffffffffffffffff1660808173ffffffffffffffffffffffffffffffffffffffff1660601b815250505062000111565b6000815190506200008681620000f7565b92915050565b600060208284031215620000a557620000a4620000f2565b5b6000620000b58482850162000075565b91505092915050565b6000620000cb82620000d2565b9050919050565b600073ffffffffffffffffffffffffffffffffffffffff82169050919050565b600080fd5b6200010281620000be565b81146200010e57600080fd5b50565b60805160601c6119fd6200014c600039600081816103e50152818161093c01528181610d9a01528181610ec1015261103801526119fd6000f3fe608060405234801561001057600080fd5b506004361061009e5760003560e01c806340e58ee51161006657806340e58ee51461014a578063711853ab14610166578063aa4fb63a14610182578063fc0c546a146101b2578063fde327be146101d05761009e565b806306661abd146100a3578063141961bc146100c1578063278ecde1146100f65780632c63f14614610112578063379607f51461012e575b600080fd5b6100ab6101ec565b6040516100b8919061163d565b60405180910390f35b6100db60048036038101906100d691906111bb565b6101f2565b6040516100ed969594939291906114a1565b60405180910390f35b610110600480360381019061010b91906111bb565b61027b565b005b61012c60048036038101906101279190611268565b6104e5565b005b610148600480360381019061014391906111bb565b61077b565b005b610164600480360381019061015f91906111bb565b610a27565b005b610180600480360381019061017b9190611228565b610ca2565b005b61019c600480360381019061019791906111e8565b610e9a565b6040516101a9919061163d565b60405180910390f35b6101ba610ebf565b6040516101c79190611502565b60405180910390f35b6101ea60048036038101906101e59190611228565b610ee3565b005b60005481565b60016020528060005260406000206000915090508060000160009054906101000a900473ffffffffffffffffffffffffffffffffffffffff16908060010154908060020154908060030160009054906101000a900463ffffffff16908060030160049054906101000a900463ffffffff16908060030160089054906101000a900460ff16905086565b60006001600083815260200190815260200160002090508060030160049054906101000a900463ffffffff1663ffffffff1642116102ee576040517f08c379a00000000000000000000000000000000000000000000000000000000081526004016102e59061161d565b60405180910390fd5b8060010154816002015410610338576040517f08c379a000000000000000000000000000000000000000000000000000000000815260040161032f906115bd565b60405180910390fd5b60006002600084815260200190815260200160002060003373ffffffffffffffffffffffffffffffffffffffff1673ffffffffffffffffffffffffffffffffffffffff16815260200190815260200160002054905060006002600085815260200190815260200160002060003373ffffffffffffffffffffffffffffffffffffffff1673ffffffffffffffffffffffffffffffffffffffff168152602001908152602001600020819055507f000000000000000000000000000000000000000000000000000000000000000073ffffffffffffffffffffffffffffffffffffffff1663a9059cbb33836040518363ffffffff1660e01b815260040161043e929190611478565b602060405180830381600087803b15801561045857600080fd5b505af115801561046c573d6000803e3d6000fd5b505050506040513d601f19601f82011682018060405250810190610490919061118e565b503373ffffffffffffffffffffffffffffffffffffffff16837f21e12a7cad0da5928167e1084ea4d5fdf8d9af66657a2543a9ac76a0ca081477836040516104d8919061163d565b60405180910390a3505050565b428263ffffffff16101561052e576040517f08c379a00000000000000000000000000000000000000000000000000000000081526004016105259061159d565b60405180910390fd5b8163ffffffff168163ffffffff16101561057d576040517f08c379a00000000000000000000000000000000000000000000000000000000081526004016105749061155d565b60405180910390fd5b6276a7004261058c91906116ae565b8163ffffffff1611156105d4576040517f08c379a00000000000000000000000000000000000000000000000000000000081526004016105cb9061151d565b60405180910390fd5b60016000808282546105e691906116ae565b925050819055506040518060c001604052803373ffffffffffffffffffffffffffffffffffffffff168152602001848152602001600081526020018363ffffffff1681526020018263ffffffff16815260200160001515815250600160008054815260200190815260200160002060008201518160000160006101000a81548173ffffffffffffffffffffffffffffffffffffffff021916908373ffffffffffffffffffffffffffffffffffffffff160217905550602082015181600101556040820151816002015560608201518160030160006101000a81548163ffffffff021916908363ffffffff16021790555060808201518160030160046101000a81548163ffffffff021916908363ffffffff16021790555060a08201518160030160086101000a81548160ff0219169083151502179055509050503373ffffffffffffffffffffffffffffffffffffffff167f0601cd0d650b473037e838a2696d41e654433d065b3f56b28d1d3302e44a304f60005485858560405161076e9493929190611658565b60405180910390a2505050565b60006001600083815260200190815260200160002090508060000160009054906101000a900473ffffffffffffffffffffffffffffffffffffffff1673ffffffffffffffffffffffffffffffffffffffff163373ffffffffffffffffffffffffffffffffffffffff1614610824576040517f08c379a000000000000000000000000000000000000000000000000000000000815260040161081b9061157d565b60405180910390fd5b8060030160049054906101000a900463ffffffff1663ffffffff164211610880576040517f08c379a00000000000000000000000000000000000000000000000000000000081526004016108779061161d565b60405180910390fd5b8060010154816002015410156108cb576040517f08c379a00000000000000000000000000000000000000000000000000000000081526004016108c2906115bd565b60405180910390fd5b8060030160089054906101000a900460ff161561091d576040517f08c379a00000000000000000000000000000000000000000000000000000000081526004016109149061153d565b60405180910390fd5b60018160030160086101000a81548160ff0219169083151502179055507f000000000000000000000000000000000000000000000000000000000000000073ffffffffffffffffffffffffffffffffffffffff1663a9059cbb3383600201546040518363ffffffff1660e01b8152600401610999929190611478565b602060405180830381600087803b1580156109b357600080fd5b505af11580156109c7573d6000803e3d6000fd5b505050506040513d601f19601f820116820180604052508101906109eb919061118e565b507f7bb2b3c10797baccb6f8c4791f1edd6ca2f0d028ee0eda64b01a9a57e3a653f782604051610a1b919061163d565b60405180910390a15050565b6000600160008381526020019081526020016000206040518060c00160405290816000820160009054906101000a900473ffffffffffffffffffffffffffffffffffffffff1673ffffffffffffffffffffffffffffffffffffffff1673ffffffffffffffffffffffffffffffffffffffff16815260200160018201548152602001600282015481526020016003820160009054906101000a900463ffffffff1663ffffffff1663ffffffff1681526020016003820160049054906101000a900463ffffffff1663ffffffff1663ffffffff1681526020016003820160089054906101000a900460ff1615151515815250509050806000015173ffffffffffffffffffffffffffffffffffffffff163373ffffffffffffffffffffffffffffffffffffffff1614610b8c576040517f08c379a0000000000000000000000000000000000000000000000000000000008152600401610b839061157d565b60405180910390fd5b806060015163ffffffff164210610bd8576040517f08c379a0000000000000000000000000000000000000000000000000000000008152600401610bcf906115dd565b60405180910390fd5b60016000838152602001908152602001600020600080820160006101000a81549073ffffffffffffffffffffffffffffffffffffffff0219169055600182016000905560028201600090556003820160006101000a81549063ffffffff02191690556003820160046101000a81549063ffffffff02191690556003820160086101000a81549060ff021916905550507f8bf30e7ff26833413be5f69e1d373744864d600b664204b4a2f9844a8eedb9ed82604051610c96919061163d565b60405180910390a15050565b60006001600084815260200190815260200160002090508060030160049054906101000a900463ffffffff1663ffffffff16421115610d16576040517f08c379a0000000000000000000000000000000000000000000000000000000008152600401610d0d906115fd565b60405180910390fd5b81816002016000828254610d2a9190611704565b92505081905550816002600085815260200190815260200160002060003373ffffffffffffffffffffffffffffffffffffffff1673ffffffffffffffffffffffffffffffffffffffff1681526020019081526020016000206000828254610d919190611704565b925050819055507f000000000000000000000000000000000000000000000000000000000000000073ffffffffffffffffffffffffffffffffffffffff1663a9059cbb33846040518363ffffffff1660e01b8152600401610df3929190611478565b602060405180830381600087803b158015610e0d57600080fd5b505af1158015610e21573d6000803e3d6000fd5b505050506040513d601f19601f82011682018060405250810190610e45919061118e565b503373ffffffffffffffffffffffffffffffffffffffff16837f2eeeab891b26a214d1b25749f88a406bdea852bd8c9bfda977e0ef8114c180ba84604051610e8d919061163d565b60405180910390a3505050565b6002602052816000526040600020602052806000526040600020600091509150505481565b7f000000000000000000000000000000000000000000000000000000000000000081565b60006001600084815260200190815260200160002090508060030160009054906101000a900463ffffffff1663ffffffff16421015610f57576040517f08c379a0000000000000000000000000000000000000000000000000000000008152600401610f4e906115dd565b60405180910390fd5b8060030160049054906101000a900463ffffffff1663ffffffff16421115610fb4576040517f08c379a0000000000000000000000000000000000000000000000000000000008152600401610fab906115fd565b60405180910390fd5b81816002016000828254610fc891906116ae565b92505081905550816002600085815260200190815260200160002060003373ffffffffffffffffffffffffffffffffffffffff1673ffffffffffffffffffffffffffffffffffffffff168152602001908152602001600020600082825461102f91906116ae565b925050819055507f000000000000000000000000000000000000000000000000000000000000000073ffffffffffffffffffffffffffffffffffffffff166323b872dd3330856040518463ffffffff1660e01b815260040161109393929190611441565b602060405180830381600087803b1580156110ad57600080fd5b505af11580156110c1573d6000803e3d6000fd5b505050506040513d601f19601f820116820180604052508101906110e5919061118e565b503373ffffffffffffffffffffffffffffffffffffffff16837f06bdb975df800a73232998e71ed585d536222f1dfeaa622d7f62a23ada686c828460405161112d919061163d565b60405180910390a3505050565b6000813590506111498161196b565b92915050565b60008151905061115e81611982565b92915050565b60008135905061117381611999565b92915050565b600081359050611188816119b0565b92915050565b6000602082840312156111a4576111a36117f5565b5b60006111b28482850161114f565b91505092915050565b6000602082840312156111d1576111d06117f5565b5b60006111df84828501611164565b91505092915050565b600080604083850312156111ff576111fe6117f5565b5b600061120d85828601611164565b925050602061121e8582860161113a565b9150509250929050565b6000806040838503121561123f5761123e6117f5565b5b600061124d85828601611164565b925050602061125e85828601611164565b9150509250929050565b600080600060608486031215611281576112806117f5565b5b600061128f86828701611164565b93505060206112a086828701611179565b92505060406112b186828701611179565b9150509250925092565b6112c481611738565b82525050565b6112d38161174a565b82525050565b6112e281611790565b82525050565b60006112f560158361169d565b9150611300826117fa565b602082019050919050565b600061131860078361169d565b915061132382611823565b602082019050919050565b600061133b60118361169d565b91506113468261184c565b602082019050919050565b600061135e600b8361169d565b915061136982611875565b602082019050919050565b6000611381600e8361169d565b915061138c8261189e565b602082019050919050565b60006113a4600e8361169d565b91506113af826118c7565b602082019050919050565b60006113c7600b8361169d565b91506113d2826118f0565b602082019050919050565b60006113ea60058361169d565b91506113f582611919565b602082019050919050565b600061140d60098361169d565b915061141882611942565b602082019050919050565b61142c81611776565b82525050565b61143b81611780565b82525050565b600060608201905061145660008301866112bb565b61146360208301856112bb565b6114706040830184611423565b949350505050565b600060408201905061148d60008301856112bb565b61149a6020830184611423565b9392505050565b600060c0820190506114b660008301896112bb565b6114c36020830188611423565b6114d06040830187611423565b6114dd6060830186611432565b6114ea6080830185611432565b6114f760a08301846112ca565b979650505050505050565b600060208201905061151760008301846112d9565b92915050565b60006020820190508181036000830152611536816112e8565b9050919050565b600060208201905081810360008301526115568161130b565b9050919050565b600060208201905081810360008301526115768161132e565b9050919050565b6000602082019050818103600083015261159681611351565b9050919050565b600060208201905081810360008301526115b681611374565b9050919050565b600060208201905081810360008301526115d681611397565b9050919050565b600060208201905081810360008301526115f6816113ba565b9050919050565b60006020820190508181036000830152611616816113dd565b9050919050565b6000602082019050818103600083015261163681611400565b9050919050565b60006020820190506116526000830184611423565b92915050565b600060808201905061166d6000830187611423565b61167a6020830186611423565b6116876040830185611432565b6116946060830184611432565b95945050505050565b600082825260208201905092915050565b60006116b982611776565b91506116c483611776565b9250827fffffffffffffffffffffffffffffffffffffffffffffffffffffffffffffffff038211156116f9576116f86117c6565b5b828201905092915050565b600061170f82611776565b915061171a83611776565b92508282101561172d5761172c6117c6565b5b828203905092915050565b600061174382611756565b9050919050565b60008115159050919050565b600073ffffffffffffffffffffffffffffffffffffffff82169050919050565b6000819050919050565b600063ffffffff82169050919050565b600061179b826117a2565b9050919050565b60006117ad826117b4565b9050919050565b60006117bf82611756565b9050919050565b7f4e487b7100000000000000000000000000000000000000000000000000000000600052601160045260246000fd5b600080fd5b7f656e64206174203e206d6178206475726174696f6e0000000000000000000000600082015250565b7f636c61696d656400000000000000000000000000000000000000000000000000600082015250565b7f656e64206174203c207374617274206174000000000000000000000000000000600082015250565b7f6e6f742063726561746f72000000000000000000000000000000000000000000600082015250565b7f7374617274206174203c206e6f77000000000000000000000000000000000000600082015250565b7f706c6564676564203c20676f616c000000000000000000000000000000000000600082015250565b7f6e6f742073746172746564000000000000000000000000000000000000000000600082015250565b7f656e646564000000000000000000000000000000000000000000000000000000600082015250565b7f6e6f7420656e6465640000000000000000000000000000000000000000000000600082015250565b61197481611738565b811461197f57600080fd5b50565b61198b8161174a565b811461199657600080fd5b50565b6119a281611776565b81146119ad57600080fd5b50565b6119b981611780565b81146119c457600080fd5b5056fea26469706673582212207504db0704c6983bf19e29d3487bfa6a330048403aa4c2f0c2de6293b8b7a31d64736f6c63430008070033",
					"opcodes": "PUSH1 0xA0 PUSH1 0x40 MSTORE CALLVALUE DUP1 ISZERO PUSH3 0x11 JUMPI PUSH1 0x0 DUP1 REVERT JUMPDEST POP PUSH1 0x40 MLOAD PUSH3 0x1B49 CODESIZE SUB DUP1 PUSH3 0x1B49 DUP4 CODECOPY DUP2 DUP2 ADD PUSH1 0x40 MSTORE DUP2 ADD SWAP1 PUSH3 0x37 SWAP2 SWAP1 PUSH3 0x8C JUMP JUMPDEST DUP1 PUSH20 0xFFFFFFFFFFFFFFFFFFFFFFFFFFFFFFFFFFFFFFFF AND PUSH1 0x80 DUP2 PUSH20 0xFFFFFFFFFFFFFFFFFFFFFFFFFFFFFFFFFFFFFFFF AND PUSH1 0x60 SHL DUP2 MSTORE POP POP POP PUSH3 0x111 JUMP JUMPDEST PUSH1 0x0 DUP2 MLOAD SWAP1 POP PUSH3 0x86 DUP2 PUSH3 0xF7 JUMP JUMPDEST SWAP3 SWAP2 POP POP JUMP JUMPDEST PUSH1 0x0 PUSH1 0x20 DUP3 DUP5 SUB SLT ISZERO PUSH3 0xA5 JUMPI PUSH3 0xA4 PUSH3 0xF2 JUMP JUMPDEST JUMPDEST PUSH1 0x0 PUSH3 0xB5 DUP5 DUP3 DUP6 ADD PUSH3 0x75 JUMP JUMPDEST SWAP2 POP POP SWAP3 SWAP2 POP POP JUMP JUMPDEST PUSH1 0x0 PUSH3 0xCB DUP3 PUSH3 0xD2 JUMP JUMPDEST SWAP1 POP SWAP2 SWAP1 POP JUMP JUMPDEST PUSH1 0x0 PUSH20 0xFFFFFFFFFFFFFFFFFFFFFFFFFFFFFFFFFFFFFFFF DUP3 AND SWAP1 POP SWAP2 SWAP1 POP JUMP JUMPDEST PUSH1 0x0 DUP1 REVERT JUMPDEST PUSH3 0x102 DUP2 PUSH3 0xBE JUMP JUMPDEST DUP2 EQ PUSH3 0x10E JUMPI PUSH1 0x0 DUP1 REVERT JUMPDEST POP JUMP JUMPDEST PUSH1 0x80 MLOAD PUSH1 0x60 SHR PUSH2 0x19FD PUSH3 0x14C PUSH1 0x0 CODECOPY PUSH1 0x0 DUP2 DUP2 PUSH2 0x3E5 ADD MSTORE DUP2 DUP2 PUSH2 0x93C ADD MSTORE DUP2 DUP2 PUSH2 0xD9A ADD MSTORE DUP2 DUP2 PUSH2 0xEC1 ADD MSTORE PUSH2 0x1038 ADD MSTORE PUSH2 0x19FD PUSH1 0x0 RETURN INVALID PUSH1 0x80 PUSH1 0x40 MSTORE CALLVALUE DUP1 ISZERO PUSH2 0x10 JUMPI PUSH1 0x0 DUP1 REVERT JUMPDEST POP PUSH1 0x4 CALLDATASIZE LT PUSH2 0x9E JUMPI PUSH1 0x0 CALLDATALOAD PUSH1 0xE0 SHR DUP1 PUSH4 0x40E58EE5 GT PUSH2 0x66 JUMPI DUP1 PUSH4 0x40E58EE5 EQ PUSH2 0x14A JUMPI DUP1 PUSH4 0x711853AB EQ PUSH2 0x166 JUMPI DUP1 PUSH4 0xAA4FB63A EQ PUSH2 0x182 JUMPI DUP1 PUSH4 0xFC0C546A EQ PUSH2 0x1B2 JUMPI DUP1 PUSH4 0xFDE327BE EQ PUSH2 0x1D0 JUMPI PUSH2 0x9E JUMP JUMPDEST DUP1 PUSH4 0x6661ABD EQ PUSH2 0xA3 JUMPI DUP1 PUSH4 0x141961BC EQ PUSH2 0xC1 JUMPI DUP1 PUSH4 0x278ECDE1 EQ PUSH2 0xF6 JUMPI DUP1 PUSH4 0x2C63F146 EQ PUSH2 0x112 JUMPI DUP1 PUSH4 0x379607F5 EQ PUSH2 0x12E JUMPI JUMPDEST PUSH1 0x0 DUP1 REVERT JUMPDEST PUSH2 0xAB PUSH2 0x1EC JUMP JUMPDEST PUSH1 0x40 MLOAD PUSH2 0xB8 SWAP2 SWAP1 PUSH2 0x163D JUMP JUMPDEST PUSH1 0x40 MLOAD DUP1 SWAP2 SUB SWAP1 RETURN JUMPDEST PUSH2 0xDB PUSH1 0x4 DUP1 CALLDATASIZE SUB DUP2 ADD SWAP1 PUSH2 0xD6 SWAP2 SWAP1 PUSH2 0x11BB JUMP JUMPDEST PUSH2 0x1F2 JUMP JUMPDEST PUSH1 0x40 MLOAD PUSH2 0xED SWAP7 SWAP6 SWAP5 SWAP4 SWAP3 SWAP2 SWAP1 PUSH2 0x14A1 JUMP JUMPDEST PUSH1 0x40 MLOAD DUP1 SWAP2 SUB SWAP1 RETURN JUMPDEST PUSH2 0x110 PUSH1 0x4 DUP1 CALLDATASIZE SUB DUP2 ADD SWAP1 PUSH2 0x10B SWAP2 SWAP1 PUSH2 0x11BB JUMP JUMPDEST PUSH2 0x27B JUMP JUMPDEST STOP JUMPDEST PUSH2 0x12C PUSH1 0x4 DUP1 CALLDATASIZE SUB DUP2 ADD SWAP1 PUSH2 0x127 SWAP2 SWAP1 PUSH2 0x1268 JUMP JUMPDEST PUSH2 0x4E5 JUMP JUMPDEST STOP JUMPDEST PUSH2 0x148 PUSH1 0x4 DUP1 CALLDATASIZE SUB DUP2 ADD SWAP1 PUSH2 0x143 SWAP2 SWAP1 PUSH2 0x11BB JUMP JUMPDEST PUSH2 0x77B JUMP JUMPDEST STOP JUMPDEST PUSH2 0x164 PUSH1 0x4 DUP1 CALLDATASIZE SUB DUP2 ADD SWAP1 PUSH2 0x15F SWAP2 SWAP1 PUSH2 0x11BB JUMP JUMPDEST PUSH2 0xA27 JUMP JUMPDEST STOP JUMPDEST PUSH2 0x180 PUSH1 0x4 DUP1 CALLDATASIZE SUB DUP2 ADD SWAP1 PUSH2 0x17B SWAP2 SWAP1 PUSH2 0x1228 JUMP JUMPDEST PUSH2 0xCA2 JUMP JUMPDEST STOP JUMPDEST PUSH2 0x19C PUSH1 0x4 DUP1 CALLDATASIZE SUB DUP2 ADD SWAP1 PUSH2 0x197 SWAP2 SWAP1 PUSH2 0x11E8 JUMP JUMPDEST PUSH2 0xE9A JUMP JUMPDEST PUSH1 0x40 MLOAD PUSH2 0x1A9 SWAP2 SWAP1 PUSH2 0x163D JUMP JUMPDEST PUSH1 0x40 MLOAD DUP1 SWAP2 SUB SWAP1 RETURN JUMPDEST PUSH2 0x1BA PUSH2 0xEBF JUMP JUMPDEST PUSH1 0x40 MLOAD PUSH2 0x1C7 SWAP2 SWAP1 PUSH2 0x1502 JUMP JUMPDEST PUSH1 0x40 MLOAD DUP1 SWAP2 SUB SWAP1 RETURN JUMPDEST PUSH2 0x1EA PUSH1 0x4 DUP1 CALLDATASIZE SUB DUP2 ADD SWAP1 PUSH2 0x1E5 SWAP2 SWAP1 PUSH2 0x1228 JUMP JUMPDEST PUSH2 0xEE3 JUMP JUMPDEST STOP JUMPDEST PUSH1 0x0 SLOAD DUP2 JUMP JUMPDEST PUSH1 0x1 PUSH1 0x20 MSTORE DUP1 PUSH1 0x0 MSTORE PUSH1 0x40 PUSH1 0x0 KECCAK256 PUSH1 0x0 SWAP2 POP SWAP1 POP DUP1 PUSH1 0x0 ADD PUSH1 0x0 SWAP1 SLOAD SWAP1 PUSH2 0x100 EXP SWAP1 DIV PUSH20 0xFFFFFFFFFFFFFFFFFFFFFFFFFFFFFFFFFFFFFFFF AND SWAP1 DUP1 PUSH1 0x1 ADD SLOAD SWAP1 DUP1 PUSH1 0x2 ADD SLOAD SWAP1 DUP1 PUSH1 0x3 ADD PUSH1 0x0 SWAP1 SLOAD SWAP1 PUSH2 0x100 EXP SWAP1 DIV PUSH4 0xFFFFFFFF AND SWAP1 DUP1 PUSH1 0x3 ADD PUSH1 0x4 SWAP1 SLOAD SWAP1 PUSH2 0x100 EXP SWAP1 DIV PUSH4 0xFFFFFFFF AND SWAP1 DUP1 PUSH1 0x3 ADD PUSH1 0x8 SWAP1 SLOAD SWAP1 PUSH2 0x100 EXP SWAP1 DIV PUSH1 0xFF AND SWAP1 POP DUP7 JUMP JUMPDEST PUSH1 0x0 PUSH1 0x1 PUSH1 0x0 DUP4 DUP2 MSTORE PUSH1 0x20 ADD SWAP1 DUP2 MSTORE PUSH1 0x20 ADD PUSH1 0x0 KECCAK256 SWAP1 POP DUP1 PUSH1 0x3 ADD PUSH1 0x4 SWAP1 SLOAD SWAP1 PUSH2 0x100 EXP SWAP1 DIV PUSH4 0xFFFFFFFF AND PUSH4 0xFFFFFFFF AND TIMESTAMP GT PUSH2 0x2EE JUMPI PUSH1 0x40 MLOAD PUSH32 0x8C379A000000000000000000000000000000000000000000000000000000000 DUP2 MSTORE PUSH1 0x4 ADD PUSH2 0x2E5 SWAP1 PUSH2 0x161D JUMP JUMPDEST PUSH1 0x40 MLOAD DUP1 SWAP2 SUB SWAP1 REVERT JUMPDEST DUP1 PUSH1 0x1 ADD SLOAD DUP2 PUSH1 0x2 ADD SLOAD LT PUSH2 0x338 JUMPI PUSH1 0x40 MLOAD PUSH32 0x8C379A000000000000000000000000000000000000000000000000000000000 DUP2 MSTORE PUSH1 0x4 ADD PUSH2 0x32F SWAP1 PUSH2 0x15BD JUMP JUMPDEST PUSH1 0x40 MLOAD DUP1 SWAP2 SUB SWAP1 REVERT JUMPDEST PUSH1 0x0 PUSH1 0x2 PUSH1 0x0 DUP5 DUP2 MSTORE PUSH1 0x20 ADD SWAP1 DUP2 MSTORE PUSH1 0x20 ADD PUSH1 0x0 KECCAK256 PUSH1 0x0 CALLER PUSH20 0xFFFFFFFFFFFFFFFFFFFFFFFFFFFFFFFFFFFFFFFF AND PUSH20 0xFFFFFFFFFFFFFFFFFFFFFFFFFFFFFFFFFFFFFFFF AND DUP2 MSTORE PUSH1 0x20 ADD SWAP1 DUP2 MSTORE PUSH1 0x20 ADD PUSH1 0x0 KECCAK256 SLOAD SWAP1 POP PUSH1 0x0 PUSH1 0x2 PUSH1 0x0 DUP6 DUP2 MSTORE PUSH1 0x20 ADD SWAP1 DUP2 MSTORE PUSH1 0x20 ADD PUSH1 0x0 KECCAK256 PUSH1 0x0 CALLER PUSH20 0xFFFFFFFFFFFFFFFFFFFFFFFFFFFFFFFFFFFFFFFF AND PUSH20 0xFFFFFFFFFFFFFFFFFFFFFFFFFFFFFFFFFFFFFFFF AND DUP2 MSTORE PUSH1 0x20 ADD SWAP1 DUP2 MSTORE PUSH1 0x20 ADD PUSH1 0x0 KECCAK256 DUP2 SWAP1 SSTORE POP PUSH32 0x0 PUSH20 0xFFFFFFFFFFFFFFFFFFFFFFFFFFFFFFFFFFFFFFFF AND PUSH4 0xA9059CBB CALLER DUP4 PUSH1 0x40 MLOAD DUP4 PUSH4 0xFFFFFFFF AND PUSH1 0xE0 SHL DUP2 MSTORE PUSH1 0x4 ADD PUSH2 0x43E SWAP3 SWAP2 SWAP1 PUSH2 0x1478 JUMP JUMPDEST PUSH1 0x20 PUSH1 0x40 MLOAD DUP1 DUP4 SUB DUP2 PUSH1 0x0 DUP8 DUP1 EXTCODESIZE ISZERO DUP1 ISZERO PUSH2 0x458 JUMPI PUSH1 0x0 DUP1 REVERT JUMPDEST POP GAS CALL ISZERO DUP1 ISZERO PUSH2 0x46C JUMPI RETURNDATASIZE PUSH1 0x0 DUP1 RETURNDATACOPY RETURNDATASIZE PUSH1 0x0 REVERT JUMPDEST POP POP POP POP PUSH1 0x40 MLOAD RETURNDATASIZE PUSH1 0x1F NOT PUSH1 0x1F DUP3 ADD AND DUP3 ADD DUP1 PUSH1 0x40 MSTORE POP DUP2 ADD SWAP1 PUSH2 0x490 SWAP2 SWAP1 PUSH2 0x118E JUMP JUMPDEST POP CALLER PUSH20 0xFFFFFFFFFFFFFFFFFFFFFFFFFFFFFFFFFFFFFFFF AND DUP4 PUSH32 0x21E12A7CAD0DA5928167E1084EA4D5FDF8D9AF66657A2543A9AC76A0CA081477 DUP4 PUSH1 0x40 MLOAD PUSH2 0x4D8 SWAP2 SWAP1 PUSH2 0x163D JUMP JUMPDEST PUSH1 0x40 MLOAD DUP1 SWAP2 SUB SWAP1 LOG3 POP POP POP JUMP JUMPDEST TIMESTAMP DUP3 PUSH4 0xFFFFFFFF AND LT ISZERO PUSH2 0x52E JUMPI PUSH1 0x40 MLOAD PUSH32 0x8C379A000000000000000000000000000000000000000000000000000000000 DUP2 MSTORE PUSH1 0x4 ADD PUSH2 0x525 SWAP1 PUSH2 0x159D JUMP JUMPDEST PUSH1 0x40 MLOAD DUP1 SWAP2 SUB SWAP1 REVERT JUMPDEST DUP2 PUSH4 0xFFFFFFFF AND DUP2 PUSH4 0xFFFFFFFF AND LT ISZERO PUSH2 0x57D JUMPI PUSH1 0x40 MLOAD PUSH32 0x8C379A000000000000000000000000000000000000000000000000000000000 DUP2 MSTORE PUSH1 0x4 ADD PUSH2 0x574 SWAP1 PUSH2 0x155D JUMP JUMPDEST PUSH1 0x40 MLOAD DUP1 SWAP2 SUB SWAP1 REVERT JUMPDEST PUSH3 0x76A700 TIMESTAMP PUSH2 0x58C SWAP2 SWAP1 PUSH2 0x16AE JUMP JUMPDEST DUP2 PUSH4 0xFFFFFFFF AND GT ISZERO PUSH2 0x5D4 JUMPI PUSH1 0x40 MLOAD PUSH32 0x8C379A000000000000000000000000000000000000000000000000000000000 DUP2 MSTORE PUSH1 0x4 ADD PUSH2 0x5CB SWAP1 PUSH2 0x151D JUMP JUMPDEST PUSH1 0x40 MLOAD DUP1 SWAP2 SUB SWAP1 REVERT JUMPDEST PUSH1 0x1 PUSH1 0x0 DUP1 DUP3 DUP3 SLOAD PUSH2 0x5E6 SWAP2 SWAP1 PUSH2 0x16AE JUMP JUMPDEST SWAP3 POP POP DUP2 SWAP1 SSTORE POP PUSH1 0x40 MLOAD DUP1 PUSH1 0xC0 ADD PUSH1 0x40 MSTORE DUP1 CALLER PUSH20 0xFFFFFFFFFFFFFFFFFFFFFFFFFFFFFFFFFFFFFFFF AND DUP2 MSTORE PUSH1 0x20 ADD DUP5 DUP2 MSTORE PUSH1 0x20 ADD PUSH1 0x0 DUP2 MSTORE PUSH1 0x20 ADD DUP4 PUSH4 0xFFFFFFFF AND DUP2 MSTORE PUSH1 0x20 ADD DUP3 PUSH4 0xFFFFFFFF AND DUP2 MSTORE PUSH1 0x20 ADD PUSH1 0x0 ISZERO ISZERO DUP2 MSTORE POP PUSH1 0x1 PUSH1 0x0 DUP1 SLOAD DUP2 MSTORE PUSH1 0x20 ADD SWAP1 DUP2 MSTORE PUSH1 0x20 ADD PUSH1 0x0 KECCAK256 PUSH1 0x0 DUP3 ADD MLOAD DUP2 PUSH1 0x0 ADD PUSH1 0x0 PUSH2 0x100 EXP DUP2 SLOAD DUP2 PUSH20 0xFFFFFFFFFFFFFFFFFFFFFFFFFFFFFFFFFFFFFFFF MUL NOT AND SWAP1 DUP4 PUSH20 0xFFFFFFFFFFFFFFFFFFFFFFFFFFFFFFFFFFFFFFFF AND MUL OR SWAP1 SSTORE POP PUSH1 0x20 DUP3 ADD MLOAD DUP2 PUSH1 0x1 ADD SSTORE PUSH1 0x40 DUP3 ADD MLOAD DUP2 PUSH1 0x2 ADD SSTORE PUSH1 0x60 DUP3 ADD MLOAD DUP2 PUSH1 0x3 ADD PUSH1 0x0 PUSH2 0x100 EXP DUP2 SLOAD DUP2 PUSH4 0xFFFFFFFF MUL NOT AND SWAP1 DUP4 PUSH4 0xFFFFFFFF AND MUL OR SWAP1 SSTORE POP PUSH1 0x80 DUP3 ADD MLOAD DUP2 PUSH1 0x3 ADD PUSH1 0x4 PUSH2 0x100 EXP DUP2 SLOAD DUP2 PUSH4 0xFFFFFFFF MUL NOT AND SWAP1 DUP4 PUSH4 0xFFFFFFFF AND MUL OR SWAP1 SSTORE POP PUSH1 0xA0 DUP3 ADD MLOAD DUP2 PUSH1 0x3 ADD PUSH1 0x8 PUSH2 0x100 EXP DUP2 SLOAD DUP2 PUSH1 0xFF MUL NOT AND SWAP1 DUP4 ISZERO ISZERO MUL OR SWAP1 SSTORE POP SWAP1 POP POP CALLER PUSH20 0xFFFFFFFFFFFFFFFFFFFFFFFFFFFFFFFFFFFFFFFF AND PUSH32 0x601CD0D650B473037E838A2696D41E654433D065B3F56B28D1D3302E44A304F PUSH1 0x0 SLOAD DUP6 DUP6 DUP6 PUSH1 0x40 MLOAD PUSH2 0x76E SWAP5 SWAP4 SWAP3 SWAP2 SWAP1 PUSH2 0x1658 JUMP JUMPDEST PUSH1 0x40 MLOAD DUP1 SWAP2 SUB SWAP1 LOG2 POP POP POP JUMP JUMPDEST PUSH1 0x0 PUSH1 0x1 PUSH1 0x0 DUP4 DUP2 MSTORE PUSH1 0x20 ADD SWAP1 DUP2 MSTORE PUSH1 0x20 ADD PUSH1 0x0 KECCAK256 SWAP1 POP DUP1 PUSH1 0x0 ADD PUSH1 0x0 SWAP1 SLOAD SWAP1 PUSH2 0x100 EXP SWAP1 DIV PUSH20 0xFFFFFFFFFFFFFFFFFFFFFFFFFFFFFFFFFFFFFFFF AND PUSH20 0xFFFFFFFFFFFFFFFFFFFFFFFFFFFFFFFFFFFFFFFF AND CALLER PUSH20 0xFFFFFFFFFFFFFFFFFFFFFFFFFFFFFFFFFFFFFFFF AND EQ PUSH2 0x824 JUMPI PUSH1 0x40 MLOAD PUSH32 0x8C379A000000000000000000000000000000000000000000000000000000000 DUP2 MSTORE PUSH1 0x4 ADD PUSH2 0x81B SWAP1 PUSH2 0x157D JUMP JUMPDEST PUSH1 0x40 MLOAD DUP1 SWAP2 SUB SWAP1 REVERT JUMPDEST DUP1 PUSH1 0x3 ADD PUSH1 0x4 SWAP1 SLOAD SWAP1 PUSH2 0x100 EXP SWAP1 DIV PUSH4 0xFFFFFFFF AND PUSH4 0xFFFFFFFF AND TIMESTAMP GT PUSH2 0x880 JUMPI PUSH1 0x40 MLOAD PUSH32 0x8C379A000000000000000000000000000000000000000000000000000000000 DUP2 MSTORE PUSH1 0x4 ADD PUSH2 0x877 SWAP1 PUSH2 0x161D JUMP JUMPDEST PUSH1 0x40 MLOAD DUP1 SWAP2 SUB SWAP1 REVERT JUMPDEST DUP1 PUSH1 0x1 ADD SLOAD DUP2 PUSH1 0x2 ADD SLOAD LT ISZERO PUSH2 0x8CB JUMPI PUSH1 0x40 MLOAD PUSH32 0x8C379A000000000000000000000000000000000000000000000000000000000 DUP2 MSTORE PUSH1 0x4 ADD PUSH2 0x8C2 SWAP1 PUSH2 0x15BD JUMP JUMPDEST PUSH1 0x40 MLOAD DUP1 SWAP2 SUB SWAP1 REVERT JUMPDEST DUP1 PUSH1 0x3 ADD PUSH1 0x8 SWAP1 SLOAD SWAP1 PUSH2 0x100 EXP SWAP1 DIV PUSH1 0xFF AND ISZERO PUSH2 0x91D JUMPI PUSH1 0x40 MLOAD PUSH32 0x8C379A000000000000000000000000000000000000000000000000000000000 DUP2 MSTORE PUSH1 0x4 ADD PUSH2 0x914 SWAP1 PUSH2 0x153D JUMP JUMPDEST PUSH1 0x40 MLOAD DUP1 SWAP2 SUB SWAP1 REVERT JUMPDEST PUSH1 0x1 DUP2 PUSH1 0x3 ADD PUSH1 0x8 PUSH2 0x100 EXP DUP2 SLOAD DUP2 PUSH1 0xFF MUL NOT AND SWAP1 DUP4 ISZERO ISZERO MUL OR SWAP1 SSTORE POP PUSH32 0x0 PUSH20 0xFFFFFFFFFFFFFFFFFFFFFFFFFFFFFFFFFFFFFFFF AND PUSH4 0xA9059CBB CALLER DUP4 PUSH1 0x2 ADD SLOAD PUSH1 0x40 MLOAD DUP4 PUSH4 0xFFFFFFFF AND PUSH1 0xE0 SHL DUP2 MSTORE PUSH1 0x4 ADD PUSH2 0x999 SWAP3 SWAP2 SWAP1 PUSH2 0x1478 JUMP JUMPDEST PUSH1 0x20 PUSH1 0x40 MLOAD DUP1 DUP4 SUB DUP2 PUSH1 0x0 DUP8 DUP1 EXTCODESIZE ISZERO DUP1 ISZERO PUSH2 0x9B3 JUMPI PUSH1 0x0 DUP1 REVERT JUMPDEST POP GAS CALL ISZERO DUP1 ISZERO PUSH2 0x9C7 JUMPI RETURNDATASIZE PUSH1 0x0 DUP1 RETURNDATACOPY RETURNDATASIZE PUSH1 0x0 REVERT JUMPDEST POP POP POP POP PUSH1 0x40 MLOAD RETURNDATASIZE PUSH1 0x1F NOT PUSH1 0x1F DUP3 ADD AND DUP3 ADD DUP1 PUSH1 0x40 MSTORE POP DUP2 ADD SWAP1 PUSH2 0x9EB SWAP2 SWAP1 PUSH2 0x118E JUMP JUMPDEST POP PUSH32 0x7BB2B3C10797BACCB6F8C4791F1EDD6CA2F0D028EE0EDA64B01A9A57E3A653F7 DUP3 PUSH1 0x40 MLOAD PUSH2 0xA1B SWAP2 SWAP1 PUSH2 0x163D JUMP JUMPDEST PUSH1 0x40 MLOAD DUP1 SWAP2 SUB SWAP1 LOG1 POP POP JUMP JUMPDEST PUSH1 0x0 PUSH1 0x1 PUSH1 0x0 DUP4 DUP2 MSTORE PUSH1 0x20 ADD SWAP1 DUP2 MSTORE PUSH1 0x20 ADD PUSH1 0x0 KECCAK256 PUSH1 0x40 MLOAD DUP1 PUSH1 0xC0 ADD PUSH1 0x40 MSTORE SWAP1 DUP2 PUSH1 0x0 DUP3 ADD PUSH1 0x0 SWAP1 SLOAD SWAP1 PUSH2 0x100 EXP SWAP1 DIV PUSH20 0xFFFFFFFFFFFFFFFFFFFFFFFFFFFFFFFFFFFFFFFF AND PUSH20 0xFFFFFFFFFFFFFFFFFFFFFFFFFFFFFFFFFFFFFFFF AND PUSH20 0xFFFFFFFFFFFFFFFFFFFFFFFFFFFFFFFFFFFFFFFF AND DUP2 MSTORE PUSH1 0x20 ADD PUSH1 0x1 DUP3 ADD SLOAD DUP2 MSTORE PUSH1 0x20 ADD PUSH1 0x2 DUP3 ADD SLOAD DUP2 MSTORE PUSH1 0x20 ADD PUSH1 0x3 DUP3 ADD PUSH1 0x0 SWAP1 SLOAD SWAP1 PUSH2 0x100 EXP SWAP1 DIV PUSH4 0xFFFFFFFF AND PUSH4 0xFFFFFFFF AND PUSH4 0xFFFFFFFF AND DUP2 MSTORE PUSH1 0x20 ADD PUSH1 0x3 DUP3 ADD PUSH1 0x4 SWAP1 SLOAD SWAP1 PUSH2 0x100 EXP SWAP1 DIV PUSH4 0xFFFFFFFF AND PUSH4 0xFFFFFFFF AND PUSH4 0xFFFFFFFF AND DUP2 MSTORE PUSH1 0x20 ADD PUSH1 0x3 DUP3 ADD PUSH1 0x8 SWAP1 SLOAD SWAP1 PUSH2 0x100 EXP SWAP1 DIV PUSH1 0xFF AND ISZERO ISZERO ISZERO ISZERO DUP2 MSTORE POP POP SWAP1 POP DUP1 PUSH1 0x0 ADD MLOAD PUSH20 0xFFFFFFFFFFFFFFFFFFFFFFFFFFFFFFFFFFFFFFFF AND CALLER PUSH20 0xFFFFFFFFFFFFFFFFFFFFFFFFFFFFFFFFFFFFFFFF AND EQ PUSH2 0xB8C JUMPI PUSH1 0x40 MLOAD PUSH32 0x8C379A000000000000000000000000000000000000000000000000000000000 DUP2 MSTORE PUSH1 0x4 ADD PUSH2 0xB83 SWAP1 PUSH2 0x157D JUMP JUMPDEST PUSH1 0x40 MLOAD DUP1 SWAP2 SUB SWAP1 REVERT JUMPDEST DUP1 PUSH1 0x60 ADD MLOAD PUSH4 0xFFFFFFFF AND TIMESTAMP LT PUSH2 0xBD8 JUMPI PUSH1 0x40 MLOAD PUSH32 0x8C379A000000000000000000000000000000000000000000000000000000000 DUP2 MSTORE PUSH1 0x4 ADD PUSH2 0xBCF SWAP1 PUSH2 0x15DD JUMP JUMPDEST PUSH1 0x40 MLOAD DUP1 SWAP2 SUB SWAP1 REVERT JUMPDEST PUSH1 0x1 PUSH1 0x0 DUP4 DUP2 MSTORE PUSH1 0x20 ADD SWAP1 DUP2 MSTORE PUSH1 0x20 ADD PUSH1 0x0 KECCAK256 PUSH1 0x0 DUP1 DUP3 ADD PUSH1 0x0 PUSH2 0x100 EXP DUP2 SLOAD SWAP1 PUSH20 0xFFFFFFFFFFFFFFFFFFFFFFFFFFFFFFFFFFFFFFFF MUL NOT AND SWAP1 SSTORE PUSH1 0x1 DUP3 ADD PUSH1 0x0 SWAP1 SSTORE PUSH1 0x2 DUP3 ADD PUSH1 0x0 SWAP1 SSTORE PUSH1 0x3 DUP3 ADD PUSH1 0x0 PUSH2 0x100 EXP DUP2 SLOAD SWAP1 PUSH4 0xFFFFFFFF MUL NOT AND SWAP1 SSTORE PUSH1 0x3 DUP3 ADD PUSH1 0x4 PUSH2 0x100 EXP DUP2 SLOAD SWAP1 PUSH4 0xFFFFFFFF MUL NOT AND SWAP1 SSTORE PUSH1 0x3 DUP3 ADD PUSH1 0x8 PUSH2 0x100 EXP DUP2 SLOAD SWAP1 PUSH1 0xFF MUL NOT AND SWAP1 SSTORE POP POP PUSH32 0x8BF30E7FF26833413BE5F69E1D373744864D600B664204B4A2F9844A8EEDB9ED DUP3 PUSH1 0x40 MLOAD PUSH2 0xC96 SWAP2 SWAP1 PUSH2 0x163D JUMP JUMPDEST PUSH1 0x40 MLOAD DUP1 SWAP2 SUB SWAP1 LOG1 POP POP JUMP JUMPDEST PUSH1 0x0 PUSH1 0x1 PUSH1 0x0 DUP5 DUP2 MSTORE PUSH1 0x20 ADD SWAP1 DUP2 MSTORE PUSH1 0x20 ADD PUSH1 0x0 KECCAK256 SWAP1 POP DUP1 PUSH1 0x3 ADD PUSH1 0x4 SWAP1 SLOAD SWAP1 PUSH2 0x100 EXP SWAP1 DIV PUSH4 0xFFFFFFFF AND PUSH4 0xFFFFFFFF AND TIMESTAMP GT ISZERO PUSH2 0xD16 JUMPI PUSH1 0x40 MLOAD PUSH32 0x8C379A000000000000000000000000000000000000000000000000000000000 DUP2 MSTORE PUSH1 0x4 ADD PUSH2 0xD0D SWAP1 PUSH2 0x15FD JUMP JUMPDEST PUSH1 0x40 MLOAD DUP1 SWAP2 SUB SWAP1 REVERT JUMPDEST DUP2 DUP2 PUSH1 0x2 ADD PUSH1 0x0 DUP3 DUP3 SLOAD PUSH2 0xD2A SWAP2 SWAP1 PUSH2 0x1704 JUMP JUMPDEST SWAP3 POP POP DUP2 SWAP1 SSTORE POP DUP2 PUSH1 0x2 PUSH1 0x0 DUP6 DUP2 MSTORE PUSH1 0x20 ADD SWAP1 DUP2 MSTORE PUSH1 0x20 ADD PUSH1 0x0 KECCAK256 PUSH1 0x0 CALLER PUSH20 0xFFFFFFFFFFFFFFFFFFFFFFFFFFFFFFFFFFFFFFFF AND PUSH20 0xFFFFFFFFFFFFFFFFFFFFFFFFFFFFFFFFFFFFFFFF AND DUP2 MSTORE PUSH1 0x20 ADD SWAP1 DUP2 MSTORE PUSH1 0x20 ADD PUSH1 0x0 KECCAK256 PUSH1 0x0 DUP3 DUP3 SLOAD PUSH2 0xD91 SWAP2 SWAP1 PUSH2 0x1704 JUMP JUMPDEST SWAP3 POP POP DUP2 SWAP1 SSTORE POP PUSH32 0x0 PUSH20 0xFFFFFFFFFFFFFFFFFFFFFFFFFFFFFFFFFFFFFFFF AND PUSH4 0xA9059CBB CALLER DUP5 PUSH1 0x40 MLOAD DUP4 PUSH4 0xFFFFFFFF AND PUSH1 0xE0 SHL DUP2 MSTORE PUSH1 0x4 ADD PUSH2 0xDF3 SWAP3 SWAP2 SWAP1 PUSH2 0x1478 JUMP JUMPDEST PUSH1 0x20 PUSH1 0x40 MLOAD DUP1 DUP4 SUB DUP2 PUSH1 0x0 DUP8 DUP1 EXTCODESIZE ISZERO DUP1 ISZERO PUSH2 0xE0D JUMPI PUSH1 0x0 DUP1 REVERT JUMPDEST POP GAS CALL ISZERO DUP1 ISZERO PUSH2 0xE21 JUMPI RETURNDATASIZE PUSH1 0x0 DUP1 RETURNDATACOPY RETURNDATASIZE PUSH1 0x0 REVERT JUMPDEST POP POP POP POP PUSH1 0x40 MLOAD RETURNDATASIZE PUSH1 0x1F NOT PUSH1 0x1F DUP3 ADD AND DUP3 ADD DUP1 PUSH1 0x40 MSTORE POP DUP2 ADD SWAP1 PUSH2 0xE45 SWAP2 SWAP1 PUSH2 0x118E JUMP JUMPDEST POP CALLER PUSH20 0xFFFFFFFFFFFFFFFFFFFFFFFFFFFFFFFFFFFFFFFF AND DUP4 PUSH32 0x2EEEAB891B26A214D1B25749F88A406BDEA852BD8C9BFDA977E0EF8114C180BA DUP5 PUSH1 0x40 MLOAD PUSH2 0xE8D SWAP2 SWAP1 PUSH2 0x163D JUMP JUMPDEST PUSH1 0x40 MLOAD DUP1 SWAP2 SUB SWAP1 LOG3 POP POP POP JUMP JUMPDEST PUSH1 0x2 PUSH1 0x20 MSTORE DUP2 PUSH1 0x0 MSTORE PUSH1 0x40 PUSH1 0x0 KECCAK256 PUSH1 0x20 MSTORE DUP1 PUSH1 0x0 MSTORE PUSH1 0x40 PUSH1 0x0 KECCAK256 PUSH1 0x0 SWAP2 POP SWAP2 POP POP SLOAD DUP2 JUMP JUMPDEST PUSH32 0x0 DUP2 JUMP JUMPDEST PUSH1 0x0 PUSH1 0x1 PUSH1 0x0 DUP5 DUP2 MSTORE PUSH1 0x20 ADD SWAP1 DUP2 MSTORE PUSH1 0x20 ADD PUSH1 0x0 KECCAK256 SWAP1 POP DUP1 PUSH1 0x3 ADD PUSH1 0x0 SWAP1 SLOAD SWAP1 PUSH2 0x100 EXP SWAP1 DIV PUSH4 0xFFFFFFFF AND PUSH4 0xFFFFFFFF AND TIMESTAMP LT ISZERO PUSH2 0xF57 JUMPI PUSH1 0x40 MLOAD PUSH32 0x8C379A000000000000000000000000000000000000000000000000000000000 DUP2 MSTORE PUSH1 0x4 ADD PUSH2 0xF4E SWAP1 PUSH2 0x15DD JUMP JUMPDEST PUSH1 0x40 MLOAD DUP1 SWAP2 SUB SWAP1 REVERT JUMPDEST DUP1 PUSH1 0x3 ADD PUSH1 0x4 SWAP1 SLOAD SWAP1 PUSH2 0x100 EXP SWAP1 DIV PUSH4 0xFFFFFFFF AND PUSH4 0xFFFFFFFF AND TIMESTAMP GT ISZERO PUSH2 0xFB4 JUMPI PUSH1 0x40 MLOAD PUSH32 0x8C379A000000000000000000000000000000000000000000000000000000000 DUP2 MSTORE PUSH1 0x4 ADD PUSH2 0xFAB SWAP1 PUSH2 0x15FD JUMP JUMPDEST PUSH1 0x40 MLOAD DUP1 SWAP2 SUB SWAP1 REVERT JUMPDEST DUP2 DUP2 PUSH1 0x2 ADD PUSH1 0x0 DUP3 DUP3 SLOAD PUSH2 0xFC8 SWAP2 SWAP1 PUSH2 0x16AE JUMP JUMPDEST SWAP3 POP POP DUP2 SWAP1 SSTORE POP DUP2 PUSH1 0x2 PUSH1 0x0 DUP6 DUP2 MSTORE PUSH1 0x20 ADD SWAP1 DUP2 MSTORE PUSH1 0x20 ADD PUSH1 0x0 KECCAK256 PUSH1 0x0 CALLER PUSH20 0xFFFFFFFFFFFFFFFFFFFFFFFFFFFFFFFFFFFFFFFF AND PUSH20 0xFFFFFFFFFFFFFFFFFFFFFFFFFFFFFFFFFFFFFFFF AND DUP2 MSTORE PUSH1 0x20 ADD SWAP1 DUP2 MSTORE PUSH1 0x20 ADD PUSH1 0x0 KECCAK256 PUSH1 0x0 DUP3 DUP3 SLOAD PUSH2 0x102F SWAP2 SWAP1 PUSH2 0x16AE JUMP JUMPDEST SWAP3 POP POP DUP2 SWAP1 SSTORE POP PUSH32 0x0 PUSH20 0xFFFFFFFFFFFFFFFFFFFFFFFFFFFFFFFFFFFFFFFF AND PUSH4 0x23B872DD CALLER ADDRESS DUP6 PUSH1 0x40 MLOAD DUP5 PUSH4 0xFFFFFFFF AND PUSH1 0xE0 SHL DUP2 MSTORE PUSH1 0x4 ADD PUSH2 0x1093 SWAP4 SWAP3 SWAP2 SWAP1 PUSH2 0x1441 JUMP JUMPDEST PUSH1 0x20 PUSH1 0x40 MLOAD DUP1 DUP4 SUB DUP2 PUSH1 0x0 DUP8 DUP1 EXTCODESIZE ISZERO DUP1 ISZERO PUSH2 0x10AD JUMPI PUSH1 0x0 DUP1 REVERT JUMPDEST POP GAS CALL ISZERO DUP1 ISZERO PUSH2 0x10C1 JUMPI RETURNDATASIZE PUSH1 0x0 DUP1 RETURNDATACOPY RETURNDATASIZE PUSH1 0x0 REVERT JUMPDEST POP POP POP POP PUSH1 0x40 MLOAD RETURNDATASIZE PUSH1 0x1F NOT PUSH1 0x1F DUP3 ADD AND DUP3 ADD DUP1 PUSH1 0x40 MSTORE POP DUP2 ADD SWAP1 PUSH2 0x10E5 SWAP2 SWAP1 PUSH2 0x118E JUMP JUMPDEST POP CALLER PUSH20 0xFFFFFFFFFFFFFFFFFFFFFFFFFFFFFFFFFFFFFFFF AND DUP4 PUSH32 0x6BDB975DF800A73232998E71ED585D536222F1DFEAA622D7F62A23ADA686C82 DUP5 PUSH1 0x40 MLOAD PUSH2 0x112D SWAP2 SWAP1 PUSH2 0x163D JUMP JUMPDEST PUSH1 0x40 MLOAD DUP1 SWAP2 SUB SWAP1 LOG3 POP POP POP JUMP JUMPDEST PUSH1 0x0 DUP2 CALLDATALOAD SWAP1 POP PUSH2 0x1149 DUP2 PUSH2 0x196B JUMP JUMPDEST SWAP3 SWAP2 POP POP JUMP JUMPDEST PUSH1 0x0 DUP2 MLOAD SWAP1 POP PUSH2 0x115E DUP2 PUSH2 0x1982 JUMP JUMPDEST SWAP3 SWAP2 POP POP JUMP JUMPDEST PUSH1 0x0 DUP2 CALLDATALOAD SWAP1 POP PUSH2 0x1173 DUP2 PUSH2 0x1999 JUMP JUMPDEST SWAP3 SWAP2 POP POP JUMP JUMPDEST PUSH1 0x0 DUP2 CALLDATALOAD SWAP1 POP PUSH2 0x1188 DUP2 PUSH2 0x19B0 JUMP JUMPDEST SWAP3 SWAP2 POP POP JUMP JUMPDEST PUSH1 0x0 PUSH1 0x20 DUP3 DUP5 SUB SLT ISZERO PUSH2 0x11A4 JUMPI PUSH2 0x11A3 PUSH2 0x17F5 JUMP JUMPDEST JUMPDEST PUSH1 0x0 PUSH2 0x11B2 DUP5 DUP3 DUP6 ADD PUSH2 0x114F JUMP JUMPDEST SWAP2 POP POP SWAP3 SWAP2 POP POP JUMP JUMPDEST PUSH1 0x0 PUSH1 0x20 DUP3 DUP5 SUB SLT ISZERO PUSH2 0x11D1 JUMPI PUSH2 0x11D0 PUSH2 0x17F5 JUMP JUMPDEST JUMPDEST PUSH1 0x0 PUSH2 0x11DF DUP5 DUP3 DUP6 ADD PUSH2 0x1164 JUMP JUMPDEST SWAP2 POP POP SWAP3 SWAP2 POP POP JUMP JUMPDEST PUSH1 0x0 DUP1 PUSH1 0x40 DUP4 DUP6 SUB SLT ISZERO PUSH2 0x11FF JUMPI PUSH2 0x11FE PUSH2 0x17F5 JUMP JUMPDEST JUMPDEST PUSH1 0x0 PUSH2 0x120D DUP6 DUP3 DUP7 ADD PUSH2 0x1164 JUMP JUMPDEST SWAP3 POP POP PUSH1 0x20 PUSH2 0x121E DUP6 DUP3 DUP7 ADD PUSH2 0x113A JUMP JUMPDEST SWAP2 POP POP SWAP3 POP SWAP3 SWAP1 POP JUMP JUMPDEST PUSH1 0x0 DUP1 PUSH1 0x40 DUP4 DUP6 SUB SLT ISZERO PUSH2 0x123F JUMPI PUSH2 0x123E PUSH2 0x17F5 JUMP JUMPDEST JUMPDEST PUSH1 0x0 PUSH2 0x124D DUP6 DUP3 DUP7 ADD PUSH2 0x1164 JUMP JUMPDEST SWAP3 POP POP PUSH1 0x20 PUSH2 0x125E DUP6 DUP3 DUP7 ADD PUSH2 0x1164 JUMP JUMPDEST SWAP2 POP POP SWAP3 POP SWAP3 SWAP1 POP JUMP JUMPDEST PUSH1 0x0 DUP1 PUSH1 0x0 PUSH1 0x60 DUP5 DUP7 SUB SLT ISZERO PUSH2 0x1281 JUMPI PUSH2 0x1280 PUSH2 0x17F5 JUMP JUMPDEST JUMPDEST PUSH1 0x0 PUSH2 0x128F DUP7 DUP3 DUP8 ADD PUSH2 0x1164 JUMP JUMPDEST SWAP4 POP POP PUSH1 0x20 PUSH2 0x12A0 DUP7 DUP3 DUP8 ADD PUSH2 0x1179 JUMP JUMPDEST SWAP3 POP POP PUSH1 0x40 PUSH2 0x12B1 DUP7 DUP3 DUP8 ADD PUSH2 0x1179 JUMP JUMPDEST SWAP2 POP POP SWAP3 POP SWAP3 POP SWAP3 JUMP JUMPDEST PUSH2 0x12C4 DUP2 PUSH2 0x1738 JUMP JUMPDEST DUP3 MSTORE POP POP JUMP JUMPDEST PUSH2 0x12D3 DUP2 PUSH2 0x174A JUMP JUMPDEST DUP3 MSTORE POP POP JUMP JUMPDEST PUSH2 0x12E2 DUP2 PUSH2 0x1790 JUMP JUMPDEST DUP3 MSTORE POP POP JUMP JUMPDEST PUSH1 0x0 PUSH2 0x12F5 PUSH1 0x15 DUP4 PUSH2 0x169D JUMP JUMPDEST SWAP2 POP PUSH2 0x1300 DUP3 PUSH2 0x17FA JUMP JUMPDEST PUSH1 0x20 DUP3 ADD SWAP1 POP SWAP2 SWAP1 POP JUMP JUMPDEST PUSH1 0x0 PUSH2 0x1318 PUSH1 0x7 DUP4 PUSH2 0x169D JUMP JUMPDEST SWAP2 POP PUSH2 0x1323 DUP3 PUSH2 0x1823 JUMP JUMPDEST PUSH1 0x20 DUP3 ADD SWAP1 POP SWAP2 SWAP1 POP JUMP JUMPDEST PUSH1 0x0 PUSH2 0x133B PUSH1 0x11 DUP4 PUSH2 0x169D JUMP JUMPDEST SWAP2 POP PUSH2 0x1346 DUP3 PUSH2 0x184C JUMP JUMPDEST PUSH1 0x20 DUP3 ADD SWAP1 POP SWAP2 SWAP1 POP JUMP JUMPDEST PUSH1 0x0 PUSH2 0x135E PUSH1 0xB DUP4 PUSH2 0x169D JUMP JUMPDEST SWAP2 POP PUSH2 0x1369 DUP3 PUSH2 0x1875 JUMP JUMPDEST PUSH1 0x20 DUP3 ADD SWAP1 POP SWAP2 SWAP1 POP JUMP JUMPDEST PUSH1 0x0 PUSH2 0x1381 PUSH1 0xE DUP4 PUSH2 0x169D JUMP JUMPDEST SWAP2 POP PUSH2 0x138C DUP3 PUSH2 0x189E JUMP JUMPDEST PUSH1 0x20 DUP3 ADD SWAP1 POP SWAP2 SWAP1 POP JUMP JUMPDEST PUSH1 0x0 PUSH2 0x13A4 PUSH1 0xE DUP4 PUSH2 0x169D JUMP JUMPDEST SWAP2 POP PUSH2 0x13AF DUP3 PUSH2 0x18C7 JUMP JUMPDEST PUSH1 0x20 DUP3 ADD SWAP1 POP SWAP2 SWAP1 POP JUMP JUMPDEST PUSH1 0x0 PUSH2 0x13C7 PUSH1 0xB DUP4 PUSH2 0x169D JUMP JUMPDEST SWAP2 POP PUSH2 0x13D2 DUP3 PUSH2 0x18F0 JUMP JUMPDEST PUSH1 0x20 DUP3 ADD SWAP1 POP SWAP2 SWAP1 POP JUMP JUMPDEST PUSH1 0x0 PUSH2 0x13EA PUSH1 0x5 DUP4 PUSH2 0x169D JUMP JUMPDEST SWAP2 POP PUSH2 0x13F5 DUP3 PUSH2 0x1919 JUMP JUMPDEST PUSH1 0x20 DUP3 ADD SWAP1 POP SWAP2 SWAP1 POP JUMP JUMPDEST PUSH1 0x0 PUSH2 0x140D PUSH1 0x9 DUP4 PUSH2 0x169D JUMP JUMPDEST SWAP2 POP PUSH2 0x1418 DUP3 PUSH2 0x1942 JUMP JUMPDEST PUSH1 0x20 DUP3 ADD SWAP1 POP SWAP2 SWAP1 POP JUMP JUMPDEST PUSH2 0x142C DUP2 PUSH2 0x1776 JUMP JUMPDEST DUP3 MSTORE POP POP JUMP JUMPDEST PUSH2 0x143B DUP2 PUSH2 0x1780 JUMP JUMPDEST DUP3 MSTORE POP POP JUMP JUMPDEST PUSH1 0x0 PUSH1 0x60 DUP3 ADD SWAP1 POP PUSH2 0x1456 PUSH1 0x0 DUP4 ADD DUP7 PUSH2 0x12BB JUMP JUMPDEST PUSH2 0x1463 PUSH1 0x20 DUP4 ADD DUP6 PUSH2 0x12BB JUMP JUMPDEST PUSH2 0x1470 PUSH1 0x40 DUP4 ADD DUP5 PUSH2 0x1423 JUMP JUMPDEST SWAP5 SWAP4 POP POP POP POP JUMP JUMPDEST PUSH1 0x0 PUSH1 0x40 DUP3 ADD SWAP1 POP PUSH2 0x148D PUSH1 0x0 DUP4 ADD DUP6 PUSH2 0x12BB JUMP JUMPDEST PUSH2 0x149A PUSH1 0x20 DUP4 ADD DUP5 PUSH2 0x1423 JUMP JUMPDEST SWAP4 SWAP3 POP POP POP JUMP JUMPDEST PUSH1 0x0 PUSH1 0xC0 DUP3 ADD SWAP1 POP PUSH2 0x14B6 PUSH1 0x0 DUP4 ADD DUP10 PUSH2 0x12BB JUMP JUMPDEST PUSH2 0x14C3 PUSH1 0x20 DUP4 ADD DUP9 PUSH2 0x1423 JUMP JUMPDEST PUSH2 0x14D0 PUSH1 0x40 DUP4 ADD DUP8 PUSH2 0x1423 JUMP JUMPDEST PUSH2 0x14DD PUSH1 0x60 DUP4 ADD DUP7 PUSH2 0x1432 JUMP JUMPDEST PUSH2 0x14EA PUSH1 0x80 DUP4 ADD DUP6 PUSH2 0x1432 JUMP JUMPDEST PUSH2 0x14F7 PUSH1 0xA0 DUP4 ADD DUP5 PUSH2 0x12CA JUMP JUMPDEST SWAP8 SWAP7 POP POP POP POP POP POP POP JUMP JUMPDEST PUSH1 0x0 PUSH1 0x20 DUP3 ADD SWAP1 POP PUSH2 0x1517 PUSH1 0x0 DUP4 ADD DUP5 PUSH2 0x12D9 JUMP JUMPDEST SWAP3 SWAP2 POP POP JUMP JUMPDEST PUSH1 0x0 PUSH1 0x20 DUP3 ADD SWAP1 POP DUP2 DUP2 SUB PUSH1 0x0 DUP4 ADD MSTORE PUSH2 0x1536 DUP2 PUSH2 0x12E8 JUMP JUMPDEST SWAP1 POP SWAP2 SWAP1 POP JUMP JUMPDEST PUSH1 0x0 PUSH1 0x20 DUP3 ADD SWAP1 POP DUP2 DUP2 SUB PUSH1 0x0 DUP4 ADD MSTORE PUSH2 0x1556 DUP2 PUSH2 0x130B JUMP JUMPDEST SWAP1 POP SWAP2 SWAP1 POP JUMP JUMPDEST PUSH1 0x0 PUSH1 0x20 DUP3 ADD SWAP1 POP DUP2 DUP2 SUB PUSH1 0x0 DUP4 ADD MSTORE PUSH2 0x1576 DUP2 PUSH2 0x132E JUMP JUMPDEST SWAP1 POP SWAP2 SWAP1 POP JUMP JUMPDEST PUSH1 0x0 PUSH1 0x20 DUP3 ADD SWAP1 POP DUP2 DUP2 SUB PUSH1 0x0 DUP4 ADD MSTORE PUSH2 0x1596 DUP2 PUSH2 0x1351 JUMP JUMPDEST SWAP1 POP SWAP2 SWAP1 POP JUMP JUMPDEST PUSH1 0x0 PUSH1 0x20 DUP3 ADD SWAP1 POP DUP2 DUP2 SUB PUSH1 0x0 DUP4 ADD MSTORE PUSH2 0x15B6 DUP2 PUSH2 0x1374 JUMP JUMPDEST SWAP1 POP SWAP2 SWAP1 POP JUMP JUMPDEST PUSH1 0x0 PUSH1 0x20 DUP3 ADD SWAP1 POP DUP2 DUP2 SUB PUSH1 0x0 DUP4 ADD MSTORE PUSH2 0x15D6 DUP2 PUSH2 0x1397 JUMP JUMPDEST SWAP1 POP SWAP2 SWAP1 POP JUMP JUMPDEST PUSH1 0x0 PUSH1 0x20 DUP3 ADD SWAP1 POP DUP2 DUP2 SUB PUSH1 0x0 DUP4 ADD MSTORE PUSH2 0x15F6 DUP2 PUSH2 0x13BA JUMP JUMPDEST SWAP1 POP SWAP2 SWAP1 POP JUMP JUMPDEST PUSH1 0x0 PUSH1 0x20 DUP3 ADD SWAP1 POP DUP2 DUP2 SUB PUSH1 0x0 DUP4 ADD MSTORE PUSH2 0x1616 DUP2 PUSH2 0x13DD JUMP JUMPDEST SWAP1 POP SWAP2 SWAP1 POP JUMP JUMPDEST PUSH1 0x0 PUSH1 0x20 DUP3 ADD SWAP1 POP DUP2 DUP2 SUB PUSH1 0x0 DUP4 ADD MSTORE PUSH2 0x1636 DUP2 PUSH2 0x1400 JUMP JUMPDEST SWAP1 POP SWAP2 SWAP1 POP JUMP JUMPDEST PUSH1 0x0 PUSH1 0x20 DUP3 ADD SWAP1 POP PUSH2 0x1652 PUSH1 0x0 DUP4 ADD DUP5 PUSH2 0x1423 JUMP JUMPDEST SWAP3 SWAP2 POP POP JUMP JUMPDEST PUSH1 0x0 PUSH1 0x80 DUP3 ADD SWAP1 POP PUSH2 0x166D PUSH1 0x0 DUP4 ADD DUP8 PUSH2 0x1423 JUMP JUMPDEST PUSH2 0x167A PUSH1 0x20 DUP4 ADD DUP7 PUSH2 0x1423 JUMP JUMPDEST PUSH2 0x1687 PUSH1 0x40 DUP4 ADD DUP6 PUSH2 0x1432 JUMP JUMPDEST PUSH2 0x1694 PUSH1 0x60 DUP4 ADD DUP5 PUSH2 0x1432 JUMP JUMPDEST SWAP6 SWAP5 POP POP POP POP POP JUMP JUMPDEST PUSH1 0x0 DUP3 DUP3 MSTORE PUSH1 0x20 DUP3 ADD SWAP1 POP SWAP3 SWAP2 POP POP JUMP JUMPDEST PUSH1 0x0 PUSH2 0x16B9 DUP3 PUSH2 0x1776 JUMP JUMPDEST SWAP2 POP PUSH2 0x16C4 DUP4 PUSH2 0x1776 JUMP JUMPDEST SWAP3 POP DUP3 PUSH32 0xFFFFFFFFFFFFFFFFFFFFFFFFFFFFFFFFFFFFFFFFFFFFFFFFFFFFFFFFFFFFFFFF SUB DUP3 GT ISZERO PUSH2 0x16F9 JUMPI PUSH2 0x16F8 PUSH2 0x17C6 JUMP JUMPDEST JUMPDEST DUP3 DUP3 ADD SWAP1 POP SWAP3 SWAP2 POP POP JUMP JUMPDEST PUSH1 0x0 PUSH2 0x170F DUP3 PUSH2 0x1776 JUMP JUMPDEST SWAP2 POP PUSH2 0x171A DUP4 PUSH2 0x1776 JUMP JUMPDEST SWAP3 POP DUP3 DUP3 LT ISZERO PUSH2 0x172D JUMPI PUSH2 0x172C PUSH2 0x17C6 JUMP JUMPDEST JUMPDEST DUP3 DUP3 SUB SWAP1 POP SWAP3 SWAP2 POP POP JUMP JUMPDEST PUSH1 0x0 PUSH2 0x1743 DUP3 PUSH2 0x1756 JUMP JUMPDEST SWAP1 POP SWAP2 SWAP1 POP JUMP JUMPDEST PUSH1 0x0 DUP2 ISZERO ISZERO SWAP1 POP SWAP2 SWAP1 POP JUMP JUMPDEST PUSH1 0x0 PUSH20 0xFFFFFFFFFFFFFFFFFFFFFFFFFFFFFFFFFFFFFFFF DUP3 AND SWAP1 POP SWAP2 SWAP1 POP JUMP JUMPDEST PUSH1 0x0 DUP2 SWAP1 POP SWAP2 SWAP1 POP JUMP JUMPDEST PUSH1 0x0 PUSH4 0xFFFFFFFF DUP3 AND SWAP1 POP SWAP2 SWAP1 POP JUMP JUMPDEST PUSH1 0x0 PUSH2 0x179B DUP3 PUSH2 0x17A2 JUMP JUMPDEST SWAP1 POP SWAP2 SWAP1 POP JUMP JUMPDEST PUSH1 0x0 PUSH2 0x17AD DUP3 PUSH2 0x17B4 JUMP JUMPDEST SWAP1 POP SWAP2 SWAP1 POP JUMP JUMPDEST PUSH1 0x0 PUSH2 0x17BF DUP3 PUSH2 0x1756 JUMP JUMPDEST SWAP1 POP SWAP2 SWAP1 POP JUMP JUMPDEST PUSH32 0x4E487B7100000000000000000000000000000000000000000000000000000000 PUSH1 0x0 MSTORE PUSH1 0x11 PUSH1 0x4 MSTORE PUSH1 0x24 PUSH1 0x0 REVERT JUMPDEST PUSH1 0x0 DUP1 REVERT JUMPDEST PUSH32 0x656E64206174203E206D6178206475726174696F6E0000000000000000000000 PUSH1 0x0 DUP3 ADD MSTORE POP JUMP JUMPDEST PUSH32 0x636C61696D656400000000000000000000000000000000000000000000000000 PUSH1 0x0 DUP3 ADD MSTORE POP JUMP JUMPDEST PUSH32 0x656E64206174203C207374617274206174000000000000000000000000000000 PUSH1 0x0 DUP3 ADD MSTORE POP JUMP JUMPDEST PUSH32 0x6E6F742063726561746F72000000000000000000000000000000000000000000 PUSH1 0x0 DUP3 ADD MSTORE POP JUMP JUMPDEST PUSH32 0x7374617274206174203C206E6F77000000000000000000000000000000000000 PUSH1 0x0 DUP3 ADD MSTORE POP JUMP JUMPDEST PUSH32 0x706C6564676564203C20676F616C000000000000000000000000000000000000 PUSH1 0x0 DUP3 ADD MSTORE POP JUMP JUMPDEST PUSH32 0x6E6F742073746172746564000000000000000000000000000000000000000000 PUSH1 0x0 DUP3 ADD MSTORE POP JUMP JUMPDEST PUSH32 0x656E646564000000000000000000000000000000000000000000000000000000 PUSH1 0x0 DUP3 ADD MSTORE POP JUMP JUMPDEST PUSH32 0x6E6F7420656E6465640000000000000000000000000000000000000000000000 PUSH1 0x0 DUP3 ADD MSTORE POP JUMP JUMPDEST PUSH2 0x1974 DUP2 PUSH2 0x1738 JUMP JUMPDEST DUP2 EQ PUSH2 0x197F JUMPI PUSH1 0x0 DUP1 REVERT JUMPDEST POP JUMP JUMPDEST PUSH2 0x198B DUP2 PUSH2 0x174A JUMP JUMPDEST DUP2 EQ PUSH2 0x1996 JUMPI PUSH1 0x0 DUP1 REVERT JUMPDEST POP JUMP JUMPDEST PUSH2 0x19A2 DUP2 PUSH2 0x1776 JUMP JUMPDEST DUP2 EQ PUSH2 0x19AD JUMPI PUSH1 0x0 DUP1 REVERT JUMPDEST POP JUMP JUMPDEST PUSH2 0x19B9 DUP2 PUSH2 0x1780 JUMP JUMPDEST DUP2 EQ PUSH2 0x19C4 JUMPI PUSH1 0x0 DUP1 REVERT JUMPDEST POP JUMP INVALID LOG2 PUSH5 0x6970667358 0x22 SLT KECCAK256 PUSH22 0x4DB0704C6983BF19E29D3487BFA6A330048403AA4C2 CREATE 0xC2 0xDE PUSH3 0x93B8B7 LOG3 SAR PUSH5 0x736F6C6343 STOP ADDMOD SMOD STOP CALLER "
				},
				"gasEstimates": {
					"creation": {
						"codeDepositCost": "1330600",
						"executionCost": "infinite",
						"totalCost": "infinite"
					},
					"external": {
						"campaigns(uint256)": "infinite",
						"cancel(uint256)": "infinite",
						"claim(uint256)": "infinite",
						"count()": "2430",
						"launch(uint256,uint32,uint32)": "infinite",
						"pledge(uint256,uint256)": "infinite",
						"pledgedAmount(uint256,address)": "infinite",
						"refund(uint256)": "infinite",
						"token()": "infinite",
						"unpledge(uint256,uint256)": "infinite"
					}
				},
				"methodIdentifiers": {
					"campaigns(uint256)": "141961bc",
					"cancel(uint256)": "40e58ee5",
					"claim(uint256)": "379607f5",
					"count()": "06661abd",
					"launch(uint256,uint32,uint32)": "2c63f146",
					"pledge(uint256,uint256)": "fde327be",
					"pledgedAmount(uint256,address)": "aa4fb63a",
					"refund(uint256)": "278ecde1",
					"token()": "fc0c546a",
					"unpledge(uint256,uint256)": "711853ab"
				}
			},
			"storageLayout": {
				"storage": [
					{
						"astId": 64,
						"contract": "contracts/Task3_CrowdFund.sol:CrowdFund",
						"label": "count",
						"offset": 0,
						"slot": "0",
						"type": "t_uint256"
					},
					{
						"astId": 69,
						"contract": "contracts/Task3_CrowdFund.sol:CrowdFund",
						"label": "campaigns",
						"offset": 0,
						"slot": "1",
						"type": "t_mapping(t_uint256,t_struct(Campaign)59_storage)"
					},
					{
						"astId": 75,
						"contract": "contracts/Task3_CrowdFund.sol:CrowdFund",
						"label": "pledgedAmount",
						"offset": 0,
						"slot": "2",
						"type": "t_mapping(t_uint256,t_mapping(t_address,t_uint256))"
					}
				],
				"types": {
					"t_address": {
						"encoding": "inplace",
						"label": "address",
						"numberOfBytes": "20"
					},
					"t_bool": {
						"encoding": "inplace",
						"label": "bool",
						"numberOfBytes": "1"
					},
					"t_mapping(t_address,t_uint256)": {
						"encoding": "mapping",
						"key": "t_address",
						"label": "mapping(address => uint256)",
						"numberOfBytes": "32",
						"value": "t_uint256"
					},
					"t_mapping(t_uint256,t_mapping(t_address,t_uint256))": {
						"encoding": "mapping",
						"key": "t_uint256",
						"label": "mapping(uint256 => mapping(address => uint256))",
						"numberOfBytes": "32",
						"value": "t_mapping(t_address,t_uint256)"
					},
					"t_mapping(t_uint256,t_struct(Campaign)59_storage)": {
						"encoding": "mapping",
						"key": "t_uint256",
						"label": "mapping(uint256 => struct CrowdFund.Campaign)",
						"numberOfBytes": "32",
						"value": "t_struct(Campaign)59_storage"
					},
					"t_struct(Campaign)59_storage": {
						"encoding": "inplace",
						"label": "struct CrowdFund.Campaign",
						"members": [
							{
								"astId": 48,
								"contract": "contracts/Task3_CrowdFund.sol:CrowdFund",
								"label": "creator",
								"offset": 0,
								"slot": "0",
								"type": "t_address"
							},
							{
								"astId": 50,
								"contract": "contracts/Task3_CrowdFund.sol:CrowdFund",
								"label": "goal",
								"offset": 0,
								"slot": "1",
								"type": "t_uint256"
							},
							{
								"astId": 52,
								"contract": "contracts/Task3_CrowdFund.sol:CrowdFund",
								"label": "pledged",
								"offset": 0,
								"slot": "2",
								"type": "t_uint256"
							},
							{
								"astId": 54,
								"contract": "contracts/Task3_CrowdFund.sol:CrowdFund",
								"label": "startAt",
								"offset": 0,
								"slot": "3",
								"type": "t_uint32"
							},
							{
								"astId": 56,
								"contract": "contracts/Task3_CrowdFund.sol:CrowdFund",
								"label": "endAt",
								"offset": 4,
								"slot": "3",
								"type": "t_uint32"
							},
							{
								"astId": 58,
								"contract": "contracts/Task3_CrowdFund.sol:CrowdFund",
								"label": "claimed",
								"offset": 8,
								"slot": "3",
								"type": "t_bool"
							}
						],
						"numberOfBytes": "128"
					},
					"t_uint256": {
						"encoding": "inplace",
						"label": "uint256",
						"numberOfBytes": "32"
					},
					"t_uint32": {
						"encoding": "inplace",
						"label": "uint32",
						"numberOfBytes": "4"
					}
				}
			},
			"userdoc": {
				"kind": "user",
				"methods": {},
				"version": 1
			}
		}
	}
}