{
	"contracts/Task3_CrowdFund.sol": {
		"CrowdFund": {
			"abi": [
				{
					"inputs": [
						{
							"internalType": "uint256",
							"name": "_goal",
							"type": "uint256"
						},
						{
							"internalType": "uint32",
							"name": "_startAt",
							"type": "uint32"
						},
						{
							"internalType": "uint32",
							"name": "_endAt",
							"type": "uint32"
						}
					],
					"name": "launch",
					"outputs": [],
					"stateMutability": "nonpayable",
					"type": "function"
				}
			],
			"devdoc": {
				"kind": "dev",
				"methods": {},
				"version": 1
			},
			"evm": {
				"assembly": "    /* \"contracts/Task3_CrowdFund.sol\":70:212  contract CrowdFund {... */\n  mstore(0x40, 0x80)\n  callvalue\n  dup1\n  iszero\n  tag_1\n  jumpi\n  0x00\n  dup1\n  revert\ntag_1:\n  pop\n  dataSize(sub_0)\n  dup1\n  dataOffset(sub_0)\n  0x00\n  codecopy\n  0x00\n  return\nstop\n\nsub_0: assembly {\n        /* \"contracts/Task3_CrowdFund.sol\":70:212  contract CrowdFund {... */\n      mstore(0x40, 0x80)\n      callvalue\n      dup1\n      iszero\n      tag_1\n      jumpi\n      0x00\n      dup1\n      revert\n    tag_1:\n      pop\n      jumpi(tag_2, lt(calldatasize, 0x04))\n      shr(0xe0, calldataload(0x00))\n      dup1\n      0x2c63f146\n      eq\n      tag_3\n      jumpi\n    tag_2:\n      0x00\n      dup1\n      revert\n        /* \"contracts/Task3_CrowdFund.sol\":95:210  function launch(... */\n    tag_3:\n      tag_4\n      0x04\n      dup1\n      calldatasize\n      sub\n      dup2\n      add\n      swap1\n      tag_5\n      swap2\n      swap1\n      tag_6\n      jump\t// in\n    tag_5:\n      tag_7\n      jump\t// in\n    tag_4:\n      stop\n    tag_7:\n      pop\n      pop\n      pop\n      jump\t// out\n        /* \"#utility.yul\":7:146   */\n    tag_10:\n        /* \"#utility.yul\":53:58   */\n      0x00\n        /* \"#utility.yul\":91:97   */\n      dup2\n        /* \"#utility.yul\":78:98   */\n      calldataload\n        /* \"#utility.yul\":69:98   */\n      swap1\n      pop\n        /* \"#utility.yul\":107:140   */\n      tag_12\n        /* \"#utility.yul\":134:139   */\n      dup2\n        /* \"#utility.yul\":107:140   */\n      tag_13\n      jump\t// in\n    tag_12:\n        /* \"#utility.yul\":7:146   */\n      swap3\n      swap2\n      pop\n      pop\n      jump\t// out\n        /* \"#utility.yul\":152:289   */\n    tag_14:\n        /* \"#utility.yul\":197:202   */\n      0x00\n        /* \"#utility.yul\":235:241   */\n      dup2\n        /* \"#utility.yul\":222:242   */\n      calldataload\n        /* \"#utility.yul\":213:242   */\n      swap1\n      pop\n        /* \"#utility.yul\":251:283   */\n      tag_16\n        /* \"#utility.yul\":277:282   */\n      dup2\n        /* \"#utility.yul\":251:283   */\n      tag_17\n      jump\t// in\n    tag_16:\n        /* \"#utility.yul\":152:289   */\n      swap3\n      swap2\n      pop\n      pop\n      jump\t// out\n        /* \"#utility.yul\":295:910   */\n    tag_6:\n        /* \"#utility.yul\":370:376   */\n      0x00\n        /* \"#utility.yul\":378:384   */\n      dup1\n        /* \"#utility.yul\":386:392   */\n      0x00\n        /* \"#utility.yul\":435:437   */\n      0x60\n        /* \"#utility.yul\":423:432   */\n      dup5\n        /* \"#utility.yul\":414:421   */\n      dup7\n        /* \"#utility.yul\":410:433   */\n      sub\n        /* \"#utility.yul\":406:438   */\n      slt\n        /* \"#utility.yul\":403:522   */\n      iszero\n      tag_19\n      jumpi\n        /* \"#utility.yul\":441:520   */\n      tag_20\n      tag_21\n      jump\t// in\n    tag_20:\n        /* \"#utility.yul\":403:522   */\n    tag_19:\n        /* \"#utility.yul\":561:562   */\n      0x00\n        /* \"#utility.yul\":586:639   */\n      tag_22\n        /* \"#utility.yul\":631:638   */\n      dup7\n        /* \"#utility.yul\":622:628   */\n      dup3\n        /* \"#utility.yul\":611:620   */\n      dup8\n        /* \"#utility.yul\":607:629   */\n      add\n        /* \"#utility.yul\":586:639   */\n      tag_10\n      jump\t// in\n    tag_22:\n        /* \"#utility.yul\":576:639   */\n      swap4\n      pop\n        /* \"#utility.yul\":532:649   */\n      pop\n        /* \"#utility.yul\":688:690   */\n      0x20\n        /* \"#utility.yul\":714:766   */\n      tag_23\n        /* \"#utility.yul\":758:765   */\n      dup7\n        /* \"#utility.yul\":749:755   */\n      dup3\n        /* \"#utility.yul\":738:747   */\n      dup8\n        /* \"#utility.yul\":734:756   */\n      add\n        /* \"#utility.yul\":714:766   */\n      tag_14\n      jump\t// in\n    tag_23:\n        /* \"#utility.yul\":704:766   */\n      swap3\n      pop\n        /* \"#utility.yul\":659:776   */\n      pop\n        /* \"#utility.yul\":815:817   */\n      0x40\n        /* \"#utility.yul\":841:893   */\n      tag_24\n        /* \"#utility.yul\":885:892   */\n      dup7\n        /* \"#utility.yul\":876:882   */\n      dup3\n        /* \"#utility.yul\":865:874   */\n      dup8\n        /* \"#utility.yul\":861:883   */\n      add\n        /* \"#utility.yul\":841:893   */\n      tag_14\n      jump\t// in\n    tag_24:\n        /* \"#utility.yul\":831:893   */\n      swap2\n      pop\n        /* \"#utility.yul\":786:903   */\n      pop\n        /* \"#utility.yul\":295:910   */\n      swap3\n      pop\n      swap3\n      pop\n      swap3\n      jump\t// out\n        /* \"#utility.yul\":997:1074   */\n    tag_27:\n        /* \"#utility.yul\":1034:1041   */\n      0x00\n        /* \"#utility.yul\":1063:1068   */\n      dup2\n        /* \"#utility.yul\":1052:1068   */\n      swap1\n      pop\n        /* \"#utility.yul\":997:1074   */\n      swap2\n      swap1\n      pop\n      jump\t// out\n        /* \"#utility.yul\":1080:1173   */\n    tag_29:\n        /* \"#utility.yul\":1116:1123   */\n      0x00\n        /* \"#utility.yul\":1156:1166   */\n      0xffffffff\n        /* \"#utility.yul\":1149:1154   */\n      dup3\n        /* \"#utility.yul\":1145:1167   */\n      and\n        /* \"#utility.yul\":1134:1167   */\n      swap1\n      pop\n        /* \"#utility.yul\":1080:1173   */\n      swap2\n      swap1\n      pop\n      jump\t// out\n        /* \"#utility.yul\":1302:1419   */\n    tag_21:\n        /* \"#utility.yul\":1411:1412   */\n      0x00\n        /* \"#utility.yul\":1408:1409   */\n      dup1\n        /* \"#utility.yul\":1401:1413   */\n      revert\n        /* \"#utility.yul\":1425:1547   */\n    tag_13:\n        /* \"#utility.yul\":1498:1522   */\n      tag_35\n        /* \"#utility.yul\":1516:1521   */\n      dup2\n        /* \"#utility.yul\":1498:1522   */\n      tag_27\n      jump\t// in\n    tag_35:\n        /* \"#utility.yul\":1491:1496   */\n      dup2\n        /* \"#utility.yul\":1488:1523   */\n      eq\n        /* \"#utility.yul\":1478:1541   */\n      tag_36\n      jumpi\n        /* \"#utility.yul\":1537:1538   */\n      0x00\n        /* \"#utility.yul\":1534:1535   */\n      dup1\n        /* \"#utility.yul\":1527:1539   */\n      revert\n        /* \"#utility.yul\":1478:1541   */\n    tag_36:\n        /* \"#utility.yul\":1425:1547   */\n      pop\n      jump\t// out\n        /* \"#utility.yul\":1553:1673   */\n    tag_17:\n        /* \"#utility.yul\":1625:1648   */\n      tag_38\n        /* \"#utility.yul\":1642:1647   */\n      dup2\n        /* \"#utility.yul\":1625:1648   */\n      tag_29\n      jump\t// in\n    tag_38:\n        /* \"#utility.yul\":1618:1623   */\n      dup2\n        /* \"#utility.yul\":1615:1649   */\n      eq\n        /* \"#utility.yul\":1605:1667   */\n      tag_39\n      jumpi\n        /* \"#utility.yul\":1663:1664   */\n      0x00\n        /* \"#utility.yul\":1660:1661   */\n      dup1\n        /* \"#utility.yul\":1653:1665   */\n      revert\n        /* \"#utility.yul\":1605:1667   */\n    tag_39:\n        /* \"#utility.yul\":1553:1673   */\n      pop\n      jump\t// out\n\n    auxdata: 0xa264697066735822122063218f0aff2d144c47e05c76c702c6387e8b5b08ec3bf6bc6c774a21cee00cb464736f6c63430008070033\n}\n",
				"bytecode": {
					"linkReferences": {},
					"object": "608060405234801561001057600080fd5b50610151806100206000396000f3fe608060405234801561001057600080fd5b506004361061002b5760003560e01c80632c63f14614610030575b600080fd5b61004a6004803603810190610045919061007b565b61004c565b005b505050565b600081359050610060816100ed565b92915050565b60008135905061007581610104565b92915050565b600080600060608486031215610094576100936100e8565b5b60006100a286828701610051565b93505060206100b386828701610066565b92505060406100c486828701610066565b9150509250925092565b6000819050919050565b600063ffffffff82169050919050565b600080fd5b6100f6816100ce565b811461010157600080fd5b50565b61010d816100d8565b811461011857600080fd5b5056fea264697066735822122063218f0aff2d144c47e05c76c702c6387e8b5b08ec3bf6bc6c774a21cee00cb464736f6c63430008070033",
					"opcodes": "PUSH1 0x80 PUSH1 0x40 MSTORE CALLVALUE DUP1 ISZERO PUSH2 0x10 JUMPI PUSH1 0x0 DUP1 REVERT JUMPDEST POP PUSH2 0x151 DUP1 PUSH2 0x20 PUSH1 0x0 CODECOPY PUSH1 0x0 RETURN INVALID PUSH1 0x80 PUSH1 0x40 MSTORE CALLVALUE DUP1 ISZERO PUSH2 0x10 JUMPI PUSH1 0x0 DUP1 REVERT JUMPDEST POP PUSH1 0x4 CALLDATASIZE LT PUSH2 0x2B JUMPI PUSH1 0x0 CALLDATALOAD PUSH1 0xE0 SHR DUP1 PUSH4 0x2C63F146 EQ PUSH2 0x30 JUMPI JUMPDEST PUSH1 0x0 DUP1 REVERT JUMPDEST PUSH2 0x4A PUSH1 0x4 DUP1 CALLDATASIZE SUB DUP2 ADD SWAP1 PUSH2 0x45 SWAP2 SWAP1 PUSH2 0x7B JUMP JUMPDEST PUSH2 0x4C JUMP JUMPDEST STOP JUMPDEST POP POP POP JUMP JUMPDEST PUSH1 0x0 DUP2 CALLDATALOAD SWAP1 POP PUSH2 0x60 DUP2 PUSH2 0xED JUMP JUMPDEST SWAP3 SWAP2 POP POP JUMP JUMPDEST PUSH1 0x0 DUP2 CALLDATALOAD SWAP1 POP PUSH2 0x75 DUP2 PUSH2 0x104 JUMP JUMPDEST SWAP3 SWAP2 POP POP JUMP JUMPDEST PUSH1 0x0 DUP1 PUSH1 0x0 PUSH1 0x60 DUP5 DUP7 SUB SLT ISZERO PUSH2 0x94 JUMPI PUSH2 0x93 PUSH2 0xE8 JUMP JUMPDEST JUMPDEST PUSH1 0x0 PUSH2 0xA2 DUP7 DUP3 DUP8 ADD PUSH2 0x51 JUMP JUMPDEST SWAP4 POP POP PUSH1 0x20 PUSH2 0xB3 DUP7 DUP3 DUP8 ADD PUSH2 0x66 JUMP JUMPDEST SWAP3 POP POP PUSH1 0x40 PUSH2 0xC4 DUP7 DUP3 DUP8 ADD PUSH2 0x66 JUMP JUMPDEST SWAP2 POP POP SWAP3 POP SWAP3 POP SWAP3 JUMP JUMPDEST PUSH1 0x0 DUP2 SWAP1 POP SWAP2 SWAP1 POP JUMP JUMPDEST PUSH1 0x0 PUSH4 0xFFFFFFFF DUP3 AND SWAP1 POP SWAP2 SWAP1 POP JUMP JUMPDEST PUSH1 0x0 DUP1 REVERT JUMPDEST PUSH2 0xF6 DUP2 PUSH2 0xCE JUMP JUMPDEST DUP2 EQ PUSH2 0x101 JUMPI PUSH1 0x0 DUP1 REVERT JUMPDEST POP JUMP JUMPDEST PUSH2 0x10D DUP2 PUSH2 0xD8 JUMP JUMPDEST DUP2 EQ PUSH2 0x118 JUMPI PUSH1 0x0 DUP1 REVERT JUMPDEST POP JUMP INVALID LOG2 PUSH5 0x6970667358 0x22 SLT KECCAK256 PUSH4 0x218F0AFF 0x2D EQ 0x4C SELFBALANCE 0xE0 0x5C PUSH23 0xC702C6387E8B5B08EC3BF6BC6C774A21CEE00CB464736F PUSH13 0x63430008070033000000000000 "
				},
				"gasEstimates": {
					"creation": {
						"codeDepositCost": "67400",
						"executionCost": "117",
						"totalCost": "67517"
					},
					"external": {
						"launch(uint256,uint32,uint32)": "infinite"
					}
				},
				"methodIdentifiers": {
					"launch(uint256,uint32,uint32)": "2c63f146"
				}
			},
			"storageLayout": {
				"storage": [],
				"types": null
			},
			"userdoc": {
				"kind": "user",
				"methods": {},
				"version": 1
			}
		}
	}
}